{"contracts/helpers/StakingContractV2Test.sol":{"StakingContractV2Test":{"abi":[{"inputs":[],"name":"AmountCannotBeZero","type":"error"},{"inputs":[],"name":"RewardAmountGreaterThanBalance","type":"error"},{"inputs":[],"name":"RewardDurationNotFinished","type":"error"},{"inputs":[],"name":"RewardRateCannotBeZero","type":"error"},{"anonymous":false,"inputs":[{"indexed":false,"internalType":"address","name":"previousAdmin","type":"address"},{"indexed":false,"internalType":"address","name":"newAdmin","type":"address"}],"name":"AdminChanged","type":"event"},{"anonymous":false,"inputs":[{"indexed":true,"internalType":"address","name":"beacon","type":"address"}],"name":"BeaconUpgraded","type":"event"},{"anonymous":false,"inputs":[{"indexed":false,"internalType":"uint8","name":"version","type":"uint8"}],"name":"Initialized","type":"event"},{"anonymous":false,"inputs":[{"indexed":false,"internalType":"address","name":"account","type":"address"}],"name":"Paused","type":"event"},{"anonymous":false,"inputs":[{"indexed":false,"internalType":"address","name":"account","type":"address"},{"indexed":false,"internalType":"uint256","name":"amount","type":"uint256"}],"name":"RewardsWithdrawn","type":"event"},{"anonymous":false,"inputs":[{"indexed":true,"internalType":"bytes32","name":"role","type":"bytes32"},{"indexed":true,"internalType":"bytes32","name":"previousAdminRole","type":"bytes32"},{"indexed":true,"internalType":"bytes32","name":"newAdminRole","type":"bytes32"}],"name":"RoleAdminChanged","type":"event"},{"anonymous":false,"inputs":[{"indexed":true,"internalType":"bytes32","name":"role","type":"bytes32"},{"indexed":true,"internalType":"address","name":"account","type":"address"},{"indexed":true,"internalType":"address","name":"sender","type":"address"}],"name":"RoleGranted","type":"event"},{"anonymous":false,"inputs":[{"indexed":true,"internalType":"bytes32","name":"role","type":"bytes32"},{"indexed":true,"internalType":"address","name":"account","type":"address"},{"indexed":true,"internalType":"address","name":"sender","type":"address"}],"name":"RoleRevoked","type":"event"},{"anonymous":false,"inputs":[{"indexed":false,"internalType":"address","name":"account","type":"address"},{"indexed":false,"internalType":"uint256","name":"amount","type":"uint256"}],"name":"Staked","type":"event"},{"anonymous":false,"inputs":[{"indexed":false,"internalType":"address","name":"account","type":"address"}],"name":"Unpaused","type":"event"},{"anonymous":false,"inputs":[{"indexed":true,"internalType":"address","name":"implementation","type":"address"}],"name":"Upgraded","type":"event"},{"inputs":[],"name":"ADMIN_ROLE","outputs":[{"internalType":"bytes32","name":"","type":"bytes32"}],"stateMutability":"view","type":"function"},{"inputs":[],"name":"DEFAULT_ADMIN_ROLE","outputs":[{"internalType":"bytes32","name":"","type":"bytes32"}],"stateMutability":"view","type":"function"},{"inputs":[{"internalType":"address","name":"","type":"address"}],"name":"balanceOf","outputs":[{"internalType":"uint256","name":"","type":"uint256"}],"stateMutability":"view","type":"function"},{"inputs":[{"internalType":"address","name":"_rewardToken","type":"address"}],"name":"changeRewardToken","outputs":[],"stateMutability":"nonpayable","type":"function"},{"inputs":[{"internalType":"address","name":"_stakingToken","type":"address"}],"name":"changeStakingToken","outputs":[],"stateMutability":"nonpayable","type":"function"},{"inputs":[],"name":"duration","outputs":[{"internalType":"uint256","name":"","type":"uint256"}],"stateMutability":"view","type":"function"},{"inputs":[{"internalType":"address","name":"_account","type":"address"}],"name":"earned","outputs":[{"internalType":"uint256","name":"","type":"uint256"}],"stateMutability":"view","type":"function"},{"inputs":[],"name":"finishAt","outputs":[{"internalType":"uint256","name":"","type":"uint256"}],"stateMutability":"view","type":"function"},{"inputs":[],"name":"getReward","outputs":[],"stateMutability":"nonpayable","type":"function"},{"inputs":[{"internalType":"bytes32","name":"role","type":"bytes32"}],"name":"getRoleAdmin","outputs":[{"internalType":"bytes32","name":"","type":"bytes32"}],"stateMutability":"view","type":"function"},{"inputs":[{"internalType":"bytes32","name":"role","type":"bytes32"},{"internalType":"address","name":"account","type":"address"}],"name":"grantRole","outputs":[],"stateMutability":"nonpayable","type":"function"},{"inputs":[{"internalType":"bytes32","name":"role","type":"bytes32"},{"internalType":"address","name":"account","type":"address"}],"name":"hasRole","outputs":[{"internalType":"bool","name":"","type":"bool"}],"stateMutability":"view","type":"function"},{"inputs":[{"internalType":"address","name":"_stakingToken","type":"address"},{"internalType":"address","name":"_rewardToken","type":"address"}],"name":"initialize","outputs":[],"stateMutability":"nonpayable","type":"function"},{"inputs":[],"name":"lastTimeRewardApplicable","outputs":[{"internalType":"uint256","name":"","type":"uint256"}],"stateMutability":"view","type":"function"},{"inputs":[{"internalType":"uint256","name":"_amount","type":"uint256"}],"name":"notifyRewardAmount","outputs":[],"stateMutability":"nonpayable","type":"function"},{"inputs":[],"name":"owner","outputs":[{"internalType":"address","name":"","type":"address"}],"stateMutability":"view","type":"function"},{"inputs":[],"name":"pause","outputs":[],"stateMutability":"nonpayable","type":"function"},{"inputs":[],"name":"paused","outputs":[{"internalType":"bool","name":"","type":"bool"}],"stateMutability":"view","type":"function"},{"inputs":[],"name":"proxiableUUID","outputs":[{"internalType":"bytes32","name":"","type":"bytes32"}],"stateMutability":"view","type":"function"},{"inputs":[{"internalType":"bytes32","name":"role","type":"bytes32"},{"internalType":"address","name":"account","type":"address"}],"name":"renounceRole","outputs":[],"stateMutability":"nonpayable","type":"function"},{"inputs":[{"internalType":"bytes32","name":"role","type":"bytes32"},{"internalType":"address","name":"account","type":"address"}],"name":"revokeRole","outputs":[],"stateMutability":"nonpayable","type":"function"},{"inputs":[],"name":"rewardPerToken","outputs":[{"internalType":"uint256","name":"","type":"uint256"}],"stateMutability":"view","type":"function"},{"inputs":[],"name":"rewardPerTokenStored","outputs":[{"internalType":"uint256","name":"","type":"uint256"}],"stateMutability":"view","type":"function"},{"inputs":[],"name":"rewardRate","outputs":[{"internalType":"uint256","name":"","type":"uint256"}],"stateMutability":"view","type":"function"},{"inputs":[],"name":"rewardToken","outputs":[{"internalType":"contract IERC20Upgradeable","name":"","type":"address"}],"stateMutability":"view","type":"function"},{"inputs":[{"internalType":"address","name":"","type":"address"}],"name":"rewards","outputs":[{"internalType":"uint256","name":"","type":"uint256"}],"stateMutability":"view","type":"function"},{"inputs":[{"internalType":"uint256","name":"_duration","type":"uint256"}],"name":"setRewardsDuration","outputs":[],"stateMutability":"nonpayable","type":"function"},{"inputs":[{"internalType":"uint256","name":"_amount","type":"uint256"}],"name":"stake","outputs":[],"stateMutability":"nonpayable","type":"function"},{"inputs":[],"name":"stakingToken","outputs":[{"internalType":"contract IERC20Upgradeable","name":"","type":"address"}],"stateMutability":"view","type":"function"},{"inputs":[{"internalType":"bytes4","name":"interfaceId","type":"bytes4"}],"name":"supportsInterface","outputs":[{"internalType":"bool","name":"","type":"bool"}],"stateMutability":"view","type":"function"},{"inputs":[],"name":"testFN","outputs":[{"internalType":"uint256","name":"","type":"uint256"}],"stateMutability":"view","type":"function"},{"inputs":[],"name":"totalStaked","outputs":[{"internalType":"uint256","name":"","type":"uint256"}],"stateMutability":"view","type":"function"},{"inputs":[],"name":"unpause","outputs":[],"stateMutability":"nonpayable","type":"function"},{"inputs":[],"name":"updatedAt","outputs":[{"internalType":"uint256","name":"","type":"uint256"}],"stateMutability":"view","type":"function"},{"inputs":[{"internalType":"address","name":"newImplementation","type":"address"}],"name":"upgradeTo","outputs":[],"stateMutability":"nonpayable","type":"function"},{"inputs":[{"internalType":"address","name":"newImplementation","type":"address"},{"internalType":"bytes","name":"data","type":"bytes"}],"name":"upgradeToAndCall","outputs":[],"stateMutability":"payable","type":"function"},{"inputs":[{"internalType":"address","name":"","type":"address"}],"name":"userRewardPerTokenPaid","outputs":[{"internalType":"uint256","name":"","type":"uint256"}],"stateMutability":"view","type":"function"},{"inputs":[{"internalType":"uint256","name":"_amount","type":"uint256"}],"name":"withdraw","outputs":[],"stateMutability":"nonpayable","type":"function"}],"evm":{"bytecode":{"linkReferences":{},"object":"60a06040523060805234801561001457600080fd5b5060805161238d61004c6000396000818161099d015281816109dd01528181610ea801528181610ee80152610f77015261238d6000f3fe6080604052600436106102245760003560e01c806370a08231116101235780638da5cb5b116100ab578063cd3daf9d1161006f578063cd3daf9d14610640578063d547741f14610655578063df136d6514610675578063e79ad5771461068c578063f7c618c1146106a057600080fd5b80638da5cb5b146105aa57806391d14854146105cb578063a217fddf146105eb578063a694fc3a14610600578063cc1a378f1461062057600080fd5b80637b0a47ee116100f25780637b0a47ee1461052457806380faa57d1461053b578063817b1cd2146105505780638456cb59146105675780638b8763471461057c57600080fd5b806370a082311461048457806372f702f3146104b25780637519ab50146104eb57806375b238fc1461050257600080fd5b806336568abe116101b1578063485cc95511610175578063485cc9551461040d5780634f1ef2861461042d57806352d1902d146104405780635c975abb1461045557806367d3b4881461046d57600080fd5b806336568abe146103835780633659cfe6146103a35780633c6b16ab146103c35780633d18b912146103e35780633f4ba83a146103f857600080fd5b80630fb5a6b4116101f85780630fb5a6b4146102dc578063248a9ca3146102f3578063285d333b146103235780632e1a7d4d146103435780632f2ff15d1461036357600080fd5b80628cc2621461022957806301ffc9a71461025c5780630700037d1461028c578063088ab8ce146102ba575b600080fd5b34801561023557600080fd5b50610249610244366004611ea3565b6106c1565b6040519081526020015b60405180910390f35b34801561026857600080fd5b5061027c610277366004611ebe565b610741565b6040519015158152602001610253565b34801561029857600080fd5b506102496102a7366004611ea3565b61016a6020526000908152604090205481565b3480156102c657600080fd5b506102da6102d5366004611ea3565b610776565b005b3480156102e857600080fd5b506102496101635481565b3480156102ff57600080fd5b5061024961030e366004611ee8565b600090815260fb602052604090206001015490565b34801561032f57600080fd5b506102da61033e366004611ea3565b6107b2565b34801561034f57600080fd5b506102da61035e366004611ee8565b6107ee565b34801561036f57600080fd5b506102da61037e366004611f01565b6108e6565b34801561038f57600080fd5b506102da61039e366004611f01565b610910565b3480156103af57600080fd5b506102da6103be366004611ea3565b610993565b3480156103cf57600080fd5b506102da6103de366004611ee8565b610a6f565b3480156103ef57600080fd5b506102da610c28565b34801561040457600080fd5b506102da610d07565b34801561041957600080fd5b506102da610428366004611f2d565b610d27565b6102da61043b366004611f6d565b610e9e565b34801561044c57600080fd5b50610249610f6a565b34801561046157600080fd5b5060975460ff1661027c565b34801561047957600080fd5b506102496101645481565b34801561049057600080fd5b5061024961049f366004611ea3565b6101686020526000908152604090205481565b3480156104be57600080fd5b5061015f546104d3906001600160a01b031681565b6040516001600160a01b039091168152602001610253565b3480156104f757600080fd5b506102496101655481565b34801561050e57600080fd5b5061024960008051602061233883398151915281565b34801561053057600080fd5b506102496101665481565b34801561054757600080fd5b5061024961101d565b34801561055c57600080fd5b506102496101625481565b34801561057357600080fd5b506102da611031565b34801561058857600080fd5b50610249610597366004611ea3565b6101696020526000908152604090205481565b3480156105b657600080fd5b50610161546104d3906001600160a01b031681565b3480156105d757600080fd5b5061027c6105e6366004611f01565b611051565b3480156105f757600080fd5b50610249600081565b34801561060c57600080fd5b506102da61061b366004611ee8565b61107c565b34801561062c57600080fd5b506102da61063b366004611ee8565b6111aa565b34801561064c57600080fd5b506102496111ed565b34801561066157600080fd5b506102da610670366004611f01565b611254565b34801561068157600080fd5b506102496101675481565b34801561069857600080fd5b50600d610249565b3480156106ac57600080fd5b50610160546104d3906001600160a01b031681565b6001600160a01b038116600090815261016a6020908152604080832054610169909252822054670de0b6b3a7640000906106f96111ed565b6107039190612045565b6001600160a01b03851660009081526101686020526040902054610727919061205c565b610731919061207b565b61073b919061209d565b92915050565b60006001600160e01b03198216637965db0b60e01b148061073b57506301ffc9a760e01b6001600160e01b031983161461073b565b60008051602061233883398151915261078e81611279565b5061016080546001600160a01b0319166001600160a01b0392909216919091179055565b6000805160206123388339815191526107ca81611279565b5061015f80546001600160a01b0319166001600160a01b0392909216919091179055565b6107f6611283565b6107fe6112cb565b336108076111ed565b6101675561081361101d565b610165556001600160a01b0381161561085e5761082f816106c1565b6001600160a01b038216600090815261016a602090815260408083209390935561016754610169909152919020555b6000821161087f5760405163d11b25af60e01b815260040160405180910390fd5b33600090815261016860205260408120805484929061089f908490612045565b925050819055508161016260008282546108b99190612045565b9091555050610160546108d7906001600160a01b0316303385611326565b506108e3600161012d55565b50565b600082815260fb602052604090206001015461090181611279565b61090b838361139f565b505050565b6001600160a01b03811633146109855760405162461bcd60e51b815260206004820152602f60248201527f416363657373436f6e74726f6c3a2063616e206f6e6c792072656e6f756e636560448201526e103937b632b9903337b91039b2b63360891b60648201526084015b60405180910390fd5b61098f8282611425565b5050565b6001600160a01b037f00000000000000000000000000000000000000000000000000000000000000001630036109db5760405162461bcd60e51b815260040161097c906120b5565b7f00000000000000000000000000000000000000000000000000000000000000006001600160a01b0316610a246000805160206122f1833981519152546001600160a01b031690565b6001600160a01b031614610a4a5760405162461bcd60e51b815260040161097c90612101565b610a538161148c565b604080516000808252602082019092526108e3918391906114a4565b600080516020612338833981519152610a8781611279565b6000610a916111ed565b61016755610a9d61101d565b610165556001600160a01b03811615610ae857610ab9816106c1565b6001600160a01b038216600090815261016a602090815260408083209390935561016754610169909152919020555b61016454421115610b0a5761016354610b01908461207b565b61016655610b4a565b60004261016454610b1b9190612045565b61016654610b29919061205c565b61016354909150610b3a858361209d565b610b44919061207b565b61016655505b60006101665411610b6e57604051637a69ed5160e11b815260040160405180910390fd5b610160546040516370a0823160e01b81523060048201526001600160a01b03909116906370a0823190602401602060405180830381865afa158015610bb7573d6000803e3d6000fd5b505050506040513d601f19601f82011682018060405250810190610bdb919061214d565b6101635461016654610bed919061205c565b1115610c0c576040516388b88e1160e01b815260040160405180910390fd5b61016354610c1a904261209d565b610164555050426101655550565b33610c316111ed565b61016755610c3d61101d565b610165556001600160a01b03811615610c8857610c59816106c1565b6001600160a01b038216600090815261016a602090815260408083209390935561016754610169909152919020555b33600090815261016a60205260409020548015610cca5733600081815261016a602052604081205561016054610cca916001600160a01b03909116908361160f565b60408051338152602081018390527f8a43c4352486ec339f487f64af78ca5cbf06cd47833f073d3baf3a193e503161910160405180910390a15050565b600080516020612338833981519152610d1f81611279565b6108e361163f565b600054610100900460ff1615808015610d475750600054600160ff909116105b80610d615750303b158015610d61575060005460ff166001145b610dc45760405162461bcd60e51b815260206004820152602e60248201527f496e697469616c697a61626c653a20636f6e747261637420697320616c72656160448201526d191e481a5b9a5d1a585b1a5e995960921b606482015260840161097c565b6000805460ff191660011790558015610de7576000805461ff0019166101001790555b610def611691565b610df76116b8565b610dff6116e7565b610e0a60003361139f565b610e226000805160206123388339815191523361139f565b61015f80546001600160a01b038086166001600160a01b031992831617909255610160805492851692909116919091179055801561090b576000805461ff0019169055604051600181527f7f26b83ff96e1f2b6a682f133852f6798a09c465da95921460cefb38474024989060200160405180910390a1505050565b6001600160a01b037f0000000000000000000000000000000000000000000000000000000000000000163003610ee65760405162461bcd60e51b815260040161097c906120b5565b7f00000000000000000000000000000000000000000000000000000000000000006001600160a01b0316610f2f6000805160206122f1833981519152546001600160a01b031690565b6001600160a01b031614610f555760405162461bcd60e51b815260040161097c90612101565b610f5e8261148c565b61098f828260016114a4565b6000306001600160a01b037f0000000000000000000000000000000000000000000000000000000000000000161461100a5760405162461bcd60e51b815260206004820152603860248201527f555550535570677261646561626c653a206d757374206e6f742062652063616c60448201527f6c6564207468726f7567682064656c656761746563616c6c0000000000000000606482015260840161097c565b506000805160206122f183398151915290565b600061102c4261016454611716565b905090565b60008051602061233883398151915261104981611279565b6108e361172f565b600091825260fb602090815260408084206001600160a01b0393909316845291905290205460ff1690565b611084611283565b61108c6112cb565b336110956111ed565b610167556110a161101d565b610165556001600160a01b038116156110ec576110bd816106c1565b6001600160a01b038216600090815261016a602090815260408083209390935561016754610169909152919020555b6000821161110d5760405163d11b25af60e01b815260040160405180910390fd5b61015f54611126906001600160a01b0316333085611326565b33600090815261016860205260408120805484929061114690849061209d565b92505081905550816101626000828254611160919061209d565b909155505060408051338152602081018490527f9e71bc8eea02a63969f509818f2dafb9254532904319f9dbda79b67bd34a5f3d910160405180910390a1506108e3600161012d55565b6000805160206123388339815191526111c281611279565b426101645411156111e65760405163715f384360e11b815260040160405180910390fd5b5061016355565b60006101625460000361120257506101675490565b610162546101655461121261101d565b61121c9190612045565b6101665461122a919061205c565b61123c90670de0b6b3a764000061205c565b611246919061207b565b6101675461102c919061209d565b600082815260fb602052604090206001015461126f81611279565b61090b8383611425565b6108e3813361176c565b60975460ff16156112c95760405162461bcd60e51b815260206004820152601060248201526f14185d5cd8589b194e881c185d5cd95960821b604482015260640161097c565b565b600261012d540361131e5760405162461bcd60e51b815260206004820152601f60248201527f5265656e7472616e637947756172643a207265656e7472616e742063616c6c00604482015260640161097c565b600261012d55565b6040516001600160a01b03808516602483015283166044820152606481018290526113919085906323b872dd60e01b906084015b60408051601f198184030181529190526020810180516001600160e01b03166001600160e01b0319909316929092179091526117c5565b50505050565b600161012d55565b6113a98282611051565b61098f57600082815260fb602090815260408083206001600160a01b03851684529091529020805460ff191660011790556113e13390565b6001600160a01b0316816001600160a01b0316837f2f8788117e7eff1d82e926ec794901d17c78024a50270940304540a733656f0d60405160405180910390a45050565b61142f8282611051565b1561098f57600082815260fb602090815260408083206001600160a01b0385168085529252808320805460ff1916905551339285917ff6391f5c32d9c69d2a47ea670b442974b53935d1edc7fd64eb21e047a839171b9190a45050565b60008051602061233883398151915261098f81611279565b7f4910fdfa16fed3260ed0e7147f7cc6da11a60208b5b9406d12a635614ffd91435460ff16156114d75761090b83611897565b826001600160a01b03166352d1902d6040518163ffffffff1660e01b8152600401602060405180830381865afa925050508015611531575060408051601f3d908101601f1916820190925261152e9181019061214d565b60015b6115945760405162461bcd60e51b815260206004820152602e60248201527f45524331393637557067726164653a206e657720696d706c656d656e7461746960448201526d6f6e206973206e6f74205555505360901b606482015260840161097c565b6000805160206122f183398151915281146116035760405162461bcd60e51b815260206004820152602960248201527f45524331393637557067726164653a20756e737570706f727465642070726f786044820152681a58589b195555525160ba1b606482015260840161097c565b5061090b838383611933565b6040516001600160a01b03831660248201526044810182905261090b90849063a9059cbb60e01b9060640161135a565b611647611958565b6097805460ff191690557f5db9ee0a495bf2e6ff9c91a7834c1ba4fdd244a5e8aa4e537bd38aeae4b073aa335b6040516001600160a01b03909116815260200160405180910390a1565b600054610100900460ff166112c95760405162461bcd60e51b815260040161097c90612166565b600054610100900460ff166116df5760405162461bcd60e51b815260040161097c90612166565b6112c96119a1565b600054610100900460ff1661170e5760405162461bcd60e51b815260040161097c90612166565b6112c96119c8565b6000818311156117265781611728565b825b9392505050565b611737611283565b6097805460ff191660011790557f62e78cea01bee320cd4e420270b5ea74000d11b0c9f74754ebdbfc544b05a2586116743390565b6117768282611051565b61098f57611783816119fb565b61178e836020611a0d565b60405160200161179f9291906121dd565b60408051601f198184030181529082905262461bcd60e51b825261097c91600401612252565b600061181a826040518060400160405280602081526020017f5361666545524332303a206c6f772d6c6576656c2063616c6c206661696c6564815250856001600160a01b0316611ba99092919063ffffffff16565b80519091501561090b57808060200190518101906118389190612285565b61090b5760405162461bcd60e51b815260206004820152602a60248201527f5361666545524332303a204552433230206f7065726174696f6e20646964206e6044820152691bdd081cdd58d8d9595960b21b606482015260840161097c565b6001600160a01b0381163b6119045760405162461bcd60e51b815260206004820152602d60248201527f455243313936373a206e657720696d706c656d656e746174696f6e206973206e60448201526c1bdd08184818dbdb9d1c9858dd609a1b606482015260840161097c565b6000805160206122f183398151915280546001600160a01b0319166001600160a01b0392909216919091179055565b61193c83611bc0565b6000825111806119495750805b1561090b576113918383611c00565b60975460ff166112c95760405162461bcd60e51b815260206004820152601460248201527314185d5cd8589b194e881b9bdd081c185d5cd95960621b604482015260640161097c565b600054610100900460ff166113975760405162461bcd60e51b815260040161097c90612166565b600054610100900460ff166119ef5760405162461bcd60e51b815260040161097c90612166565b6097805460ff19169055565b606061073b6001600160a01b03831660145b60606000611a1c83600261205c565b611a2790600261209d565b67ffffffffffffffff811115611a3f57611a3f611f57565b6040519080825280601f01601f191660200182016040528015611a69576020820181803683370190505b509050600360fc1b81600081518110611a8457611a846122a7565b60200101906001600160f81b031916908160001a905350600f60fb1b81600181518110611ab357611ab36122a7565b60200101906001600160f81b031916908160001a9053506000611ad784600261205c565b611ae290600161209d565b90505b6001811115611b5a576f181899199a1a9b1b9c1cb0b131b232b360811b85600f1660108110611b1657611b166122a7565b1a60f81b828281518110611b2c57611b2c6122a7565b60200101906001600160f81b031916908160001a90535060049490941c93611b53816122bd565b9050611ae5565b5083156117285760405162461bcd60e51b815260206004820181905260248201527f537472696e67733a20686578206c656e67746820696e73756666696369656e74604482015260640161097c565b6060611bb88484600085611cf4565b949350505050565b611bc981611897565b6040516001600160a01b038216907fbc7cd75a20ee27fd9adebab32041f755214dbc6bffa90cc0225b39da2e5c2d3b90600090a250565b60606001600160a01b0383163b611c685760405162461bcd60e51b815260206004820152602660248201527f416464726573733a2064656c65676174652063616c6c20746f206e6f6e2d636f6044820152651b9d1c9858dd60d21b606482015260840161097c565b600080846001600160a01b031684604051611c8391906122d4565b600060405180830381855af49150503d8060008114611cbe576040519150601f19603f3d011682016040523d82523d6000602084013e611cc3565b606091505b5091509150611ceb828260405180606001604052806027815260200161231160279139611dcf565b95945050505050565b606082471015611d555760405162461bcd60e51b815260206004820152602660248201527f416464726573733a20696e73756666696369656e742062616c616e636520666f6044820152651c8818d85b1b60d21b606482015260840161097c565b600080866001600160a01b03168587604051611d7191906122d4565b60006040518083038185875af1925050503d8060008114611dae576040519150601f19603f3d011682016040523d82523d6000602084013e611db3565b606091505b5091509150611dc487838387611de8565b979650505050505050565b60608315611dde575081611728565b6117288383611e5d565b60608315611e57578251600003611e50576001600160a01b0385163b611e505760405162461bcd60e51b815260206004820152601d60248201527f416464726573733a2063616c6c20746f206e6f6e2d636f6e7472616374000000604482015260640161097c565b5081611bb8565b611bb883835b815115611e6d5781518083602001fd5b8060405162461bcd60e51b815260040161097c9190612252565b80356001600160a01b0381168114611e9e57600080fd5b919050565b600060208284031215611eb557600080fd5b61172882611e87565b600060208284031215611ed057600080fd5b81356001600160e01b03198116811461172857600080fd5b600060208284031215611efa57600080fd5b5035919050565b60008060408385031215611f1457600080fd5b82359150611f2460208401611e87565b90509250929050565b60008060408385031215611f4057600080fd5b611f4983611e87565b9150611f2460208401611e87565b634e487b7160e01b600052604160045260246000fd5b60008060408385031215611f8057600080fd5b611f8983611e87565b9150602083013567ffffffffffffffff80821115611fa657600080fd5b818501915085601f830112611fba57600080fd5b813581811115611fcc57611fcc611f57565b604051601f8201601f19908116603f01168101908382118183101715611ff457611ff4611f57565b8160405282815288602084870101111561200d57600080fd5b8260208601602083013760006020848301015280955050505050509250929050565b634e487b7160e01b600052601160045260246000fd5b6000828210156120575761205761202f565b500390565b60008160001904831182151516156120765761207661202f565b500290565b60008261209857634e487b7160e01b600052601260045260246000fd5b500490565b600082198211156120b0576120b061202f565b500190565b6020808252602c908201527f46756e6374696f6e206d7573742062652063616c6c6564207468726f7567682060408201526b19195b1959d85d1958d85b1b60a21b606082015260800190565b6020808252602c908201527f46756e6374696f6e206d7573742062652063616c6c6564207468726f7567682060408201526b6163746976652070726f787960a01b606082015260800190565b60006020828403121561215f57600080fd5b5051919050565b6020808252602b908201527f496e697469616c697a61626c653a20636f6e7472616374206973206e6f74206960408201526a6e697469616c697a696e6760a81b606082015260800190565b60005b838110156121cc5781810151838201526020016121b4565b838111156113915750506000910152565b7f416363657373436f6e74726f6c3a206163636f756e74200000000000000000008152600083516122158160178501602088016121b1565b7001034b99036b4b9b9b4b733903937b6329607d1b60179184019182015283516122468160288401602088016121b1565b01602801949350505050565b60208152600082518060208401526122718160408501602087016121b1565b601f01601f19169190910160400192915050565b60006020828403121561229757600080fd5b8151801515811461172857600080fd5b634e487b7160e01b600052603260045260246000fd5b6000816122cc576122cc61202f565b506000190190565b600082516122e68184602087016121b1565b919091019291505056fe360894a13ba1a3210667c828492db98dca3e2076cc3735a920a3ca505d382bbc416464726573733a206c6f772d6c6576656c2064656c65676174652063616c6c206661696c6564a49807205ce4d355092ef5a8a18f56e8913cf4a201fbe287825b095693c21775a264697066735822122098e61b5974a97020d2e73fb568b349fad3c435f752a21a0d1007eeeb207b446864736f6c634300080f0033","opcodes":"PUSH1 0xA0 PUSH1 0x40 MSTORE ADDRESS PUSH1 0x80 MSTORE CALLVALUE DUP1 ISZERO PUSH2 0x14 JUMPI PUSH1 0x0 DUP1 REVERT JUMPDEST POP PUSH1 0x80 MLOAD PUSH2 0x238D PUSH2 0x4C PUSH1 0x0 CODECOPY PUSH1 0x0 DUP2 DUP2 PUSH2 0x99D ADD MSTORE DUP2 DUP2 PUSH2 0x9DD ADD MSTORE DUP2 DUP2 PUSH2 0xEA8 ADD MSTORE DUP2 DUP2 PUSH2 0xEE8 ADD MSTORE PUSH2 0xF77 ADD MSTORE PUSH2 0x238D PUSH1 0x0 RETURN INVALID PUSH1 0x80 PUSH1 0x40 MSTORE PUSH1 0x4 CALLDATASIZE LT PUSH2 0x224 JUMPI PUSH1 0x0 CALLDATALOAD PUSH1 0xE0 SHR DUP1 PUSH4 0x70A08231 GT PUSH2 0x123 JUMPI DUP1 PUSH4 0x8DA5CB5B GT PUSH2 0xAB JUMPI DUP1 PUSH4 0xCD3DAF9D GT PUSH2 0x6F JUMPI DUP1 PUSH4 0xCD3DAF9D EQ PUSH2 0x640 JUMPI DUP1 PUSH4 0xD547741F EQ PUSH2 0x655 JUMPI DUP1 PUSH4 0xDF136D65 EQ PUSH2 0x675 JUMPI DUP1 PUSH4 0xE79AD577 EQ PUSH2 0x68C JUMPI DUP1 PUSH4 0xF7C618C1 EQ PUSH2 0x6A0 JUMPI PUSH1 0x0 DUP1 REVERT JUMPDEST DUP1 PUSH4 0x8DA5CB5B EQ PUSH2 0x5AA JUMPI DUP1 PUSH4 0x91D14854 EQ PUSH2 0x5CB JUMPI DUP1 PUSH4 0xA217FDDF EQ PUSH2 0x5EB JUMPI DUP1 PUSH4 0xA694FC3A EQ PUSH2 0x600 JUMPI DUP1 PUSH4 0xCC1A378F EQ PUSH2 0x620 JUMPI PUSH1 0x0 DUP1 REVERT JUMPDEST DUP1 PUSH4 0x7B0A47EE GT PUSH2 0xF2 JUMPI DUP1 PUSH4 0x7B0A47EE EQ PUSH2 0x524 JUMPI DUP1 PUSH4 0x80FAA57D EQ PUSH2 0x53B JUMPI DUP1 PUSH4 0x817B1CD2 EQ PUSH2 0x550 JUMPI DUP1 PUSH4 0x8456CB59 EQ PUSH2 0x567 JUMPI DUP1 PUSH4 0x8B876347 EQ PUSH2 0x57C JUMPI PUSH1 0x0 DUP1 REVERT JUMPDEST DUP1 PUSH4 0x70A08231 EQ PUSH2 0x484 JUMPI DUP1 PUSH4 0x72F702F3 EQ PUSH2 0x4B2 JUMPI DUP1 PUSH4 0x7519AB50 EQ PUSH2 0x4EB JUMPI DUP1 PUSH4 0x75B238FC EQ PUSH2 0x502 JUMPI PUSH1 0x0 DUP1 REVERT JUMPDEST DUP1 PUSH4 0x36568ABE GT PUSH2 0x1B1 JUMPI DUP1 PUSH4 0x485CC955 GT PUSH2 0x175 JUMPI DUP1 PUSH4 0x485CC955 EQ PUSH2 0x40D JUMPI DUP1 PUSH4 0x4F1EF286 EQ PUSH2 0x42D JUMPI DUP1 PUSH4 0x52D1902D EQ PUSH2 0x440 JUMPI DUP1 PUSH4 0x5C975ABB EQ PUSH2 0x455 JUMPI DUP1 PUSH4 0x67D3B488 EQ PUSH2 0x46D JUMPI PUSH1 0x0 DUP1 REVERT JUMPDEST DUP1 PUSH4 0x36568ABE EQ PUSH2 0x383 JUMPI DUP1 PUSH4 0x3659CFE6 EQ PUSH2 0x3A3 JUMPI DUP1 PUSH4 0x3C6B16AB EQ PUSH2 0x3C3 JUMPI DUP1 PUSH4 0x3D18B912 EQ PUSH2 0x3E3 JUMPI DUP1 PUSH4 0x3F4BA83A EQ PUSH2 0x3F8 JUMPI PUSH1 0x0 DUP1 REVERT JUMPDEST DUP1 PUSH4 0xFB5A6B4 GT PUSH2 0x1F8 JUMPI DUP1 PUSH4 0xFB5A6B4 EQ PUSH2 0x2DC JUMPI DUP1 PUSH4 0x248A9CA3 EQ PUSH2 0x2F3 JUMPI DUP1 PUSH4 0x285D333B EQ PUSH2 0x323 JUMPI DUP1 PUSH4 0x2E1A7D4D EQ PUSH2 0x343 JUMPI DUP1 PUSH4 0x2F2FF15D EQ PUSH2 0x363 JUMPI PUSH1 0x0 DUP1 REVERT JUMPDEST DUP1 PUSH3 0x8CC262 EQ PUSH2 0x229 JUMPI DUP1 PUSH4 0x1FFC9A7 EQ PUSH2 0x25C JUMPI DUP1 PUSH4 0x700037D EQ PUSH2 0x28C JUMPI DUP1 PUSH4 0x88AB8CE EQ PUSH2 0x2BA JUMPI JUMPDEST PUSH1 0x0 DUP1 REVERT JUMPDEST CALLVALUE DUP1 ISZERO PUSH2 0x235 JUMPI PUSH1 0x0 DUP1 REVERT JUMPDEST POP PUSH2 0x249 PUSH2 0x244 CALLDATASIZE PUSH1 0x4 PUSH2 0x1EA3 JUMP JUMPDEST PUSH2 0x6C1 JUMP JUMPDEST PUSH1 0x40 MLOAD SWAP1 DUP2 MSTORE PUSH1 0x20 ADD JUMPDEST PUSH1 0x40 MLOAD DUP1 SWAP2 SUB SWAP1 RETURN JUMPDEST CALLVALUE DUP1 ISZERO PUSH2 0x268 JUMPI PUSH1 0x0 DUP1 REVERT JUMPDEST POP PUSH2 0x27C PUSH2 0x277 CALLDATASIZE PUSH1 0x4 PUSH2 0x1EBE JUMP JUMPDEST PUSH2 0x741 JUMP JUMPDEST PUSH1 0x40 MLOAD SWAP1 ISZERO ISZERO DUP2 MSTORE PUSH1 0x20 ADD PUSH2 0x253 JUMP JUMPDEST CALLVALUE DUP1 ISZERO PUSH2 0x298 JUMPI PUSH1 0x0 DUP1 REVERT JUMPDEST POP PUSH2 0x249 PUSH2 0x2A7 CALLDATASIZE PUSH1 0x4 PUSH2 0x1EA3 JUMP JUMPDEST PUSH2 0x16A PUSH1 0x20 MSTORE PUSH1 0x0 SWAP1 DUP2 MSTORE PUSH1 0x40 SWAP1 KECCAK256 SLOAD DUP2 JUMP JUMPDEST CALLVALUE DUP1 ISZERO PUSH2 0x2C6 JUMPI PUSH1 0x0 DUP1 REVERT JUMPDEST POP PUSH2 0x2DA PUSH2 0x2D5 CALLDATASIZE PUSH1 0x4 PUSH2 0x1EA3 JUMP JUMPDEST PUSH2 0x776 JUMP JUMPDEST STOP JUMPDEST CALLVALUE DUP1 ISZERO PUSH2 0x2E8 JUMPI PUSH1 0x0 DUP1 REVERT JUMPDEST POP PUSH2 0x249 PUSH2 0x163 SLOAD DUP2 JUMP JUMPDEST CALLVALUE DUP1 ISZERO PUSH2 0x2FF JUMPI PUSH1 0x0 DUP1 REVERT JUMPDEST POP PUSH2 0x249 PUSH2 0x30E CALLDATASIZE PUSH1 0x4 PUSH2 0x1EE8 JUMP JUMPDEST PUSH1 0x0 SWAP1 DUP2 MSTORE PUSH1 0xFB PUSH1 0x20 MSTORE PUSH1 0x40 SWAP1 KECCAK256 PUSH1 0x1 ADD SLOAD SWAP1 JUMP JUMPDEST CALLVALUE DUP1 ISZERO PUSH2 0x32F JUMPI PUSH1 0x0 DUP1 REVERT JUMPDEST POP PUSH2 0x2DA PUSH2 0x33E CALLDATASIZE PUSH1 0x4 PUSH2 0x1EA3 JUMP JUMPDEST PUSH2 0x7B2 JUMP JUMPDEST CALLVALUE DUP1 ISZERO PUSH2 0x34F JUMPI PUSH1 0x0 DUP1 REVERT JUMPDEST POP PUSH2 0x2DA PUSH2 0x35E CALLDATASIZE PUSH1 0x4 PUSH2 0x1EE8 JUMP JUMPDEST PUSH2 0x7EE JUMP JUMPDEST CALLVALUE DUP1 ISZERO PUSH2 0x36F JUMPI PUSH1 0x0 DUP1 REVERT JUMPDEST POP PUSH2 0x2DA PUSH2 0x37E CALLDATASIZE PUSH1 0x4 PUSH2 0x1F01 JUMP JUMPDEST PUSH2 0x8E6 JUMP JUMPDEST CALLVALUE DUP1 ISZERO PUSH2 0x38F JUMPI PUSH1 0x0 DUP1 REVERT JUMPDEST POP PUSH2 0x2DA PUSH2 0x39E CALLDATASIZE PUSH1 0x4 PUSH2 0x1F01 JUMP JUMPDEST PUSH2 0x910 JUMP JUMPDEST CALLVALUE DUP1 ISZERO PUSH2 0x3AF JUMPI PUSH1 0x0 DUP1 REVERT JUMPDEST POP PUSH2 0x2DA PUSH2 0x3BE CALLDATASIZE PUSH1 0x4 PUSH2 0x1EA3 JUMP JUMPDEST PUSH2 0x993 JUMP JUMPDEST CALLVALUE DUP1 ISZERO PUSH2 0x3CF JUMPI PUSH1 0x0 DUP1 REVERT JUMPDEST POP PUSH2 0x2DA PUSH2 0x3DE CALLDATASIZE PUSH1 0x4 PUSH2 0x1EE8 JUMP JUMPDEST PUSH2 0xA6F JUMP JUMPDEST CALLVALUE DUP1 ISZERO PUSH2 0x3EF JUMPI PUSH1 0x0 DUP1 REVERT JUMPDEST POP PUSH2 0x2DA PUSH2 0xC28 JUMP JUMPDEST CALLVALUE DUP1 ISZERO PUSH2 0x404 JUMPI PUSH1 0x0 DUP1 REVERT JUMPDEST POP PUSH2 0x2DA PUSH2 0xD07 JUMP JUMPDEST CALLVALUE DUP1 ISZERO PUSH2 0x419 JUMPI PUSH1 0x0 DUP1 REVERT JUMPDEST POP PUSH2 0x2DA PUSH2 0x428 CALLDATASIZE PUSH1 0x4 PUSH2 0x1F2D JUMP JUMPDEST PUSH2 0xD27 JUMP JUMPDEST PUSH2 0x2DA PUSH2 0x43B CALLDATASIZE PUSH1 0x4 PUSH2 0x1F6D JUMP JUMPDEST PUSH2 0xE9E JUMP JUMPDEST CALLVALUE DUP1 ISZERO PUSH2 0x44C JUMPI PUSH1 0x0 DUP1 REVERT JUMPDEST POP PUSH2 0x249 PUSH2 0xF6A JUMP JUMPDEST CALLVALUE DUP1 ISZERO PUSH2 0x461 JUMPI PUSH1 0x0 DUP1 REVERT JUMPDEST POP PUSH1 0x97 SLOAD PUSH1 0xFF AND PUSH2 0x27C JUMP JUMPDEST CALLVALUE DUP1 ISZERO PUSH2 0x479 JUMPI PUSH1 0x0 DUP1 REVERT JUMPDEST POP PUSH2 0x249 PUSH2 0x164 SLOAD DUP2 JUMP JUMPDEST CALLVALUE DUP1 ISZERO PUSH2 0x490 JUMPI PUSH1 0x0 DUP1 REVERT JUMPDEST POP PUSH2 0x249 PUSH2 0x49F CALLDATASIZE PUSH1 0x4 PUSH2 0x1EA3 JUMP JUMPDEST PUSH2 0x168 PUSH1 0x20 MSTORE PUSH1 0x0 SWAP1 DUP2 MSTORE PUSH1 0x40 SWAP1 KECCAK256 SLOAD DUP2 JUMP JUMPDEST CALLVALUE DUP1 ISZERO PUSH2 0x4BE JUMPI PUSH1 0x0 DUP1 REVERT JUMPDEST POP PUSH2 0x15F SLOAD PUSH2 0x4D3 SWAP1 PUSH1 0x1 PUSH1 0x1 PUSH1 0xA0 SHL SUB AND DUP2 JUMP JUMPDEST PUSH1 0x40 MLOAD PUSH1 0x1 PUSH1 0x1 PUSH1 0xA0 SHL SUB SWAP1 SWAP2 AND DUP2 MSTORE PUSH1 0x20 ADD PUSH2 0x253 JUMP JUMPDEST CALLVALUE DUP1 ISZERO PUSH2 0x4F7 JUMPI PUSH1 0x0 DUP1 REVERT JUMPDEST POP PUSH2 0x249 PUSH2 0x165 SLOAD DUP2 JUMP JUMPDEST CALLVALUE DUP1 ISZERO PUSH2 0x50E JUMPI PUSH1 0x0 DUP1 REVERT JUMPDEST POP PUSH2 0x249 PUSH1 0x0 DUP1 MLOAD PUSH1 0x20 PUSH2 0x2338 DUP4 CODECOPY DUP2 MLOAD SWAP2 MSTORE DUP2 JUMP JUMPDEST CALLVALUE DUP1 ISZERO PUSH2 0x530 JUMPI PUSH1 0x0 DUP1 REVERT JUMPDEST POP PUSH2 0x249 PUSH2 0x166 SLOAD DUP2 JUMP JUMPDEST CALLVALUE DUP1 ISZERO PUSH2 0x547 JUMPI PUSH1 0x0 DUP1 REVERT JUMPDEST POP PUSH2 0x249 PUSH2 0x101D JUMP JUMPDEST CALLVALUE DUP1 ISZERO PUSH2 0x55C JUMPI PUSH1 0x0 DUP1 REVERT JUMPDEST POP PUSH2 0x249 PUSH2 0x162 SLOAD DUP2 JUMP JUMPDEST CALLVALUE DUP1 ISZERO PUSH2 0x573 JUMPI PUSH1 0x0 DUP1 REVERT JUMPDEST POP PUSH2 0x2DA PUSH2 0x1031 JUMP JUMPDEST CALLVALUE DUP1 ISZERO PUSH2 0x588 JUMPI PUSH1 0x0 DUP1 REVERT JUMPDEST POP PUSH2 0x249 PUSH2 0x597 CALLDATASIZE PUSH1 0x4 PUSH2 0x1EA3 JUMP JUMPDEST PUSH2 0x169 PUSH1 0x20 MSTORE PUSH1 0x0 SWAP1 DUP2 MSTORE PUSH1 0x40 SWAP1 KECCAK256 SLOAD DUP2 JUMP JUMPDEST CALLVALUE DUP1 ISZERO PUSH2 0x5B6 JUMPI PUSH1 0x0 DUP1 REVERT JUMPDEST POP PUSH2 0x161 SLOAD PUSH2 0x4D3 SWAP1 PUSH1 0x1 PUSH1 0x1 PUSH1 0xA0 SHL SUB AND DUP2 JUMP JUMPDEST CALLVALUE DUP1 ISZERO PUSH2 0x5D7 JUMPI PUSH1 0x0 DUP1 REVERT JUMPDEST POP PUSH2 0x27C PUSH2 0x5E6 CALLDATASIZE PUSH1 0x4 PUSH2 0x1F01 JUMP JUMPDEST PUSH2 0x1051 JUMP JUMPDEST CALLVALUE DUP1 ISZERO PUSH2 0x5F7 JUMPI PUSH1 0x0 DUP1 REVERT JUMPDEST POP PUSH2 0x249 PUSH1 0x0 DUP2 JUMP JUMPDEST CALLVALUE DUP1 ISZERO PUSH2 0x60C JUMPI PUSH1 0x0 DUP1 REVERT JUMPDEST POP PUSH2 0x2DA PUSH2 0x61B CALLDATASIZE PUSH1 0x4 PUSH2 0x1EE8 JUMP JUMPDEST PUSH2 0x107C JUMP JUMPDEST CALLVALUE DUP1 ISZERO PUSH2 0x62C JUMPI PUSH1 0x0 DUP1 REVERT JUMPDEST POP PUSH2 0x2DA PUSH2 0x63B CALLDATASIZE PUSH1 0x4 PUSH2 0x1EE8 JUMP JUMPDEST PUSH2 0x11AA JUMP JUMPDEST CALLVALUE DUP1 ISZERO PUSH2 0x64C JUMPI PUSH1 0x0 DUP1 REVERT JUMPDEST POP PUSH2 0x249 PUSH2 0x11ED JUMP JUMPDEST CALLVALUE DUP1 ISZERO PUSH2 0x661 JUMPI PUSH1 0x0 DUP1 REVERT JUMPDEST POP PUSH2 0x2DA PUSH2 0x670 CALLDATASIZE PUSH1 0x4 PUSH2 0x1F01 JUMP JUMPDEST PUSH2 0x1254 JUMP JUMPDEST CALLVALUE DUP1 ISZERO PUSH2 0x681 JUMPI PUSH1 0x0 DUP1 REVERT JUMPDEST POP PUSH2 0x249 PUSH2 0x167 SLOAD DUP2 JUMP JUMPDEST CALLVALUE DUP1 ISZERO PUSH2 0x698 JUMPI PUSH1 0x0 DUP1 REVERT JUMPDEST POP PUSH1 0xD PUSH2 0x249 JUMP JUMPDEST CALLVALUE DUP1 ISZERO PUSH2 0x6AC JUMPI PUSH1 0x0 DUP1 REVERT JUMPDEST POP PUSH2 0x160 SLOAD PUSH2 0x4D3 SWAP1 PUSH1 0x1 PUSH1 0x1 PUSH1 0xA0 SHL SUB AND DUP2 JUMP JUMPDEST PUSH1 0x1 PUSH1 0x1 PUSH1 0xA0 SHL SUB DUP2 AND PUSH1 0x0 SWAP1 DUP2 MSTORE PUSH2 0x16A PUSH1 0x20 SWAP1 DUP2 MSTORE PUSH1 0x40 DUP1 DUP4 KECCAK256 SLOAD PUSH2 0x169 SWAP1 SWAP3 MSTORE DUP3 KECCAK256 SLOAD PUSH8 0xDE0B6B3A7640000 SWAP1 PUSH2 0x6F9 PUSH2 0x11ED JUMP JUMPDEST PUSH2 0x703 SWAP2 SWAP1 PUSH2 0x2045 JUMP JUMPDEST PUSH1 0x1 PUSH1 0x1 PUSH1 0xA0 SHL SUB DUP6 AND PUSH1 0x0 SWAP1 DUP2 MSTORE PUSH2 0x168 PUSH1 0x20 MSTORE PUSH1 0x40 SWAP1 KECCAK256 SLOAD PUSH2 0x727 SWAP2 SWAP1 PUSH2 0x205C JUMP JUMPDEST PUSH2 0x731 SWAP2 SWAP1 PUSH2 0x207B JUMP JUMPDEST PUSH2 0x73B SWAP2 SWAP1 PUSH2 0x209D JUMP JUMPDEST SWAP3 SWAP2 POP POP JUMP JUMPDEST PUSH1 0x0 PUSH1 0x1 PUSH1 0x1 PUSH1 0xE0 SHL SUB NOT DUP3 AND PUSH4 0x7965DB0B PUSH1 0xE0 SHL EQ DUP1 PUSH2 0x73B JUMPI POP PUSH4 0x1FFC9A7 PUSH1 0xE0 SHL PUSH1 0x1 PUSH1 0x1 PUSH1 0xE0 SHL SUB NOT DUP4 AND EQ PUSH2 0x73B JUMP JUMPDEST PUSH1 0x0 DUP1 MLOAD PUSH1 0x20 PUSH2 0x2338 DUP4 CODECOPY DUP2 MLOAD SWAP2 MSTORE PUSH2 0x78E DUP2 PUSH2 0x1279 JUMP JUMPDEST POP PUSH2 0x160 DUP1 SLOAD PUSH1 0x1 PUSH1 0x1 PUSH1 0xA0 SHL SUB NOT AND PUSH1 0x1 PUSH1 0x1 PUSH1 0xA0 SHL SUB SWAP3 SWAP1 SWAP3 AND SWAP2 SWAP1 SWAP2 OR SWAP1 SSTORE JUMP JUMPDEST PUSH1 0x0 DUP1 MLOAD PUSH1 0x20 PUSH2 0x2338 DUP4 CODECOPY DUP2 MLOAD SWAP2 MSTORE PUSH2 0x7CA DUP2 PUSH2 0x1279 JUMP JUMPDEST POP PUSH2 0x15F DUP1 SLOAD PUSH1 0x1 PUSH1 0x1 PUSH1 0xA0 SHL SUB NOT AND PUSH1 0x1 PUSH1 0x1 PUSH1 0xA0 SHL SUB SWAP3 SWAP1 SWAP3 AND SWAP2 SWAP1 SWAP2 OR SWAP1 SSTORE JUMP JUMPDEST PUSH2 0x7F6 PUSH2 0x1283 JUMP JUMPDEST PUSH2 0x7FE PUSH2 0x12CB JUMP JUMPDEST CALLER PUSH2 0x807 PUSH2 0x11ED JUMP JUMPDEST PUSH2 0x167 SSTORE PUSH2 0x813 PUSH2 0x101D JUMP JUMPDEST PUSH2 0x165 SSTORE PUSH1 0x1 PUSH1 0x1 PUSH1 0xA0 SHL SUB DUP2 AND ISZERO PUSH2 0x85E JUMPI PUSH2 0x82F DUP2 PUSH2 0x6C1 JUMP JUMPDEST PUSH1 0x1 PUSH1 0x1 PUSH1 0xA0 SHL SUB DUP3 AND PUSH1 0x0 SWAP1 DUP2 MSTORE PUSH2 0x16A PUSH1 0x20 SWAP1 DUP2 MSTORE PUSH1 0x40 DUP1 DUP4 KECCAK256 SWAP4 SWAP1 SWAP4 SSTORE PUSH2 0x167 SLOAD PUSH2 0x169 SWAP1 SWAP2 MSTORE SWAP2 SWAP1 KECCAK256 SSTORE JUMPDEST PUSH1 0x0 DUP3 GT PUSH2 0x87F JUMPI PUSH1 0x40 MLOAD PUSH4 0xD11B25AF PUSH1 0xE0 SHL DUP2 MSTORE PUSH1 0x4 ADD PUSH1 0x40 MLOAD DUP1 SWAP2 SUB SWAP1 REVERT JUMPDEST CALLER PUSH1 0x0 SWAP1 DUP2 MSTORE PUSH2 0x168 PUSH1 0x20 MSTORE PUSH1 0x40 DUP2 KECCAK256 DUP1 SLOAD DUP5 SWAP3 SWAP1 PUSH2 0x89F SWAP1 DUP5 SWAP1 PUSH2 0x2045 JUMP JUMPDEST SWAP3 POP POP DUP2 SWAP1 SSTORE POP DUP2 PUSH2 0x162 PUSH1 0x0 DUP3 DUP3 SLOAD PUSH2 0x8B9 SWAP2 SWAP1 PUSH2 0x2045 JUMP JUMPDEST SWAP1 SWAP2 SSTORE POP POP PUSH2 0x160 SLOAD PUSH2 0x8D7 SWAP1 PUSH1 0x1 PUSH1 0x1 PUSH1 0xA0 SHL SUB AND ADDRESS CALLER DUP6 PUSH2 0x1326 JUMP JUMPDEST POP PUSH2 0x8E3 PUSH1 0x1 PUSH2 0x12D SSTORE JUMP JUMPDEST POP JUMP JUMPDEST PUSH1 0x0 DUP3 DUP2 MSTORE PUSH1 0xFB PUSH1 0x20 MSTORE PUSH1 0x40 SWAP1 KECCAK256 PUSH1 0x1 ADD SLOAD PUSH2 0x901 DUP2 PUSH2 0x1279 JUMP JUMPDEST PUSH2 0x90B DUP4 DUP4 PUSH2 0x139F JUMP JUMPDEST POP POP POP JUMP JUMPDEST PUSH1 0x1 PUSH1 0x1 PUSH1 0xA0 SHL SUB DUP2 AND CALLER EQ PUSH2 0x985 JUMPI PUSH1 0x40 MLOAD PUSH3 0x461BCD PUSH1 0xE5 SHL DUP2 MSTORE PUSH1 0x20 PUSH1 0x4 DUP3 ADD MSTORE PUSH1 0x2F PUSH1 0x24 DUP3 ADD MSTORE PUSH32 0x416363657373436F6E74726F6C3A2063616E206F6E6C792072656E6F756E6365 PUSH1 0x44 DUP3 ADD MSTORE PUSH15 0x103937B632B9903337B91039B2B633 PUSH1 0x89 SHL PUSH1 0x64 DUP3 ADD MSTORE PUSH1 0x84 ADD JUMPDEST PUSH1 0x40 MLOAD DUP1 SWAP2 SUB SWAP1 REVERT JUMPDEST PUSH2 0x98F DUP3 DUP3 PUSH2 0x1425 JUMP JUMPDEST POP POP JUMP JUMPDEST PUSH1 0x1 PUSH1 0x1 PUSH1 0xA0 SHL SUB PUSH32 0x0 AND ADDRESS SUB PUSH2 0x9DB JUMPI PUSH1 0x40 MLOAD PUSH3 0x461BCD PUSH1 0xE5 SHL DUP2 MSTORE PUSH1 0x4 ADD PUSH2 0x97C SWAP1 PUSH2 0x20B5 JUMP JUMPDEST PUSH32 0x0 PUSH1 0x1 PUSH1 0x1 PUSH1 0xA0 SHL SUB AND PUSH2 0xA24 PUSH1 0x0 DUP1 MLOAD PUSH1 0x20 PUSH2 0x22F1 DUP4 CODECOPY DUP2 MLOAD SWAP2 MSTORE SLOAD PUSH1 0x1 PUSH1 0x1 PUSH1 0xA0 SHL SUB AND SWAP1 JUMP JUMPDEST PUSH1 0x1 PUSH1 0x1 PUSH1 0xA0 SHL SUB AND EQ PUSH2 0xA4A JUMPI PUSH1 0x40 MLOAD PUSH3 0x461BCD PUSH1 0xE5 SHL DUP2 MSTORE PUSH1 0x4 ADD PUSH2 0x97C SWAP1 PUSH2 0x2101 JUMP JUMPDEST PUSH2 0xA53 DUP2 PUSH2 0x148C JUMP JUMPDEST PUSH1 0x40 DUP1 MLOAD PUSH1 0x0 DUP1 DUP3 MSTORE PUSH1 0x20 DUP3 ADD SWAP1 SWAP3 MSTORE PUSH2 0x8E3 SWAP2 DUP4 SWAP2 SWAP1 PUSH2 0x14A4 JUMP JUMPDEST PUSH1 0x0 DUP1 MLOAD PUSH1 0x20 PUSH2 0x2338 DUP4 CODECOPY DUP2 MLOAD SWAP2 MSTORE PUSH2 0xA87 DUP2 PUSH2 0x1279 JUMP JUMPDEST PUSH1 0x0 PUSH2 0xA91 PUSH2 0x11ED JUMP JUMPDEST PUSH2 0x167 SSTORE PUSH2 0xA9D PUSH2 0x101D JUMP JUMPDEST PUSH2 0x165 SSTORE PUSH1 0x1 PUSH1 0x1 PUSH1 0xA0 SHL SUB DUP2 AND ISZERO PUSH2 0xAE8 JUMPI PUSH2 0xAB9 DUP2 PUSH2 0x6C1 JUMP JUMPDEST PUSH1 0x1 PUSH1 0x1 PUSH1 0xA0 SHL SUB DUP3 AND PUSH1 0x0 SWAP1 DUP2 MSTORE PUSH2 0x16A PUSH1 0x20 SWAP1 DUP2 MSTORE PUSH1 0x40 DUP1 DUP4 KECCAK256 SWAP4 SWAP1 SWAP4 SSTORE PUSH2 0x167 SLOAD PUSH2 0x169 SWAP1 SWAP2 MSTORE SWAP2 SWAP1 KECCAK256 SSTORE JUMPDEST PUSH2 0x164 SLOAD TIMESTAMP GT ISZERO PUSH2 0xB0A JUMPI PUSH2 0x163 SLOAD PUSH2 0xB01 SWAP1 DUP5 PUSH2 0x207B JUMP JUMPDEST PUSH2 0x166 SSTORE PUSH2 0xB4A JUMP JUMPDEST PUSH1 0x0 TIMESTAMP PUSH2 0x164 SLOAD PUSH2 0xB1B SWAP2 SWAP1 PUSH2 0x2045 JUMP JUMPDEST PUSH2 0x166 SLOAD PUSH2 0xB29 SWAP2 SWAP1 PUSH2 0x205C JUMP JUMPDEST PUSH2 0x163 SLOAD SWAP1 SWAP2 POP PUSH2 0xB3A DUP6 DUP4 PUSH2 0x209D JUMP JUMPDEST PUSH2 0xB44 SWAP2 SWAP1 PUSH2 0x207B JUMP JUMPDEST PUSH2 0x166 SSTORE POP JUMPDEST PUSH1 0x0 PUSH2 0x166 SLOAD GT PUSH2 0xB6E JUMPI PUSH1 0x40 MLOAD PUSH4 0x7A69ED51 PUSH1 0xE1 SHL DUP2 MSTORE PUSH1 0x4 ADD PUSH1 0x40 MLOAD DUP1 SWAP2 SUB SWAP1 REVERT JUMPDEST PUSH2 0x160 SLOAD PUSH1 0x40 MLOAD PUSH4 0x70A08231 PUSH1 0xE0 SHL DUP2 MSTORE ADDRESS PUSH1 0x4 DUP3 ADD MSTORE PUSH1 0x1 PUSH1 0x1 PUSH1 0xA0 SHL SUB SWAP1 SWAP2 AND SWAP1 PUSH4 0x70A08231 SWAP1 PUSH1 0x24 ADD PUSH1 0x20 PUSH1 0x40 MLOAD DUP1 DUP4 SUB DUP2 DUP7 GAS STATICCALL ISZERO DUP1 ISZERO PUSH2 0xBB7 JUMPI RETURNDATASIZE PUSH1 0x0 DUP1 RETURNDATACOPY RETURNDATASIZE PUSH1 0x0 REVERT JUMPDEST POP POP POP POP PUSH1 0x40 MLOAD RETURNDATASIZE PUSH1 0x1F NOT PUSH1 0x1F DUP3 ADD AND DUP3 ADD DUP1 PUSH1 0x40 MSTORE POP DUP2 ADD SWAP1 PUSH2 0xBDB SWAP2 SWAP1 PUSH2 0x214D JUMP JUMPDEST PUSH2 0x163 SLOAD PUSH2 0x166 SLOAD PUSH2 0xBED SWAP2 SWAP1 PUSH2 0x205C JUMP JUMPDEST GT ISZERO PUSH2 0xC0C JUMPI PUSH1 0x40 MLOAD PUSH4 0x88B88E11 PUSH1 0xE0 SHL DUP2 MSTORE PUSH1 0x4 ADD PUSH1 0x40 MLOAD DUP1 SWAP2 SUB SWAP1 REVERT JUMPDEST PUSH2 0x163 SLOAD PUSH2 0xC1A SWAP1 TIMESTAMP PUSH2 0x209D JUMP JUMPDEST PUSH2 0x164 SSTORE POP POP TIMESTAMP PUSH2 0x165 SSTORE POP JUMP JUMPDEST CALLER PUSH2 0xC31 PUSH2 0x11ED JUMP JUMPDEST PUSH2 0x167 SSTORE PUSH2 0xC3D PUSH2 0x101D JUMP JUMPDEST PUSH2 0x165 SSTORE PUSH1 0x1 PUSH1 0x1 PUSH1 0xA0 SHL SUB DUP2 AND ISZERO PUSH2 0xC88 JUMPI PUSH2 0xC59 DUP2 PUSH2 0x6C1 JUMP JUMPDEST PUSH1 0x1 PUSH1 0x1 PUSH1 0xA0 SHL SUB DUP3 AND PUSH1 0x0 SWAP1 DUP2 MSTORE PUSH2 0x16A PUSH1 0x20 SWAP1 DUP2 MSTORE PUSH1 0x40 DUP1 DUP4 KECCAK256 SWAP4 SWAP1 SWAP4 SSTORE PUSH2 0x167 SLOAD PUSH2 0x169 SWAP1 SWAP2 MSTORE SWAP2 SWAP1 KECCAK256 SSTORE JUMPDEST CALLER PUSH1 0x0 SWAP1 DUP2 MSTORE PUSH2 0x16A PUSH1 0x20 MSTORE PUSH1 0x40 SWAP1 KECCAK256 SLOAD DUP1 ISZERO PUSH2 0xCCA JUMPI CALLER PUSH1 0x0 DUP2 DUP2 MSTORE PUSH2 0x16A PUSH1 0x20 MSTORE PUSH1 0x40 DUP2 KECCAK256 SSTORE PUSH2 0x160 SLOAD PUSH2 0xCCA SWAP2 PUSH1 0x1 PUSH1 0x1 PUSH1 0xA0 SHL SUB SWAP1 SWAP2 AND SWAP1 DUP4 PUSH2 0x160F JUMP JUMPDEST PUSH1 0x40 DUP1 MLOAD CALLER DUP2 MSTORE PUSH1 0x20 DUP2 ADD DUP4 SWAP1 MSTORE PUSH32 0x8A43C4352486EC339F487F64AF78CA5CBF06CD47833F073D3BAF3A193E503161 SWAP2 ADD PUSH1 0x40 MLOAD DUP1 SWAP2 SUB SWAP1 LOG1 POP POP JUMP JUMPDEST PUSH1 0x0 DUP1 MLOAD PUSH1 0x20 PUSH2 0x2338 DUP4 CODECOPY DUP2 MLOAD SWAP2 MSTORE PUSH2 0xD1F DUP2 PUSH2 0x1279 JUMP JUMPDEST PUSH2 0x8E3 PUSH2 0x163F JUMP JUMPDEST PUSH1 0x0 SLOAD PUSH2 0x100 SWAP1 DIV PUSH1 0xFF AND ISZERO DUP1 DUP1 ISZERO PUSH2 0xD47 JUMPI POP PUSH1 0x0 SLOAD PUSH1 0x1 PUSH1 0xFF SWAP1 SWAP2 AND LT JUMPDEST DUP1 PUSH2 0xD61 JUMPI POP ADDRESS EXTCODESIZE ISZERO DUP1 ISZERO PUSH2 0xD61 JUMPI POP PUSH1 0x0 SLOAD PUSH1 0xFF AND PUSH1 0x1 EQ JUMPDEST PUSH2 0xDC4 JUMPI PUSH1 0x40 MLOAD PUSH3 0x461BCD PUSH1 0xE5 SHL DUP2 MSTORE PUSH1 0x20 PUSH1 0x4 DUP3 ADD MSTORE PUSH1 0x2E PUSH1 0x24 DUP3 ADD MSTORE PUSH32 0x496E697469616C697A61626C653A20636F6E747261637420697320616C726561 PUSH1 0x44 DUP3 ADD MSTORE PUSH14 0x191E481A5B9A5D1A585B1A5E9959 PUSH1 0x92 SHL PUSH1 0x64 DUP3 ADD MSTORE PUSH1 0x84 ADD PUSH2 0x97C JUMP JUMPDEST PUSH1 0x0 DUP1 SLOAD PUSH1 0xFF NOT AND PUSH1 0x1 OR SWAP1 SSTORE DUP1 ISZERO PUSH2 0xDE7 JUMPI PUSH1 0x0 DUP1 SLOAD PUSH2 0xFF00 NOT AND PUSH2 0x100 OR SWAP1 SSTORE JUMPDEST PUSH2 0xDEF PUSH2 0x1691 JUMP JUMPDEST PUSH2 0xDF7 PUSH2 0x16B8 JUMP JUMPDEST PUSH2 0xDFF PUSH2 0x16E7 JUMP JUMPDEST PUSH2 0xE0A PUSH1 0x0 CALLER PUSH2 0x139F JUMP JUMPDEST PUSH2 0xE22 PUSH1 0x0 DUP1 MLOAD PUSH1 0x20 PUSH2 0x2338 DUP4 CODECOPY DUP2 MLOAD SWAP2 MSTORE CALLER PUSH2 0x139F JUMP JUMPDEST PUSH2 0x15F DUP1 SLOAD PUSH1 0x1 PUSH1 0x1 PUSH1 0xA0 SHL SUB DUP1 DUP7 AND PUSH1 0x1 PUSH1 0x1 PUSH1 0xA0 SHL SUB NOT SWAP3 DUP4 AND OR SWAP1 SWAP3 SSTORE PUSH2 0x160 DUP1 SLOAD SWAP3 DUP6 AND SWAP3 SWAP1 SWAP2 AND SWAP2 SWAP1 SWAP2 OR SWAP1 SSTORE DUP1 ISZERO PUSH2 0x90B JUMPI PUSH1 0x0 DUP1 SLOAD PUSH2 0xFF00 NOT AND SWAP1 SSTORE PUSH1 0x40 MLOAD PUSH1 0x1 DUP2 MSTORE PUSH32 0x7F26B83FF96E1F2B6A682F133852F6798A09C465DA95921460CEFB3847402498 SWAP1 PUSH1 0x20 ADD PUSH1 0x40 MLOAD DUP1 SWAP2 SUB SWAP1 LOG1 POP POP POP JUMP JUMPDEST PUSH1 0x1 PUSH1 0x1 PUSH1 0xA0 SHL SUB PUSH32 0x0 AND ADDRESS SUB PUSH2 0xEE6 JUMPI PUSH1 0x40 MLOAD PUSH3 0x461BCD PUSH1 0xE5 SHL DUP2 MSTORE PUSH1 0x4 ADD PUSH2 0x97C SWAP1 PUSH2 0x20B5 JUMP JUMPDEST PUSH32 0x0 PUSH1 0x1 PUSH1 0x1 PUSH1 0xA0 SHL SUB AND PUSH2 0xF2F PUSH1 0x0 DUP1 MLOAD PUSH1 0x20 PUSH2 0x22F1 DUP4 CODECOPY DUP2 MLOAD SWAP2 MSTORE SLOAD PUSH1 0x1 PUSH1 0x1 PUSH1 0xA0 SHL SUB AND SWAP1 JUMP JUMPDEST PUSH1 0x1 PUSH1 0x1 PUSH1 0xA0 SHL SUB AND EQ PUSH2 0xF55 JUMPI PUSH1 0x40 MLOAD PUSH3 0x461BCD PUSH1 0xE5 SHL DUP2 MSTORE PUSH1 0x4 ADD PUSH2 0x97C SWAP1 PUSH2 0x2101 JUMP JUMPDEST PUSH2 0xF5E DUP3 PUSH2 0x148C JUMP JUMPDEST PUSH2 0x98F DUP3 DUP3 PUSH1 0x1 PUSH2 0x14A4 JUMP JUMPDEST PUSH1 0x0 ADDRESS PUSH1 0x1 PUSH1 0x1 PUSH1 0xA0 SHL SUB PUSH32 0x0 AND EQ PUSH2 0x100A JUMPI PUSH1 0x40 MLOAD PUSH3 0x461BCD PUSH1 0xE5 SHL DUP2 MSTORE PUSH1 0x20 PUSH1 0x4 DUP3 ADD MSTORE PUSH1 0x38 PUSH1 0x24 DUP3 ADD MSTORE PUSH32 0x555550535570677261646561626C653A206D757374206E6F742062652063616C PUSH1 0x44 DUP3 ADD MSTORE PUSH32 0x6C6564207468726F7567682064656C656761746563616C6C0000000000000000 PUSH1 0x64 DUP3 ADD MSTORE PUSH1 0x84 ADD PUSH2 0x97C JUMP JUMPDEST POP PUSH1 0x0 DUP1 MLOAD PUSH1 0x20 PUSH2 0x22F1 DUP4 CODECOPY DUP2 MLOAD SWAP2 MSTORE SWAP1 JUMP JUMPDEST PUSH1 0x0 PUSH2 0x102C TIMESTAMP PUSH2 0x164 SLOAD PUSH2 0x1716 JUMP JUMPDEST SWAP1 POP SWAP1 JUMP JUMPDEST PUSH1 0x0 DUP1 MLOAD PUSH1 0x20 PUSH2 0x2338 DUP4 CODECOPY DUP2 MLOAD SWAP2 MSTORE PUSH2 0x1049 DUP2 PUSH2 0x1279 JUMP JUMPDEST PUSH2 0x8E3 PUSH2 0x172F JUMP JUMPDEST PUSH1 0x0 SWAP2 DUP3 MSTORE PUSH1 0xFB PUSH1 0x20 SWAP1 DUP2 MSTORE PUSH1 0x40 DUP1 DUP5 KECCAK256 PUSH1 0x1 PUSH1 0x1 PUSH1 0xA0 SHL SUB SWAP4 SWAP1 SWAP4 AND DUP5 MSTORE SWAP2 SWAP1 MSTORE SWAP1 KECCAK256 SLOAD PUSH1 0xFF AND SWAP1 JUMP JUMPDEST PUSH2 0x1084 PUSH2 0x1283 JUMP JUMPDEST PUSH2 0x108C PUSH2 0x12CB JUMP JUMPDEST CALLER PUSH2 0x1095 PUSH2 0x11ED JUMP JUMPDEST PUSH2 0x167 SSTORE PUSH2 0x10A1 PUSH2 0x101D JUMP JUMPDEST PUSH2 0x165 SSTORE PUSH1 0x1 PUSH1 0x1 PUSH1 0xA0 SHL SUB DUP2 AND ISZERO PUSH2 0x10EC JUMPI PUSH2 0x10BD DUP2 PUSH2 0x6C1 JUMP JUMPDEST PUSH1 0x1 PUSH1 0x1 PUSH1 0xA0 SHL SUB DUP3 AND PUSH1 0x0 SWAP1 DUP2 MSTORE PUSH2 0x16A PUSH1 0x20 SWAP1 DUP2 MSTORE PUSH1 0x40 DUP1 DUP4 KECCAK256 SWAP4 SWAP1 SWAP4 SSTORE PUSH2 0x167 SLOAD PUSH2 0x169 SWAP1 SWAP2 MSTORE SWAP2 SWAP1 KECCAK256 SSTORE JUMPDEST PUSH1 0x0 DUP3 GT PUSH2 0x110D JUMPI PUSH1 0x40 MLOAD PUSH4 0xD11B25AF PUSH1 0xE0 SHL DUP2 MSTORE PUSH1 0x4 ADD PUSH1 0x40 MLOAD DUP1 SWAP2 SUB SWAP1 REVERT JUMPDEST PUSH2 0x15F SLOAD PUSH2 0x1126 SWAP1 PUSH1 0x1 PUSH1 0x1 PUSH1 0xA0 SHL SUB AND CALLER ADDRESS DUP6 PUSH2 0x1326 JUMP JUMPDEST CALLER PUSH1 0x0 SWAP1 DUP2 MSTORE PUSH2 0x168 PUSH1 0x20 MSTORE PUSH1 0x40 DUP2 KECCAK256 DUP1 SLOAD DUP5 SWAP3 SWAP1 PUSH2 0x1146 SWAP1 DUP5 SWAP1 PUSH2 0x209D JUMP JUMPDEST SWAP3 POP POP DUP2 SWAP1 SSTORE POP DUP2 PUSH2 0x162 PUSH1 0x0 DUP3 DUP3 SLOAD PUSH2 0x1160 SWAP2 SWAP1 PUSH2 0x209D JUMP JUMPDEST SWAP1 SWAP2 SSTORE POP POP PUSH1 0x40 DUP1 MLOAD CALLER DUP2 MSTORE PUSH1 0x20 DUP2 ADD DUP5 SWAP1 MSTORE PUSH32 0x9E71BC8EEA02A63969F509818F2DAFB9254532904319F9DBDA79B67BD34A5F3D SWAP2 ADD PUSH1 0x40 MLOAD DUP1 SWAP2 SUB SWAP1 LOG1 POP PUSH2 0x8E3 PUSH1 0x1 PUSH2 0x12D SSTORE JUMP JUMPDEST PUSH1 0x0 DUP1 MLOAD PUSH1 0x20 PUSH2 0x2338 DUP4 CODECOPY DUP2 MLOAD SWAP2 MSTORE PUSH2 0x11C2 DUP2 PUSH2 0x1279 JUMP JUMPDEST TIMESTAMP PUSH2 0x164 SLOAD GT ISZERO PUSH2 0x11E6 JUMPI PUSH1 0x40 MLOAD PUSH4 0x715F3843 PUSH1 0xE1 SHL DUP2 MSTORE PUSH1 0x4 ADD PUSH1 0x40 MLOAD DUP1 SWAP2 SUB SWAP1 REVERT JUMPDEST POP PUSH2 0x163 SSTORE JUMP JUMPDEST PUSH1 0x0 PUSH2 0x162 SLOAD PUSH1 0x0 SUB PUSH2 0x1202 JUMPI POP PUSH2 0x167 SLOAD SWAP1 JUMP JUMPDEST PUSH2 0x162 SLOAD PUSH2 0x165 SLOAD PUSH2 0x1212 PUSH2 0x101D JUMP JUMPDEST PUSH2 0x121C SWAP2 SWAP1 PUSH2 0x2045 JUMP JUMPDEST PUSH2 0x166 SLOAD PUSH2 0x122A SWAP2 SWAP1 PUSH2 0x205C JUMP JUMPDEST PUSH2 0x123C SWAP1 PUSH8 0xDE0B6B3A7640000 PUSH2 0x205C JUMP JUMPDEST PUSH2 0x1246 SWAP2 SWAP1 PUSH2 0x207B JUMP JUMPDEST PUSH2 0x167 SLOAD PUSH2 0x102C SWAP2 SWAP1 PUSH2 0x209D JUMP JUMPDEST PUSH1 0x0 DUP3 DUP2 MSTORE PUSH1 0xFB PUSH1 0x20 MSTORE PUSH1 0x40 SWAP1 KECCAK256 PUSH1 0x1 ADD SLOAD PUSH2 0x126F DUP2 PUSH2 0x1279 JUMP JUMPDEST PUSH2 0x90B DUP4 DUP4 PUSH2 0x1425 JUMP JUMPDEST PUSH2 0x8E3 DUP2 CALLER PUSH2 0x176C JUMP JUMPDEST PUSH1 0x97 SLOAD PUSH1 0xFF AND ISZERO PUSH2 0x12C9 JUMPI PUSH1 0x40 MLOAD PUSH3 0x461BCD PUSH1 0xE5 SHL DUP2 MSTORE PUSH1 0x20 PUSH1 0x4 DUP3 ADD MSTORE PUSH1 0x10 PUSH1 0x24 DUP3 ADD MSTORE PUSH16 0x14185D5CD8589B194E881C185D5CD959 PUSH1 0x82 SHL PUSH1 0x44 DUP3 ADD MSTORE PUSH1 0x64 ADD PUSH2 0x97C JUMP JUMPDEST JUMP JUMPDEST PUSH1 0x2 PUSH2 0x12D SLOAD SUB PUSH2 0x131E JUMPI PUSH1 0x40 MLOAD PUSH3 0x461BCD PUSH1 0xE5 SHL DUP2 MSTORE PUSH1 0x20 PUSH1 0x4 DUP3 ADD MSTORE PUSH1 0x1F PUSH1 0x24 DUP3 ADD MSTORE PUSH32 0x5265656E7472616E637947756172643A207265656E7472616E742063616C6C00 PUSH1 0x44 DUP3 ADD MSTORE PUSH1 0x64 ADD PUSH2 0x97C JUMP JUMPDEST PUSH1 0x2 PUSH2 0x12D SSTORE JUMP JUMPDEST PUSH1 0x40 MLOAD PUSH1 0x1 PUSH1 0x1 PUSH1 0xA0 SHL SUB DUP1 DUP6 AND PUSH1 0x24 DUP4 ADD MSTORE DUP4 AND PUSH1 0x44 DUP3 ADD MSTORE PUSH1 0x64 DUP2 ADD DUP3 SWAP1 MSTORE PUSH2 0x1391 SWAP1 DUP6 SWAP1 PUSH4 0x23B872DD PUSH1 0xE0 SHL SWAP1 PUSH1 0x84 ADD JUMPDEST PUSH1 0x40 DUP1 MLOAD PUSH1 0x1F NOT DUP2 DUP5 SUB ADD DUP2 MSTORE SWAP2 SWAP1 MSTORE PUSH1 0x20 DUP2 ADD DUP1 MLOAD PUSH1 0x1 PUSH1 0x1 PUSH1 0xE0 SHL SUB AND PUSH1 0x1 PUSH1 0x1 PUSH1 0xE0 SHL SUB NOT SWAP1 SWAP4 AND SWAP3 SWAP1 SWAP3 OR SWAP1 SWAP2 MSTORE PUSH2 0x17C5 JUMP JUMPDEST POP POP POP POP JUMP JUMPDEST PUSH1 0x1 PUSH2 0x12D SSTORE JUMP JUMPDEST PUSH2 0x13A9 DUP3 DUP3 PUSH2 0x1051 JUMP JUMPDEST PUSH2 0x98F JUMPI PUSH1 0x0 DUP3 DUP2 MSTORE PUSH1 0xFB PUSH1 0x20 SWAP1 DUP2 MSTORE PUSH1 0x40 DUP1 DUP4 KECCAK256 PUSH1 0x1 PUSH1 0x1 PUSH1 0xA0 SHL SUB DUP6 AND DUP5 MSTORE SWAP1 SWAP2 MSTORE SWAP1 KECCAK256 DUP1 SLOAD PUSH1 0xFF NOT AND PUSH1 0x1 OR SWAP1 SSTORE PUSH2 0x13E1 CALLER SWAP1 JUMP JUMPDEST PUSH1 0x1 PUSH1 0x1 PUSH1 0xA0 SHL SUB AND DUP2 PUSH1 0x1 PUSH1 0x1 PUSH1 0xA0 SHL SUB AND DUP4 PUSH32 0x2F8788117E7EFF1D82E926EC794901D17C78024A50270940304540A733656F0D PUSH1 0x40 MLOAD PUSH1 0x40 MLOAD DUP1 SWAP2 SUB SWAP1 LOG4 POP POP JUMP JUMPDEST PUSH2 0x142F DUP3 DUP3 PUSH2 0x1051 JUMP JUMPDEST ISZERO PUSH2 0x98F JUMPI PUSH1 0x0 DUP3 DUP2 MSTORE PUSH1 0xFB PUSH1 0x20 SWAP1 DUP2 MSTORE PUSH1 0x40 DUP1 DUP4 KECCAK256 PUSH1 0x1 PUSH1 0x1 PUSH1 0xA0 SHL SUB DUP6 AND DUP1 DUP6 MSTORE SWAP3 MSTORE DUP1 DUP4 KECCAK256 DUP1 SLOAD PUSH1 0xFF NOT AND SWAP1 SSTORE MLOAD CALLER SWAP3 DUP6 SWAP2 PUSH32 0xF6391F5C32D9C69D2A47EA670B442974B53935D1EDC7FD64EB21E047A839171B SWAP2 SWAP1 LOG4 POP POP JUMP JUMPDEST PUSH1 0x0 DUP1 MLOAD PUSH1 0x20 PUSH2 0x2338 DUP4 CODECOPY DUP2 MLOAD SWAP2 MSTORE PUSH2 0x98F DUP2 PUSH2 0x1279 JUMP JUMPDEST PUSH32 0x4910FDFA16FED3260ED0E7147F7CC6DA11A60208B5B9406D12A635614FFD9143 SLOAD PUSH1 0xFF AND ISZERO PUSH2 0x14D7 JUMPI PUSH2 0x90B DUP4 PUSH2 0x1897 JUMP JUMPDEST DUP3 PUSH1 0x1 PUSH1 0x1 PUSH1 0xA0 SHL SUB AND PUSH4 0x52D1902D PUSH1 0x40 MLOAD DUP2 PUSH4 0xFFFFFFFF AND PUSH1 0xE0 SHL DUP2 MSTORE PUSH1 0x4 ADD PUSH1 0x20 PUSH1 0x40 MLOAD DUP1 DUP4 SUB DUP2 DUP7 GAS STATICCALL SWAP3 POP POP POP DUP1 ISZERO PUSH2 0x1531 JUMPI POP PUSH1 0x40 DUP1 MLOAD PUSH1 0x1F RETURNDATASIZE SWAP1 DUP2 ADD PUSH1 0x1F NOT AND DUP3 ADD SWAP1 SWAP3 MSTORE PUSH2 0x152E SWAP2 DUP2 ADD SWAP1 PUSH2 0x214D JUMP JUMPDEST PUSH1 0x1 JUMPDEST PUSH2 0x1594 JUMPI PUSH1 0x40 MLOAD PUSH3 0x461BCD PUSH1 0xE5 SHL DUP2 MSTORE PUSH1 0x20 PUSH1 0x4 DUP3 ADD MSTORE PUSH1 0x2E PUSH1 0x24 DUP3 ADD MSTORE PUSH32 0x45524331393637557067726164653A206E657720696D706C656D656E74617469 PUSH1 0x44 DUP3 ADD MSTORE PUSH14 0x6F6E206973206E6F742055555053 PUSH1 0x90 SHL PUSH1 0x64 DUP3 ADD MSTORE PUSH1 0x84 ADD PUSH2 0x97C JUMP JUMPDEST PUSH1 0x0 DUP1 MLOAD PUSH1 0x20 PUSH2 0x22F1 DUP4 CODECOPY DUP2 MLOAD SWAP2 MSTORE DUP2 EQ PUSH2 0x1603 JUMPI PUSH1 0x40 MLOAD PUSH3 0x461BCD PUSH1 0xE5 SHL DUP2 MSTORE PUSH1 0x20 PUSH1 0x4 DUP3 ADD MSTORE PUSH1 0x29 PUSH1 0x24 DUP3 ADD MSTORE PUSH32 0x45524331393637557067726164653A20756E737570706F727465642070726F78 PUSH1 0x44 DUP3 ADD MSTORE PUSH9 0x1A58589B1955555251 PUSH1 0xBA SHL PUSH1 0x64 DUP3 ADD MSTORE PUSH1 0x84 ADD PUSH2 0x97C JUMP JUMPDEST POP PUSH2 0x90B DUP4 DUP4 DUP4 PUSH2 0x1933 JUMP JUMPDEST PUSH1 0x40 MLOAD PUSH1 0x1 PUSH1 0x1 PUSH1 0xA0 SHL SUB DUP4 AND PUSH1 0x24 DUP3 ADD MSTORE PUSH1 0x44 DUP2 ADD DUP3 SWAP1 MSTORE PUSH2 0x90B SWAP1 DUP5 SWAP1 PUSH4 0xA9059CBB PUSH1 0xE0 SHL SWAP1 PUSH1 0x64 ADD PUSH2 0x135A JUMP JUMPDEST PUSH2 0x1647 PUSH2 0x1958 JUMP JUMPDEST PUSH1 0x97 DUP1 SLOAD PUSH1 0xFF NOT AND SWAP1 SSTORE PUSH32 0x5DB9EE0A495BF2E6FF9C91A7834C1BA4FDD244A5E8AA4E537BD38AEAE4B073AA CALLER JUMPDEST PUSH1 0x40 MLOAD PUSH1 0x1 PUSH1 0x1 PUSH1 0xA0 SHL SUB SWAP1 SWAP2 AND DUP2 MSTORE PUSH1 0x20 ADD PUSH1 0x40 MLOAD DUP1 SWAP2 SUB SWAP1 LOG1 JUMP JUMPDEST PUSH1 0x0 SLOAD PUSH2 0x100 SWAP1 DIV PUSH1 0xFF AND PUSH2 0x12C9 JUMPI PUSH1 0x40 MLOAD PUSH3 0x461BCD PUSH1 0xE5 SHL DUP2 MSTORE PUSH1 0x4 ADD PUSH2 0x97C SWAP1 PUSH2 0x2166 JUMP JUMPDEST PUSH1 0x0 SLOAD PUSH2 0x100 SWAP1 DIV PUSH1 0xFF AND PUSH2 0x16DF JUMPI PUSH1 0x40 MLOAD PUSH3 0x461BCD PUSH1 0xE5 SHL DUP2 MSTORE PUSH1 0x4 ADD PUSH2 0x97C SWAP1 PUSH2 0x2166 JUMP JUMPDEST PUSH2 0x12C9 PUSH2 0x19A1 JUMP JUMPDEST PUSH1 0x0 SLOAD PUSH2 0x100 SWAP1 DIV PUSH1 0xFF AND PUSH2 0x170E JUMPI PUSH1 0x40 MLOAD PUSH3 0x461BCD PUSH1 0xE5 SHL DUP2 MSTORE PUSH1 0x4 ADD PUSH2 0x97C SWAP1 PUSH2 0x2166 JUMP JUMPDEST PUSH2 0x12C9 PUSH2 0x19C8 JUMP JUMPDEST PUSH1 0x0 DUP2 DUP4 GT ISZERO PUSH2 0x1726 JUMPI DUP2 PUSH2 0x1728 JUMP JUMPDEST DUP3 JUMPDEST SWAP4 SWAP3 POP POP POP JUMP JUMPDEST PUSH2 0x1737 PUSH2 0x1283 JUMP JUMPDEST PUSH1 0x97 DUP1 SLOAD PUSH1 0xFF NOT AND PUSH1 0x1 OR SWAP1 SSTORE PUSH32 0x62E78CEA01BEE320CD4E420270B5EA74000D11B0C9F74754EBDBFC544B05A258 PUSH2 0x1674 CALLER SWAP1 JUMP JUMPDEST PUSH2 0x1776 DUP3 DUP3 PUSH2 0x1051 JUMP JUMPDEST PUSH2 0x98F JUMPI PUSH2 0x1783 DUP2 PUSH2 0x19FB JUMP JUMPDEST PUSH2 0x178E DUP4 PUSH1 0x20 PUSH2 0x1A0D JUMP JUMPDEST PUSH1 0x40 MLOAD PUSH1 0x20 ADD PUSH2 0x179F SWAP3 SWAP2 SWAP1 PUSH2 0x21DD JUMP JUMPDEST PUSH1 0x40 DUP1 MLOAD PUSH1 0x1F NOT DUP2 DUP5 SUB ADD DUP2 MSTORE SWAP1 DUP3 SWAP1 MSTORE PUSH3 0x461BCD PUSH1 0xE5 SHL DUP3 MSTORE PUSH2 0x97C SWAP2 PUSH1 0x4 ADD PUSH2 0x2252 JUMP JUMPDEST PUSH1 0x0 PUSH2 0x181A DUP3 PUSH1 0x40 MLOAD DUP1 PUSH1 0x40 ADD PUSH1 0x40 MSTORE DUP1 PUSH1 0x20 DUP2 MSTORE PUSH1 0x20 ADD PUSH32 0x5361666545524332303A206C6F772D6C6576656C2063616C6C206661696C6564 DUP2 MSTORE POP DUP6 PUSH1 0x1 PUSH1 0x1 PUSH1 0xA0 SHL SUB AND PUSH2 0x1BA9 SWAP1 SWAP3 SWAP2 SWAP1 PUSH4 0xFFFFFFFF AND JUMP JUMPDEST DUP1 MLOAD SWAP1 SWAP2 POP ISZERO PUSH2 0x90B JUMPI DUP1 DUP1 PUSH1 0x20 ADD SWAP1 MLOAD DUP2 ADD SWAP1 PUSH2 0x1838 SWAP2 SWAP1 PUSH2 0x2285 JUMP JUMPDEST PUSH2 0x90B JUMPI PUSH1 0x40 MLOAD PUSH3 0x461BCD PUSH1 0xE5 SHL DUP2 MSTORE PUSH1 0x20 PUSH1 0x4 DUP3 ADD MSTORE PUSH1 0x2A PUSH1 0x24 DUP3 ADD MSTORE PUSH32 0x5361666545524332303A204552433230206F7065726174696F6E20646964206E PUSH1 0x44 DUP3 ADD MSTORE PUSH10 0x1BDD081CDD58D8D95959 PUSH1 0xB2 SHL PUSH1 0x64 DUP3 ADD MSTORE PUSH1 0x84 ADD PUSH2 0x97C JUMP JUMPDEST PUSH1 0x1 PUSH1 0x1 PUSH1 0xA0 SHL SUB DUP2 AND EXTCODESIZE PUSH2 0x1904 JUMPI PUSH1 0x40 MLOAD PUSH3 0x461BCD PUSH1 0xE5 SHL DUP2 MSTORE PUSH1 0x20 PUSH1 0x4 DUP3 ADD MSTORE PUSH1 0x2D PUSH1 0x24 DUP3 ADD MSTORE PUSH32 0x455243313936373A206E657720696D706C656D656E746174696F6E206973206E PUSH1 0x44 DUP3 ADD MSTORE PUSH13 0x1BDD08184818DBDB9D1C9858DD PUSH1 0x9A SHL PUSH1 0x64 DUP3 ADD MSTORE PUSH1 0x84 ADD PUSH2 0x97C JUMP JUMPDEST PUSH1 0x0 DUP1 MLOAD PUSH1 0x20 PUSH2 0x22F1 DUP4 CODECOPY DUP2 MLOAD SWAP2 MSTORE DUP1 SLOAD PUSH1 0x1 PUSH1 0x1 PUSH1 0xA0 SHL SUB NOT AND PUSH1 0x1 PUSH1 0x1 PUSH1 0xA0 SHL SUB SWAP3 SWAP1 SWAP3 AND SWAP2 SWAP1 SWAP2 OR SWAP1 SSTORE JUMP JUMPDEST PUSH2 0x193C DUP4 PUSH2 0x1BC0 JUMP JUMPDEST PUSH1 0x0 DUP3 MLOAD GT DUP1 PUSH2 0x1949 JUMPI POP DUP1 JUMPDEST ISZERO PUSH2 0x90B JUMPI PUSH2 0x1391 DUP4 DUP4 PUSH2 0x1C00 JUMP JUMPDEST PUSH1 0x97 SLOAD PUSH1 0xFF AND PUSH2 0x12C9 JUMPI PUSH1 0x40 MLOAD PUSH3 0x461BCD PUSH1 0xE5 SHL DUP2 MSTORE PUSH1 0x20 PUSH1 0x4 DUP3 ADD MSTORE PUSH1 0x14 PUSH1 0x24 DUP3 ADD MSTORE PUSH20 0x14185D5CD8589B194E881B9BDD081C185D5CD959 PUSH1 0x62 SHL PUSH1 0x44 DUP3 ADD MSTORE PUSH1 0x64 ADD PUSH2 0x97C JUMP JUMPDEST PUSH1 0x0 SLOAD PUSH2 0x100 SWAP1 DIV PUSH1 0xFF AND PUSH2 0x1397 JUMPI PUSH1 0x40 MLOAD PUSH3 0x461BCD PUSH1 0xE5 SHL DUP2 MSTORE PUSH1 0x4 ADD PUSH2 0x97C SWAP1 PUSH2 0x2166 JUMP JUMPDEST PUSH1 0x0 SLOAD PUSH2 0x100 SWAP1 DIV PUSH1 0xFF AND PUSH2 0x19EF JUMPI PUSH1 0x40 MLOAD PUSH3 0x461BCD PUSH1 0xE5 SHL DUP2 MSTORE PUSH1 0x4 ADD PUSH2 0x97C SWAP1 PUSH2 0x2166 JUMP JUMPDEST PUSH1 0x97 DUP1 SLOAD PUSH1 0xFF NOT AND SWAP1 SSTORE JUMP JUMPDEST PUSH1 0x60 PUSH2 0x73B PUSH1 0x1 PUSH1 0x1 PUSH1 0xA0 SHL SUB DUP4 AND PUSH1 0x14 JUMPDEST PUSH1 0x60 PUSH1 0x0 PUSH2 0x1A1C DUP4 PUSH1 0x2 PUSH2 0x205C JUMP JUMPDEST PUSH2 0x1A27 SWAP1 PUSH1 0x2 PUSH2 0x209D JUMP JUMPDEST PUSH8 0xFFFFFFFFFFFFFFFF DUP2 GT ISZERO PUSH2 0x1A3F JUMPI PUSH2 0x1A3F PUSH2 0x1F57 JUMP JUMPDEST PUSH1 0x40 MLOAD SWAP1 DUP1 DUP3 MSTORE DUP1 PUSH1 0x1F ADD PUSH1 0x1F NOT AND PUSH1 0x20 ADD DUP3 ADD PUSH1 0x40 MSTORE DUP1 ISZERO PUSH2 0x1A69 JUMPI PUSH1 0x20 DUP3 ADD DUP2 DUP1 CALLDATASIZE DUP4 CALLDATACOPY ADD SWAP1 POP JUMPDEST POP SWAP1 POP PUSH1 0x3 PUSH1 0xFC SHL DUP2 PUSH1 0x0 DUP2 MLOAD DUP2 LT PUSH2 0x1A84 JUMPI PUSH2 0x1A84 PUSH2 0x22A7 JUMP JUMPDEST PUSH1 0x20 ADD ADD SWAP1 PUSH1 0x1 PUSH1 0x1 PUSH1 0xF8 SHL SUB NOT AND SWAP1 DUP2 PUSH1 0x0 BYTE SWAP1 MSTORE8 POP PUSH1 0xF PUSH1 0xFB SHL DUP2 PUSH1 0x1 DUP2 MLOAD DUP2 LT PUSH2 0x1AB3 JUMPI PUSH2 0x1AB3 PUSH2 0x22A7 JUMP JUMPDEST PUSH1 0x20 ADD ADD SWAP1 PUSH1 0x1 PUSH1 0x1 PUSH1 0xF8 SHL SUB NOT AND SWAP1 DUP2 PUSH1 0x0 BYTE SWAP1 MSTORE8 POP PUSH1 0x0 PUSH2 0x1AD7 DUP5 PUSH1 0x2 PUSH2 0x205C JUMP JUMPDEST PUSH2 0x1AE2 SWAP1 PUSH1 0x1 PUSH2 0x209D JUMP JUMPDEST SWAP1 POP JUMPDEST PUSH1 0x1 DUP2 GT ISZERO PUSH2 0x1B5A JUMPI PUSH16 0x181899199A1A9B1B9C1CB0B131B232B3 PUSH1 0x81 SHL DUP6 PUSH1 0xF AND PUSH1 0x10 DUP2 LT PUSH2 0x1B16 JUMPI PUSH2 0x1B16 PUSH2 0x22A7 JUMP JUMPDEST BYTE PUSH1 0xF8 SHL DUP3 DUP3 DUP2 MLOAD DUP2 LT PUSH2 0x1B2C JUMPI PUSH2 0x1B2C PUSH2 0x22A7 JUMP JUMPDEST PUSH1 0x20 ADD ADD SWAP1 PUSH1 0x1 PUSH1 0x1 PUSH1 0xF8 SHL SUB NOT AND SWAP1 DUP2 PUSH1 0x0 BYTE SWAP1 MSTORE8 POP PUSH1 0x4 SWAP5 SWAP1 SWAP5 SHR SWAP4 PUSH2 0x1B53 DUP2 PUSH2 0x22BD JUMP JUMPDEST SWAP1 POP PUSH2 0x1AE5 JUMP JUMPDEST POP DUP4 ISZERO PUSH2 0x1728 JUMPI PUSH1 0x40 MLOAD PUSH3 0x461BCD PUSH1 0xE5 SHL DUP2 MSTORE PUSH1 0x20 PUSH1 0x4 DUP3 ADD DUP2 SWAP1 MSTORE PUSH1 0x24 DUP3 ADD MSTORE PUSH32 0x537472696E67733A20686578206C656E67746820696E73756666696369656E74 PUSH1 0x44 DUP3 ADD MSTORE PUSH1 0x64 ADD PUSH2 0x97C JUMP JUMPDEST PUSH1 0x60 PUSH2 0x1BB8 DUP5 DUP5 PUSH1 0x0 DUP6 PUSH2 0x1CF4 JUMP JUMPDEST SWAP5 SWAP4 POP POP POP POP JUMP JUMPDEST PUSH2 0x1BC9 DUP2 PUSH2 0x1897 JUMP JUMPDEST PUSH1 0x40 MLOAD PUSH1 0x1 PUSH1 0x1 PUSH1 0xA0 SHL SUB DUP3 AND SWAP1 PUSH32 0xBC7CD75A20EE27FD9ADEBAB32041F755214DBC6BFFA90CC0225B39DA2E5C2D3B SWAP1 PUSH1 0x0 SWAP1 LOG2 POP JUMP JUMPDEST PUSH1 0x60 PUSH1 0x1 PUSH1 0x1 PUSH1 0xA0 SHL SUB DUP4 AND EXTCODESIZE PUSH2 0x1C68 JUMPI PUSH1 0x40 MLOAD PUSH3 0x461BCD PUSH1 0xE5 SHL DUP2 MSTORE PUSH1 0x20 PUSH1 0x4 DUP3 ADD MSTORE PUSH1 0x26 PUSH1 0x24 DUP3 ADD MSTORE PUSH32 0x416464726573733A2064656C65676174652063616C6C20746F206E6F6E2D636F PUSH1 0x44 DUP3 ADD MSTORE PUSH6 0x1B9D1C9858DD PUSH1 0xD2 SHL PUSH1 0x64 DUP3 ADD MSTORE PUSH1 0x84 ADD PUSH2 0x97C JUMP JUMPDEST PUSH1 0x0 DUP1 DUP5 PUSH1 0x1 PUSH1 0x1 PUSH1 0xA0 SHL SUB AND DUP5 PUSH1 0x40 MLOAD PUSH2 0x1C83 SWAP2 SWAP1 PUSH2 0x22D4 JUMP JUMPDEST PUSH1 0x0 PUSH1 0x40 MLOAD DUP1 DUP4 SUB DUP2 DUP6 GAS DELEGATECALL SWAP2 POP POP RETURNDATASIZE DUP1 PUSH1 0x0 DUP2 EQ PUSH2 0x1CBE JUMPI PUSH1 0x40 MLOAD SWAP2 POP PUSH1 0x1F NOT PUSH1 0x3F RETURNDATASIZE ADD AND DUP3 ADD PUSH1 0x40 MSTORE RETURNDATASIZE DUP3 MSTORE RETURNDATASIZE PUSH1 0x0 PUSH1 0x20 DUP5 ADD RETURNDATACOPY PUSH2 0x1CC3 JUMP JUMPDEST PUSH1 0x60 SWAP2 POP JUMPDEST POP SWAP2 POP SWAP2 POP PUSH2 0x1CEB DUP3 DUP3 PUSH1 0x40 MLOAD DUP1 PUSH1 0x60 ADD PUSH1 0x40 MSTORE DUP1 PUSH1 0x27 DUP2 MSTORE PUSH1 0x20 ADD PUSH2 0x2311 PUSH1 0x27 SWAP2 CODECOPY PUSH2 0x1DCF JUMP JUMPDEST SWAP6 SWAP5 POP POP POP POP POP JUMP JUMPDEST PUSH1 0x60 DUP3 SELFBALANCE LT ISZERO PUSH2 0x1D55 JUMPI PUSH1 0x40 MLOAD PUSH3 0x461BCD PUSH1 0xE5 SHL DUP2 MSTORE PUSH1 0x20 PUSH1 0x4 DUP3 ADD MSTORE PUSH1 0x26 PUSH1 0x24 DUP3 ADD MSTORE PUSH32 0x416464726573733A20696E73756666696369656E742062616C616E636520666F PUSH1 0x44 DUP3 ADD MSTORE PUSH6 0x1C8818D85B1B PUSH1 0xD2 SHL PUSH1 0x64 DUP3 ADD MSTORE PUSH1 0x84 ADD PUSH2 0x97C JUMP JUMPDEST PUSH1 0x0 DUP1 DUP7 PUSH1 0x1 PUSH1 0x1 PUSH1 0xA0 SHL SUB AND DUP6 DUP8 PUSH1 0x40 MLOAD PUSH2 0x1D71 SWAP2 SWAP1 PUSH2 0x22D4 JUMP JUMPDEST PUSH1 0x0 PUSH1 0x40 MLOAD DUP1 DUP4 SUB DUP2 DUP6 DUP8 GAS CALL SWAP3 POP POP POP RETURNDATASIZE DUP1 PUSH1 0x0 DUP2 EQ PUSH2 0x1DAE JUMPI PUSH1 0x40 MLOAD SWAP2 POP PUSH1 0x1F NOT PUSH1 0x3F RETURNDATASIZE ADD AND DUP3 ADD PUSH1 0x40 MSTORE RETURNDATASIZE DUP3 MSTORE RETURNDATASIZE PUSH1 0x0 PUSH1 0x20 DUP5 ADD RETURNDATACOPY PUSH2 0x1DB3 JUMP JUMPDEST PUSH1 0x60 SWAP2 POP JUMPDEST POP SWAP2 POP SWAP2 POP PUSH2 0x1DC4 DUP8 DUP4 DUP4 DUP8 PUSH2 0x1DE8 JUMP JUMPDEST SWAP8 SWAP7 POP POP POP POP POP POP POP JUMP JUMPDEST PUSH1 0x60 DUP4 ISZERO PUSH2 0x1DDE JUMPI POP DUP2 PUSH2 0x1728 JUMP JUMPDEST PUSH2 0x1728 DUP4 DUP4 PUSH2 0x1E5D JUMP JUMPDEST PUSH1 0x60 DUP4 ISZERO PUSH2 0x1E57 JUMPI DUP3 MLOAD PUSH1 0x0 SUB PUSH2 0x1E50 JUMPI PUSH1 0x1 PUSH1 0x1 PUSH1 0xA0 SHL SUB DUP6 AND EXTCODESIZE PUSH2 0x1E50 JUMPI PUSH1 0x40 MLOAD PUSH3 0x461BCD PUSH1 0xE5 SHL DUP2 MSTORE PUSH1 0x20 PUSH1 0x4 DUP3 ADD MSTORE PUSH1 0x1D PUSH1 0x24 DUP3 ADD MSTORE PUSH32 0x416464726573733A2063616C6C20746F206E6F6E2D636F6E7472616374000000 PUSH1 0x44 DUP3 ADD MSTORE PUSH1 0x64 ADD PUSH2 0x97C JUMP JUMPDEST POP DUP2 PUSH2 0x1BB8 JUMP JUMPDEST PUSH2 0x1BB8 DUP4 DUP4 JUMPDEST DUP2 MLOAD ISZERO PUSH2 0x1E6D JUMPI DUP2 MLOAD DUP1 DUP4 PUSH1 0x20 ADD REVERT JUMPDEST DUP1 PUSH1 0x40 MLOAD PUSH3 0x461BCD PUSH1 0xE5 SHL DUP2 MSTORE PUSH1 0x4 ADD PUSH2 0x97C SWAP2 SWAP1 PUSH2 0x2252 JUMP JUMPDEST DUP1 CALLDATALOAD PUSH1 0x1 PUSH1 0x1 PUSH1 0xA0 SHL SUB DUP2 AND DUP2 EQ PUSH2 0x1E9E JUMPI PUSH1 0x0 DUP1 REVERT JUMPDEST SWAP2 SWAP1 POP JUMP JUMPDEST PUSH1 0x0 PUSH1 0x20 DUP3 DUP5 SUB SLT ISZERO PUSH2 0x1EB5 JUMPI PUSH1 0x0 DUP1 REVERT JUMPDEST PUSH2 0x1728 DUP3 PUSH2 0x1E87 JUMP JUMPDEST PUSH1 0x0 PUSH1 0x20 DUP3 DUP5 SUB SLT ISZERO PUSH2 0x1ED0 JUMPI PUSH1 0x0 DUP1 REVERT JUMPDEST DUP2 CALLDATALOAD PUSH1 0x1 PUSH1 0x1 PUSH1 0xE0 SHL SUB NOT DUP2 AND DUP2 EQ PUSH2 0x1728 JUMPI PUSH1 0x0 DUP1 REVERT JUMPDEST PUSH1 0x0 PUSH1 0x20 DUP3 DUP5 SUB SLT ISZERO PUSH2 0x1EFA JUMPI PUSH1 0x0 DUP1 REVERT JUMPDEST POP CALLDATALOAD SWAP2 SWAP1 POP JUMP JUMPDEST PUSH1 0x0 DUP1 PUSH1 0x40 DUP4 DUP6 SUB SLT ISZERO PUSH2 0x1F14 JUMPI PUSH1 0x0 DUP1 REVERT JUMPDEST DUP3 CALLDATALOAD SWAP2 POP PUSH2 0x1F24 PUSH1 0x20 DUP5 ADD PUSH2 0x1E87 JUMP JUMPDEST SWAP1 POP SWAP3 POP SWAP3 SWAP1 POP JUMP JUMPDEST PUSH1 0x0 DUP1 PUSH1 0x40 DUP4 DUP6 SUB SLT ISZERO PUSH2 0x1F40 JUMPI PUSH1 0x0 DUP1 REVERT JUMPDEST PUSH2 0x1F49 DUP4 PUSH2 0x1E87 JUMP JUMPDEST SWAP2 POP PUSH2 0x1F24 PUSH1 0x20 DUP5 ADD PUSH2 0x1E87 JUMP JUMPDEST PUSH4 0x4E487B71 PUSH1 0xE0 SHL PUSH1 0x0 MSTORE PUSH1 0x41 PUSH1 0x4 MSTORE PUSH1 0x24 PUSH1 0x0 REVERT JUMPDEST PUSH1 0x0 DUP1 PUSH1 0x40 DUP4 DUP6 SUB SLT ISZERO PUSH2 0x1F80 JUMPI PUSH1 0x0 DUP1 REVERT JUMPDEST PUSH2 0x1F89 DUP4 PUSH2 0x1E87 JUMP JUMPDEST SWAP2 POP PUSH1 0x20 DUP4 ADD CALLDATALOAD PUSH8 0xFFFFFFFFFFFFFFFF DUP1 DUP3 GT ISZERO PUSH2 0x1FA6 JUMPI PUSH1 0x0 DUP1 REVERT JUMPDEST DUP2 DUP6 ADD SWAP2 POP DUP6 PUSH1 0x1F DUP4 ADD SLT PUSH2 0x1FBA JUMPI PUSH1 0x0 DUP1 REVERT JUMPDEST DUP2 CALLDATALOAD DUP2 DUP2 GT ISZERO PUSH2 0x1FCC JUMPI PUSH2 0x1FCC PUSH2 0x1F57 JUMP JUMPDEST PUSH1 0x40 MLOAD PUSH1 0x1F DUP3 ADD PUSH1 0x1F NOT SWAP1 DUP2 AND PUSH1 0x3F ADD AND DUP2 ADD SWAP1 DUP4 DUP3 GT DUP2 DUP4 LT OR ISZERO PUSH2 0x1FF4 JUMPI PUSH2 0x1FF4 PUSH2 0x1F57 JUMP JUMPDEST DUP2 PUSH1 0x40 MSTORE DUP3 DUP2 MSTORE DUP9 PUSH1 0x20 DUP5 DUP8 ADD ADD GT ISZERO PUSH2 0x200D JUMPI PUSH1 0x0 DUP1 REVERT JUMPDEST DUP3 PUSH1 0x20 DUP7 ADD PUSH1 0x20 DUP4 ADD CALLDATACOPY PUSH1 0x0 PUSH1 0x20 DUP5 DUP4 ADD ADD MSTORE DUP1 SWAP6 POP POP POP POP POP POP SWAP3 POP SWAP3 SWAP1 POP JUMP JUMPDEST PUSH4 0x4E487B71 PUSH1 0xE0 SHL PUSH1 0x0 MSTORE PUSH1 0x11 PUSH1 0x4 MSTORE PUSH1 0x24 PUSH1 0x0 REVERT JUMPDEST PUSH1 0x0 DUP3 DUP3 LT ISZERO PUSH2 0x2057 JUMPI PUSH2 0x2057 PUSH2 0x202F JUMP JUMPDEST POP SUB SWAP1 JUMP JUMPDEST PUSH1 0x0 DUP2 PUSH1 0x0 NOT DIV DUP4 GT DUP3 ISZERO ISZERO AND ISZERO PUSH2 0x2076 JUMPI PUSH2 0x2076 PUSH2 0x202F JUMP JUMPDEST POP MUL SWAP1 JUMP JUMPDEST PUSH1 0x0 DUP3 PUSH2 0x2098 JUMPI PUSH4 0x4E487B71 PUSH1 0xE0 SHL PUSH1 0x0 MSTORE PUSH1 0x12 PUSH1 0x4 MSTORE PUSH1 0x24 PUSH1 0x0 REVERT JUMPDEST POP DIV SWAP1 JUMP JUMPDEST PUSH1 0x0 DUP3 NOT DUP3 GT ISZERO PUSH2 0x20B0 JUMPI PUSH2 0x20B0 PUSH2 0x202F JUMP JUMPDEST POP ADD SWAP1 JUMP JUMPDEST PUSH1 0x20 DUP1 DUP3 MSTORE PUSH1 0x2C SWAP1 DUP3 ADD MSTORE PUSH32 0x46756E6374696F6E206D7573742062652063616C6C6564207468726F75676820 PUSH1 0x40 DUP3 ADD MSTORE PUSH12 0x19195B1959D85D1958D85B1B PUSH1 0xA2 SHL PUSH1 0x60 DUP3 ADD MSTORE PUSH1 0x80 ADD SWAP1 JUMP JUMPDEST PUSH1 0x20 DUP1 DUP3 MSTORE PUSH1 0x2C SWAP1 DUP3 ADD MSTORE PUSH32 0x46756E6374696F6E206D7573742062652063616C6C6564207468726F75676820 PUSH1 0x40 DUP3 ADD MSTORE PUSH12 0x6163746976652070726F7879 PUSH1 0xA0 SHL PUSH1 0x60 DUP3 ADD MSTORE PUSH1 0x80 ADD SWAP1 JUMP JUMPDEST PUSH1 0x0 PUSH1 0x20 DUP3 DUP5 SUB SLT ISZERO PUSH2 0x215F JUMPI PUSH1 0x0 DUP1 REVERT JUMPDEST POP MLOAD SWAP2 SWAP1 POP JUMP JUMPDEST PUSH1 0x20 DUP1 DUP3 MSTORE PUSH1 0x2B SWAP1 DUP3 ADD MSTORE PUSH32 0x496E697469616C697A61626C653A20636F6E7472616374206973206E6F742069 PUSH1 0x40 DUP3 ADD MSTORE PUSH11 0x6E697469616C697A696E67 PUSH1 0xA8 SHL PUSH1 0x60 DUP3 ADD MSTORE PUSH1 0x80 ADD SWAP1 JUMP JUMPDEST PUSH1 0x0 JUMPDEST DUP4 DUP2 LT ISZERO PUSH2 0x21CC JUMPI DUP2 DUP2 ADD MLOAD DUP4 DUP3 ADD MSTORE PUSH1 0x20 ADD PUSH2 0x21B4 JUMP JUMPDEST DUP4 DUP2 GT ISZERO PUSH2 0x1391 JUMPI POP POP PUSH1 0x0 SWAP2 ADD MSTORE JUMP JUMPDEST PUSH32 0x416363657373436F6E74726F6C3A206163636F756E7420000000000000000000 DUP2 MSTORE PUSH1 0x0 DUP4 MLOAD PUSH2 0x2215 DUP2 PUSH1 0x17 DUP6 ADD PUSH1 0x20 DUP9 ADD PUSH2 0x21B1 JUMP JUMPDEST PUSH17 0x1034B99036B4B9B9B4B733903937B6329 PUSH1 0x7D SHL PUSH1 0x17 SWAP2 DUP5 ADD SWAP2 DUP3 ADD MSTORE DUP4 MLOAD PUSH2 0x2246 DUP2 PUSH1 0x28 DUP5 ADD PUSH1 0x20 DUP9 ADD PUSH2 0x21B1 JUMP JUMPDEST ADD PUSH1 0x28 ADD SWAP5 SWAP4 POP POP POP POP JUMP JUMPDEST PUSH1 0x20 DUP2 MSTORE PUSH1 0x0 DUP3 MLOAD DUP1 PUSH1 0x20 DUP5 ADD MSTORE PUSH2 0x2271 DUP2 PUSH1 0x40 DUP6 ADD PUSH1 0x20 DUP8 ADD PUSH2 0x21B1 JUMP JUMPDEST PUSH1 0x1F ADD PUSH1 0x1F NOT AND SWAP2 SWAP1 SWAP2 ADD PUSH1 0x40 ADD SWAP3 SWAP2 POP POP JUMP JUMPDEST PUSH1 0x0 PUSH1 0x20 DUP3 DUP5 SUB SLT ISZERO PUSH2 0x2297 JUMPI PUSH1 0x0 DUP1 REVERT JUMPDEST DUP2 MLOAD DUP1 ISZERO ISZERO DUP2 EQ PUSH2 0x1728 JUMPI PUSH1 0x0 DUP1 REVERT JUMPDEST PUSH4 0x4E487B71 PUSH1 0xE0 SHL PUSH1 0x0 MSTORE PUSH1 0x32 PUSH1 0x4 MSTORE PUSH1 0x24 PUSH1 0x0 REVERT JUMPDEST PUSH1 0x0 DUP2 PUSH2 0x22CC JUMPI PUSH2 0x22CC PUSH2 0x202F JUMP JUMPDEST POP PUSH1 0x0 NOT ADD SWAP1 JUMP JUMPDEST PUSH1 0x0 DUP3 MLOAD PUSH2 0x22E6 DUP2 DUP5 PUSH1 0x20 DUP8 ADD PUSH2 0x21B1 JUMP JUMPDEST SWAP2 SWAP1 SWAP2 ADD SWAP3 SWAP2 POP POP JUMP INVALID CALLDATASIZE ADDMOD SWAP5 LOG1 EXTCODESIZE LOG1 LOG3 0x21 MOD PUSH8 0xC828492DB98DCA3E KECCAK256 PUSH23 0xCC3735A920A3CA505D382BBC416464726573733A206C6F PUSH24 0x2D6C6576656C2064656C65676174652063616C6C20666169 PUSH13 0x6564A49807205CE4D355092EF5 0xA8 LOG1 DUP16 JUMP 0xE8 SWAP2 EXTCODECOPY DELEGATECALL LOG2 ADD 0xFB 0xE2 DUP8 DUP3 JUMPDEST MULMOD JUMP SWAP4 0xC2 OR PUSH22 0xA264697066735822122098E61B5974A97020D2E73FB5 PUSH9 0xB349FAD3C435F752A2 BYTE 0xD LT SMOD 0xEE 0xEB KECCAK256 PUSH28 0x446864736F6C634300080F0033000000000000000000000000000000 "},"methodIdentifiers":{"ADMIN_ROLE()":"75b238fc","DEFAULT_ADMIN_ROLE()":"a217fddf","balanceOf(address)":"70a08231","changeRewardToken(address)":"088ab8ce","changeStakingToken(address)":"285d333b","duration()":"0fb5a6b4","earned(address)":"008cc262","finishAt()":"67d3b488","getReward()":"3d18b912","getRoleAdmin(bytes32)":"248a9ca3","grantRole(bytes32,address)":"2f2ff15d","hasRole(bytes32,address)":"91d14854","initialize(address,address)":"485cc955","lastTimeRewardApplicable()":"80faa57d","notifyRewardAmount(uint256)":"3c6b16ab","owner()":"8da5cb5b","pause()":"8456cb59","paused()":"5c975abb","proxiableUUID()":"52d1902d","renounceRole(bytes32,address)":"36568abe","revokeRole(bytes32,address)":"d547741f","rewardPerToken()":"cd3daf9d","rewardPerTokenStored()":"df136d65","rewardRate()":"7b0a47ee","rewardToken()":"f7c618c1","rewards(address)":"0700037d","setRewardsDuration(uint256)":"cc1a378f","stake(uint256)":"a694fc3a","stakingToken()":"72f702f3","supportsInterface(bytes4)":"01ffc9a7","testFN()":"e79ad577","totalStaked()":"817b1cd2","unpause()":"3f4ba83a","updatedAt()":"7519ab50","upgradeTo(address)":"3659cfe6","upgradeToAndCall(address,bytes)":"4f1ef286","userRewardPerTokenPaid(address)":"8b876347","withdraw(uint256)":"2e1a7d4d"}},"storageLayout":{"storage":[{"astId":804,"contract":"contracts/helpers/StakingContractV2Test.sol:StakingContractV2Test","label":"_initialized","offset":0,"slot":"0","type":"t_uint8"},{"astId":807,"contract":"contracts/helpers/StakingContractV2Test.sol:StakingContractV2Test","label":"_initializing","offset":1,"slot":"0","type":"t_bool"},{"astId":786,"contract":"contracts/helpers/StakingContractV2Test.sol:StakingContractV2Test","label":"__gap","offset":0,"slot":"1","type":"t_array(t_uint256)50_storage"},{"astId":1101,"contract":"contracts/helpers/StakingContractV2Test.sol:StakingContractV2Test","label":"__gap","offset":0,"slot":"51","type":"t_array(t_uint256)50_storage"},{"astId":2022,"contract":"contracts/helpers/StakingContractV2Test.sol:StakingContractV2Test","label":"__gap","offset":0,"slot":"101","type":"t_array(t_uint256)50_storage"},{"astId":1123,"contract":"contracts/helpers/StakingContractV2Test.sol:StakingContractV2Test","label":"_paused","offset":0,"slot":"151","type":"t_bool"},{"astId":1228,"contract":"contracts/helpers/StakingContractV2Test.sol:StakingContractV2Test","label":"__gap","offset":0,"slot":"152","type":"t_array(t_uint256)49_storage"},{"astId":2301,"contract":"contracts/helpers/StakingContractV2Test.sol:StakingContractV2Test","label":"__gap","offset":0,"slot":"201","type":"t_array(t_uint256)50_storage"},{"astId":39,"contract":"contracts/helpers/StakingContractV2Test.sol:StakingContractV2Test","label":"_roles","offset":0,"slot":"251","type":"t_mapping(t_bytes32,t_struct(RoleData)34_storage)"},{"astId":334,"contract":"contracts/helpers/StakingContractV2Test.sol:StakingContractV2Test","label":"__gap","offset":0,"slot":"252","type":"t_array(t_uint256)49_storage"},{"astId":1243,"contract":"contracts/helpers/StakingContractV2Test.sol:StakingContractV2Test","label":"_status","offset":0,"slot":"301","type":"t_uint256"},{"astId":1301,"contract":"contracts/helpers/StakingContractV2Test.sol:StakingContractV2Test","label":"__gap","offset":0,"slot":"302","type":"t_array(t_uint256)49_storage"},{"astId":3205,"contract":"contracts/helpers/StakingContractV2Test.sol:StakingContractV2Test","label":"stakingToken","offset":0,"slot":"351","type":"t_contract(IERC20Upgradeable)1380"},{"astId":3208,"contract":"contracts/helpers/StakingContractV2Test.sol:StakingContractV2Test","label":"rewardToken","offset":0,"slot":"352","type":"t_contract(IERC20Upgradeable)1380"},{"astId":3215,"contract":"contracts/helpers/StakingContractV2Test.sol:StakingContractV2Test","label":"owner","offset":0,"slot":"353","type":"t_address"},{"astId":3217,"contract":"contracts/helpers/StakingContractV2Test.sol:StakingContractV2Test","label":"totalStaked","offset":0,"slot":"354","type":"t_uint256"},{"astId":3219,"contract":"contracts/helpers/StakingContractV2Test.sol:StakingContractV2Test","label":"duration","offset":0,"slot":"355","type":"t_uint256"},{"astId":3221,"contract":"contracts/helpers/StakingContractV2Test.sol:StakingContractV2Test","label":"finishAt","offset":0,"slot":"356","type":"t_uint256"},{"astId":3223,"contract":"contracts/helpers/StakingContractV2Test.sol:StakingContractV2Test","label":"updatedAt","offset":0,"slot":"357","type":"t_uint256"},{"astId":3225,"contract":"contracts/helpers/StakingContractV2Test.sol:StakingContractV2Test","label":"rewardRate","offset":0,"slot":"358","type":"t_uint256"},{"astId":3227,"contract":"contracts/helpers/StakingContractV2Test.sol:StakingContractV2Test","label":"rewardPerTokenStored","offset":0,"slot":"359","type":"t_uint256"},{"astId":3269,"contract":"contracts/helpers/StakingContractV2Test.sol:StakingContractV2Test","label":"balanceOf","offset":0,"slot":"360","type":"t_mapping(t_address,t_uint256)"},{"astId":3273,"contract":"contracts/helpers/StakingContractV2Test.sol:StakingContractV2Test","label":"userRewardPerTokenPaid","offset":0,"slot":"361","type":"t_mapping(t_address,t_uint256)"},{"astId":3277,"contract":"contracts/helpers/StakingContractV2Test.sol:StakingContractV2Test","label":"rewards","offset":0,"slot":"362","type":"t_mapping(t_address,t_uint256)"}],"types":{"t_address":{"encoding":"inplace","label":"address","numberOfBytes":"20"},"t_array(t_uint256)49_storage":{"base":"t_uint256","encoding":"inplace","label":"uint256[49]","numberOfBytes":"1568"},"t_array(t_uint256)50_storage":{"base":"t_uint256","encoding":"inplace","label":"uint256[50]","numberOfBytes":"1600"},"t_bool":{"encoding":"inplace","label":"bool","numberOfBytes":"1"},"t_bytes32":{"encoding":"inplace","label":"bytes32","numberOfBytes":"32"},"t_contract(IERC20Upgradeable)1380":{"encoding":"inplace","label":"contract IERC20Upgradeable","numberOfBytes":"20"},"t_mapping(t_address,t_bool)":{"encoding":"mapping","key":"t_address","label":"mapping(address => bool)","numberOfBytes":"32","value":"t_bool"},"t_mapping(t_address,t_uint256)":{"encoding":"mapping","key":"t_address","label":"mapping(address => uint256)","numberOfBytes":"32","value":"t_uint256"},"t_mapping(t_bytes32,t_struct(RoleData)34_storage)":{"encoding":"mapping","key":"t_bytes32","label":"mapping(bytes32 => struct AccessControlUpgradeable.RoleData)","numberOfBytes":"32","value":"t_struct(RoleData)34_storage"},"t_struct(RoleData)34_storage":{"encoding":"inplace","label":"struct AccessControlUpgradeable.RoleData","members":[{"astId":31,"contract":"contracts/helpers/StakingContractV2Test.sol:StakingContractV2Test","label":"members","offset":0,"slot":"0","type":"t_mapping(t_address,t_bool)"},{"astId":33,"contract":"contracts/helpers/StakingContractV2Test.sol:StakingContractV2Test","label":"adminRole","offset":0,"slot":"1","type":"t_bytes32"}],"numberOfBytes":"64"},"t_uint256":{"encoding":"inplace","label":"uint256","numberOfBytes":"32"},"t_uint8":{"encoding":"inplace","label":"uint8","numberOfBytes":"1"}}}}}}