{
  "_format": "hh-sol-artifact-1",
  "contractName": "StakingContractV2Test",
  "sourceName": "contracts/helpers/StakingContractV2Test.sol",
  "abi": [
    {
      "inputs": [],
      "name": "AmountCannotBeZero",
      "type": "error"
    },
    {
      "inputs": [],
      "name": "NoRewardsToClaim",
      "type": "error"
    },
    {
      "inputs": [],
      "name": "RewardAmountGreaterThanBalance",
      "type": "error"
    },
    {
      "inputs": [],
      "name": "RewardDurationNotFinished",
      "type": "error"
    },
    {
      "inputs": [],
      "name": "RewardRateCannotBeZero",
      "type": "error"
    },
    {
      "inputs": [],
      "name": "RewardTokenCannotBeZeroAddress",
      "type": "error"
    },
    {
      "inputs": [],
      "name": "StakingTokenCannotBeZeroAddress",
      "type": "error"
    },
    {
      "anonymous": false,
      "inputs": [
        {
          "indexed": false,
          "internalType": "address",
          "name": "previousAdmin",
          "type": "address"
        },
        {
          "indexed": false,
          "internalType": "address",
          "name": "newAdmin",
          "type": "address"
        }
      ],
      "name": "AdminChanged",
      "type": "event"
    },
    {
      "anonymous": false,
      "inputs": [
        {
          "indexed": true,
          "internalType": "address",
          "name": "beacon",
          "type": "address"
        }
      ],
      "name": "BeaconUpgraded",
      "type": "event"
    },
    {
      "anonymous": false,
      "inputs": [
        {
          "indexed": false,
          "internalType": "uint8",
          "name": "version",
          "type": "uint8"
        }
      ],
      "name": "Initialized",
      "type": "event"
    },
    {
      "anonymous": false,
      "inputs": [
        {
          "indexed": false,
          "internalType": "address",
          "name": "account",
          "type": "address"
        }
      ],
      "name": "Paused",
      "type": "event"
    },
    {
      "anonymous": false,
      "inputs": [
        {
          "indexed": false,
          "internalType": "uint256",
          "name": "reward",
          "type": "uint256"
        }
      ],
      "name": "RewardAdded",
      "type": "event"
    },
    {
      "anonymous": false,
      "inputs": [
        {
          "indexed": false,
          "internalType": "address",
          "name": "account",
          "type": "address"
        },
        {
          "indexed": false,
          "internalType": "uint256",
          "name": "amount",
          "type": "uint256"
        }
      ],
      "name": "RewardsWithdrawn",
      "type": "event"
    },
    {
      "anonymous": false,
      "inputs": [
        {
          "indexed": true,
          "internalType": "bytes32",
          "name": "role",
          "type": "bytes32"
        },
        {
          "indexed": true,
          "internalType": "bytes32",
          "name": "previousAdminRole",
          "type": "bytes32"
        },
        {
          "indexed": true,
          "internalType": "bytes32",
          "name": "newAdminRole",
          "type": "bytes32"
        }
      ],
      "name": "RoleAdminChanged",
      "type": "event"
    },
    {
      "anonymous": false,
      "inputs": [
        {
          "indexed": true,
          "internalType": "bytes32",
          "name": "role",
          "type": "bytes32"
        },
        {
          "indexed": true,
          "internalType": "address",
          "name": "account",
          "type": "address"
        },
        {
          "indexed": true,
          "internalType": "address",
          "name": "sender",
          "type": "address"
        }
      ],
      "name": "RoleGranted",
      "type": "event"
    },
    {
      "anonymous": false,
      "inputs": [
        {
          "indexed": true,
          "internalType": "bytes32",
          "name": "role",
          "type": "bytes32"
        },
        {
          "indexed": true,
          "internalType": "address",
          "name": "account",
          "type": "address"
        },
        {
          "indexed": true,
          "internalType": "address",
          "name": "sender",
          "type": "address"
        }
      ],
      "name": "RoleRevoked",
      "type": "event"
    },
    {
      "anonymous": false,
      "inputs": [
        {
          "indexed": false,
          "internalType": "address",
          "name": "account",
          "type": "address"
        },
        {
          "indexed": false,
          "internalType": "uint256",
          "name": "amount",
          "type": "uint256"
        }
      ],
      "name": "StakeWithdrawn",
      "type": "event"
    },
    {
      "anonymous": false,
      "inputs": [
        {
          "indexed": false,
          "internalType": "address",
          "name": "account",
          "type": "address"
        },
        {
          "indexed": false,
          "internalType": "uint256",
          "name": "amount",
          "type": "uint256"
        }
      ],
      "name": "Staked",
      "type": "event"
    },
    {
      "anonymous": false,
      "inputs": [
        {
          "indexed": false,
          "internalType": "address",
          "name": "account",
          "type": "address"
        }
      ],
      "name": "Unpaused",
      "type": "event"
    },
    {
      "anonymous": false,
      "inputs": [
        {
          "indexed": true,
          "internalType": "address",
          "name": "implementation",
          "type": "address"
        }
      ],
      "name": "Upgraded",
      "type": "event"
    },
    {
      "inputs": [],
      "name": "ADMIN_ROLE",
      "outputs": [
        {
          "internalType": "bytes32",
          "name": "",
          "type": "bytes32"
        }
      ],
      "stateMutability": "view",
      "type": "function"
    },
    {
      "inputs": [],
      "name": "DEFAULT_ADMIN_ROLE",
      "outputs": [
        {
          "internalType": "bytes32",
          "name": "",
          "type": "bytes32"
        }
      ],
      "stateMutability": "view",
      "type": "function"
    },
    {
      "inputs": [
        {
          "internalType": "address",
          "name": "account",
          "type": "address"
        }
      ],
      "name": "balanceOf",
      "outputs": [
        {
          "internalType": "uint256",
          "name": "",
          "type": "uint256"
        }
      ],
      "stateMutability": "view",
      "type": "function"
    },
    {
      "inputs": [
        {
          "internalType": "address",
          "name": "_rewardToken",
          "type": "address"
        }
      ],
      "name": "changeRewardToken",
      "outputs": [],
      "stateMutability": "nonpayable",
      "type": "function"
    },
    {
      "inputs": [
        {
          "internalType": "address",
          "name": "_stakingToken",
          "type": "address"
        }
      ],
      "name": "changeStakingToken",
      "outputs": [],
      "stateMutability": "nonpayable",
      "type": "function"
    },
    {
      "inputs": [],
      "name": "duration",
      "outputs": [
        {
          "internalType": "uint256",
          "name": "",
          "type": "uint256"
        }
      ],
      "stateMutability": "view",
      "type": "function"
    },
    {
      "inputs": [
        {
          "internalType": "address",
          "name": "_account",
          "type": "address"
        }
      ],
      "name": "earned",
      "outputs": [
        {
          "internalType": "uint256",
          "name": "",
          "type": "uint256"
        }
      ],
      "stateMutability": "view",
      "type": "function"
    },
    {
      "inputs": [],
      "name": "exit",
      "outputs": [],
      "stateMutability": "nonpayable",
      "type": "function"
    },
    {
      "inputs": [],
      "name": "finishAt",
      "outputs": [
        {
          "internalType": "uint256",
          "name": "",
          "type": "uint256"
        }
      ],
      "stateMutability": "view",
      "type": "function"
    },
    {
      "inputs": [
        {
          "internalType": "bytes32",
          "name": "role",
          "type": "bytes32"
        }
      ],
      "name": "getRoleAdmin",
      "outputs": [
        {
          "internalType": "bytes32",
          "name": "",
          "type": "bytes32"
        }
      ],
      "stateMutability": "view",
      "type": "function"
    },
    {
      "inputs": [
        {
          "internalType": "bytes32",
          "name": "role",
          "type": "bytes32"
        },
        {
          "internalType": "address",
          "name": "account",
          "type": "address"
        }
      ],
      "name": "grantRole",
      "outputs": [],
      "stateMutability": "nonpayable",
      "type": "function"
    },
    {
      "inputs": [
        {
          "internalType": "bytes32",
          "name": "role",
          "type": "bytes32"
        },
        {
          "internalType": "address",
          "name": "account",
          "type": "address"
        }
      ],
      "name": "hasRole",
      "outputs": [
        {
          "internalType": "bool",
          "name": "",
          "type": "bool"
        }
      ],
      "stateMutability": "view",
      "type": "function"
    },
    {
      "inputs": [
        {
          "internalType": "address",
          "name": "_stakingToken",
          "type": "address"
        },
        {
          "internalType": "address",
          "name": "_rewardToken",
          "type": "address"
        }
      ],
      "name": "initialize",
      "outputs": [],
      "stateMutability": "nonpayable",
      "type": "function"
    },
    {
      "inputs": [],
      "name": "lastTimeRewardApplicable",
      "outputs": [
        {
          "internalType": "uint256",
          "name": "",
          "type": "uint256"
        }
      ],
      "stateMutability": "view",
      "type": "function"
    },
    {
      "inputs": [
        {
          "internalType": "uint256",
          "name": "_amount",
          "type": "uint256"
        }
      ],
      "name": "notifyRewardAmount",
      "outputs": [],
      "stateMutability": "nonpayable",
      "type": "function"
    },
    {
      "inputs": [],
      "name": "pause",
      "outputs": [],
      "stateMutability": "nonpayable",
      "type": "function"
    },
    {
      "inputs": [],
      "name": "paused",
      "outputs": [
        {
          "internalType": "bool",
          "name": "",
          "type": "bool"
        }
      ],
      "stateMutability": "view",
      "type": "function"
    },
    {
      "inputs": [],
      "name": "proxiableUUID",
      "outputs": [
        {
          "internalType": "bytes32",
          "name": "",
          "type": "bytes32"
        }
      ],
      "stateMutability": "view",
      "type": "function"
    },
    {
      "inputs": [
        {
          "internalType": "bytes32",
          "name": "role",
          "type": "bytes32"
        },
        {
          "internalType": "address",
          "name": "account",
          "type": "address"
        }
      ],
      "name": "renounceRole",
      "outputs": [],
      "stateMutability": "nonpayable",
      "type": "function"
    },
    {
      "inputs": [
        {
          "internalType": "bytes32",
          "name": "role",
          "type": "bytes32"
        },
        {
          "internalType": "address",
          "name": "account",
          "type": "address"
        }
      ],
      "name": "revokeRole",
      "outputs": [],
      "stateMutability": "nonpayable",
      "type": "function"
    },
    {
      "inputs": [],
      "name": "rewardPerToken",
      "outputs": [
        {
          "internalType": "uint256",
          "name": "",
          "type": "uint256"
        }
      ],
      "stateMutability": "view",
      "type": "function"
    },
    {
      "inputs": [],
      "name": "rewardPerTokenStaked",
      "outputs": [
        {
          "internalType": "uint256",
          "name": "",
          "type": "uint256"
        }
      ],
      "stateMutability": "view",
      "type": "function"
    },
    {
      "inputs": [],
      "name": "rewardRate",
      "outputs": [
        {
          "internalType": "uint256",
          "name": "",
          "type": "uint256"
        }
      ],
      "stateMutability": "view",
      "type": "function"
    },
    {
      "inputs": [],
      "name": "rewardToken",
      "outputs": [
        {
          "internalType": "contract IERC20Upgradeable",
          "name": "",
          "type": "address"
        }
      ],
      "stateMutability": "view",
      "type": "function"
    },
    {
      "inputs": [
        {
          "internalType": "address",
          "name": "",
          "type": "address"
        }
      ],
      "name": "rewards",
      "outputs": [
        {
          "internalType": "uint256",
          "name": "",
          "type": "uint256"
        }
      ],
      "stateMutability": "view",
      "type": "function"
    },
    {
      "inputs": [
        {
          "internalType": "uint256",
          "name": "_finish",
          "type": "uint256"
        }
      ],
      "name": "setFinishAt",
      "outputs": [],
      "stateMutability": "nonpayable",
      "type": "function"
    },
    {
      "inputs": [
        {
          "internalType": "uint256",
          "name": "_rate",
          "type": "uint256"
        }
      ],
      "name": "setRewardRate",
      "outputs": [],
      "stateMutability": "nonpayable",
      "type": "function"
    },
    {
      "inputs": [
        {
          "internalType": "uint256",
          "name": "_duration",
          "type": "uint256"
        }
      ],
      "name": "setRewardsDuration",
      "outputs": [],
      "stateMutability": "nonpayable",
      "type": "function"
    },
    {
      "inputs": [
        {
          "internalType": "uint256",
          "name": "_amount",
          "type": "uint256"
        }
      ],
      "name": "stake",
      "outputs": [],
      "stateMutability": "nonpayable",
      "type": "function"
    },
    {
      "inputs": [],
      "name": "stakingToken",
      "outputs": [
        {
          "internalType": "contract IERC20Upgradeable",
          "name": "",
          "type": "address"
        }
      ],
      "stateMutability": "view",
      "type": "function"
    },
    {
      "inputs": [
        {
          "internalType": "bytes4",
          "name": "interfaceId",
          "type": "bytes4"
        }
      ],
      "name": "supportsInterface",
      "outputs": [
        {
          "internalType": "bool",
          "name": "",
          "type": "bool"
        }
      ],
      "stateMutability": "view",
      "type": "function"
    },
    {
      "inputs": [],
      "name": "testFN",
      "outputs": [
        {
          "internalType": "uint256",
          "name": "",
          "type": "uint256"
        }
      ],
      "stateMutability": "pure",
      "type": "function"
    },
    {
      "inputs": [],
      "name": "totalStaked",
      "outputs": [
        {
          "internalType": "uint256",
          "name": "",
          "type": "uint256"
        }
      ],
      "stateMutability": "view",
      "type": "function"
    },
    {
      "inputs": [
        {
          "internalType": "address",
          "name": "_token",
          "type": "address"
        },
        {
          "internalType": "address",
          "name": "_to",
          "type": "address"
        },
        {
          "internalType": "uint256",
          "name": "_amount",
          "type": "uint256"
        }
      ],
      "name": "transferFromContract",
      "outputs": [],
      "stateMutability": "nonpayable",
      "type": "function"
    },
    {
      "inputs": [],
      "name": "unpause",
      "outputs": [],
      "stateMutability": "nonpayable",
      "type": "function"
    },
    {
      "inputs": [],
      "name": "updatedAt",
      "outputs": [
        {
          "internalType": "uint256",
          "name": "",
          "type": "uint256"
        }
      ],
      "stateMutability": "view",
      "type": "function"
    },
    {
      "inputs": [
        {
          "internalType": "address",
          "name": "newImplementation",
          "type": "address"
        }
      ],
      "name": "upgradeTo",
      "outputs": [],
      "stateMutability": "nonpayable",
      "type": "function"
    },
    {
      "inputs": [
        {
          "internalType": "address",
          "name": "newImplementation",
          "type": "address"
        },
        {
          "internalType": "bytes",
          "name": "data",
          "type": "bytes"
        }
      ],
      "name": "upgradeToAndCall",
      "outputs": [],
      "stateMutability": "payable",
      "type": "function"
    },
    {
      "inputs": [
        {
          "internalType": "address",
          "name": "",
          "type": "address"
        }
      ],
      "name": "userRewardPerTokenStaked",
      "outputs": [
        {
          "internalType": "uint256",
          "name": "",
          "type": "uint256"
        }
      ],
      "stateMutability": "view",
      "type": "function"
    },
    {
      "inputs": [],
      "name": "withdrawRewards",
      "outputs": [],
      "stateMutability": "nonpayable",
      "type": "function"
    },
    {
      "inputs": [
        {
          "internalType": "uint256",
          "name": "_amount",
          "type": "uint256"
        }
      ],
      "name": "withdrawStake",
      "outputs": [],
      "stateMutability": "nonpayable",
      "type": "function"
    }
  ],
  "bytecode": "0x60a06040523060805234801561001457600080fd5b5060805161265f61004c60003960008181610b9401528181610bd40152818161103a0152818161107a0152611109015261265f6000f3fe6080604052600436106102455760003560e01c80635c975abb1161013957806391d14854116100b6578063cc1a378f1161007a578063cc1a378f146106a1578063cd3daf9d146106c1578063d547741f146106d6578063e79ad577146106f6578063e9fad8ee1461070a578063f7c618c11461071f57600080fd5b806391d14854146106165780639e447fc614610636578063a217fddf14610657578063a694fc3a1461066c578063c7b8981c1461068c57600080fd5b806375b238fc116100fd57806375b238fc1461059d5780637b0a47ee146105bf57806380faa57d146105d6578063817b1cd2146105eb5780638456cb591461060157600080fd5b80635c975abb146104e757806367d3b488146104ff57806370a082311461051657806372f702f31461054d5780637519ab501461058657600080fd5b8063285d333b116101c75780633c6b16ab1161018b5780633c6b16ab1461046a5780633f4ba83a1461048a578063485cc9551461049f5780634f1ef286146104bf57806352d1902d146104d257600080fd5b8063285d333b146103bc5780632f2ff15d146103dc578063309ad248146103fc57806336568abe1461042a5780633659cfe61461044a57600080fd5b80630fb5a6b41161020e5780630fb5a6b41461031e5780632126aa0914610335578063248a9ca3146103555780632576dcad1461038557806325d5971f1461039c57600080fd5b80628cc2621461024a57806301ffc9a71461027d5780630700037d146102ad578063088ab8ce146102db5780630bea6637146102fd575b600080fd5b34801561025657600080fd5b5061026a610265366004612139565b610740565b6040519081526020015b60405180910390f35b34801561028957600080fd5b5061029d610298366004612154565b6107c0565b6040519015158152602001610274565b3480156102b957600080fd5b5061026a6102c8366004612139565b6101696020526000908152604090205481565b3480156102e757600080fd5b506102fb6102f6366004612139565b6107f5565b005b34801561030957600080fd5b506102fb61031836600461217e565b61016355565b34801561032a57600080fd5b5061026a6101625481565b34801561034157600080fd5b506102fb610350366004612197565b610858565b34801561036157600080fd5b5061026a61037036600461217e565b600090815260fb602052604090206001015490565b34801561039157600080fd5b5061026a6101665481565b3480156103a857600080fd5b506102fb6103b736600461217e565b610949565b3480156103c857600080fd5b506102fb6103d7366004612139565b610a7a565b3480156103e857600080fd5b506102fb6103f73660046121d3565b610add565b34801561040857600080fd5b5061026a610417366004612139565b6101686020526000908152604090205481565b34801561043657600080fd5b506102fb6104453660046121d3565b610b07565b34801561045657600080fd5b506102fb610465366004612139565b610b8a565b34801561047657600080fd5b506102fb61048536600461217e565b610c66565b34801561049657600080fd5b506102fb610e53565b3480156104ab57600080fd5b506102fb6104ba3660046121ff565b610e73565b6102fb6104cd36600461223f565b611030565b3480156104de57600080fd5b5061026a6110fc565b3480156104f357600080fd5b5060975460ff1661029d565b34801561050b57600080fd5b5061026a6101635481565b34801561052257600080fd5b5061026a610531366004612139565b6001600160a01b03166000908152610167602052604090205490565b34801561055957600080fd5b5061015f5461056e906001600160a01b031681565b6040516001600160a01b039091168152602001610274565b34801561059257600080fd5b5061026a6101645481565b3480156105a957600080fd5b5061026a60008051602061260a83398151915281565b3480156105cb57600080fd5b5061026a6101655481565b3480156105e257600080fd5b5061026a6111af565b3480156105f757600080fd5b506101615461026a565b34801561060d57600080fd5b506102fb6111c3565b34801561062257600080fd5b5061029d6106313660046121d3565b6111e3565b34801561064257600080fd5b506102fb61065136600461217e565b61016555565b34801561066357600080fd5b5061026a600081565b34801561067857600080fd5b506102fb61068736600461217e565b61120e565b34801561069857600080fd5b506102fb61132d565b3480156106ad57600080fd5b506102fb6106bc36600461217e565b611424565b3480156106cd57600080fd5b5061026a611467565b3480156106e257600080fd5b506102fb6106f13660046121d3565b6114ce565b34801561070257600080fd5b50600d61026a565b34801561071657600080fd5b506102fb6114f3565b34801561072b57600080fd5b506101605461056e906001600160a01b031681565b6001600160a01b03811660009081526101696020908152604080832054610168909252822054670de0b6b3a764000090610778611467565b6107829190612317565b6001600160a01b038516600090815261016760205260409020546107a6919061232e565b6107b0919061234d565b6107ba919061236f565b92915050565b60006001600160e01b03198216637965db0b60e01b14806107ba57506301ffc9a760e01b6001600160e01b03198316146107ba565b60008051602061260a83398151915261080d81611517565b6001600160a01b0382166108345760405163560b6c5d60e11b815260040160405180910390fd5b5061016080546001600160a01b0319166001600160a01b0392909216919091179055565b60405163095ea7b360e01b8152306004820152602481018290526001600160a01b0384169063095ea7b3906044016020604051808303816000875af11580156108a5573d6000803e3d6000fd5b505050506040513d601f19601f820116820180604052508101906108c99190612387565b506040516323b872dd60e01b81523060048201526001600160a01b038381166024830152604482018390528416906323b872dd906064016020604051808303816000875af115801561091f573d6000803e3d6000fd5b505050506040513d601f19601f820116820180604052508101906109439190612387565b50505050565b610951611521565b610959611567565b33610962611467565b6101665561096e6111af565b610164556001600160a01b038116156109b95761098a81610740565b6001600160a01b0382166000908152610169602090815260408083209390935561016654610168909152919020555b600082116109da5760405163d11b25af60e01b815260040160405180910390fd5b3360009081526101676020526040812080548492906109fa908490612317565b92505081905550816101616000828254610a149190612317565b909155505061015f54610a31906001600160a01b031633846115c2565b60408051338152602081018490527f8108595eb6bad3acefa9da467d90cc2217686d5c5ac85460f8b7849c840645fc91015b60405180910390a150610a77600161012d55565b50565b60008051602061260a833981519152610a9281611517565b6001600160a01b038216610ab9576040516353ab834d60e11b815260040160405180910390fd5b5061015f80546001600160a01b0319166001600160a01b0392909216919091179055565b600082815260fb6020526040902060010154610af881611517565b610b02838361162d565b505050565b6001600160a01b0381163314610b7c5760405162461bcd60e51b815260206004820152602f60248201527f416363657373436f6e74726f6c3a2063616e206f6e6c792072656e6f756e636560448201526e103937b632b9903337b91039b2b63360891b60648201526084015b60405180910390fd5b610b8682826116b3565b5050565b6001600160a01b037f0000000000000000000000000000000000000000000000000000000000000000163003610bd25760405162461bcd60e51b8152600401610b73906123a9565b7f00000000000000000000000000000000000000000000000000000000000000006001600160a01b0316610c1b6000805160206125c3833981519152546001600160a01b031690565b6001600160a01b031614610c415760405162461bcd60e51b8152600401610b73906123f5565b610c4a8161171a565b60408051600080825260208201909252610a7791839190611732565b60008051602061260a833981519152610c7e81611517565b6000610c88611467565b61016655610c946111af565b610164556001600160a01b03811615610cdf57610cb081610740565b6001600160a01b0382166000908152610169602090815260408083209390935561016654610168909152919020555b61016354421115610d015761016254610cf8908461234d565b61016555610d41565b60004261016354610d129190612317565b61016554610d20919061232e565b61016254909150610d31858361236f565b610d3b919061234d565b61016555505b60006101655411610d6557604051637a69ed5160e11b815260040160405180910390fd5b610160546040516370a0823160e01b81523060048201526001600160a01b03909116906370a0823190602401602060405180830381865afa158015610dae573d6000803e3d6000fd5b505050506040513d601f19601f82011682018060405250810190610dd29190612441565b6101625461016554610de4919061232e565b1115610e03576040516388b88e1160e01b815260040160405180910390fd5b61016254610e11904261236f565b6101635542610164556040518381527fde88a922e0d3b88b24e9623efeb464919c6bf9f66857a65e2bfcf2ce87a9433d906020015b60405180910390a1505050565b60008051602061260a833981519152610e6b81611517565b610a7761189d565b600054610100900460ff1615808015610e935750600054600160ff909116105b80610ead5750303b158015610ead575060005460ff166001145b610f105760405162461bcd60e51b815260206004820152602e60248201527f496e697469616c697a61626c653a20636f6e747261637420697320616c72656160448201526d191e481a5b9a5d1a585b1a5e995960921b6064820152608401610b73565b6000805460ff191660011790558015610f33576000805461ff0019166101001790555b6001600160a01b038316610f5a576040516353ab834d60e11b815260040160405180910390fd5b6001600160a01b038216610f815760405163560b6c5d60e11b815260040160405180910390fd5b610f896118ef565b610f91611916565b610f99611945565b610fa460003361162d565b610fbc60008051602061260a8339815191523361162d565b61015f80546001600160a01b038086166001600160a01b0319928316179092556101608054928516929091169190911790558015610b02576000805461ff0019169055604051600181527f7f26b83ff96e1f2b6a682f133852f6798a09c465da95921460cefb384740249890602001610e46565b6001600160a01b037f00000000000000000000000000000000000000000000000000000000000000001630036110785760405162461bcd60e51b8152600401610b73906123a9565b7f00000000000000000000000000000000000000000000000000000000000000006001600160a01b03166110c16000805160206125c3833981519152546001600160a01b031690565b6001600160a01b0316146110e75760405162461bcd60e51b8152600401610b73906123f5565b6110f08261171a565b610b8682826001611732565b6000306001600160a01b037f0000000000000000000000000000000000000000000000000000000000000000161461119c5760405162461bcd60e51b815260206004820152603860248201527f555550535570677261646561626c653a206d757374206e6f742062652063616c60448201527f6c6564207468726f7567682064656c656761746563616c6c00000000000000006064820152608401610b73565b506000805160206125c383398151915290565b60006111be4261016354611974565b905090565b60008051602061260a8339815191526111db81611517565b610a7761198d565b600091825260fb602090815260408084206001600160a01b0393909316845291905290205460ff1690565b611216611521565b61121e611567565b33611227611467565b610166556112336111af565b610164556001600160a01b0381161561127e5761124f81610740565b6001600160a01b0382166000908152610169602090815260408083209390935561016654610168909152919020555b6000821161129f5760405163d11b25af60e01b815260040160405180910390fd5b61015f546112b8906001600160a01b03163330856119ca565b3360009081526101676020526040812080548492906112d890849061236f565b925050819055508161016160008282546112f2919061236f565b909155505060408051338152602081018490527f9e71bc8eea02a63969f509818f2dafb9254532904319f9dbda79b67bd34a5f3d9101610a63565b33611336611467565b610166556113426111af565b610164556001600160a01b0381161561138d5761135e81610740565b6001600160a01b0382166000908152610169602090815260408083209390935561016654610168909152919020555b3360009081526101696020526040902054806113bc576040516373380d9960e01b815260040160405180910390fd5b3360008181526101696020526040812055610160546113e7916001600160a01b0390911690836115c2565b60408051338152602081018390527f8a43c4352486ec339f487f64af78ca5cbf06cd47833f073d3baf3a193e503161910160405180910390a15050565b60008051602061260a83398151915261143c81611517565b426101635411156114605760405163715f384360e11b815260040160405180910390fd5b5061016255565b60006101615460000361147c57506101665490565b610161546101645461148c6111af565b6114969190612317565b610165546114a4919061232e565b6114b690670de0b6b3a764000061232e565b6114c0919061234d565b610166546111be919061236f565b600082815260fb60205260409020600101546114e981611517565b610b0283836116b3565b336000908152610167602052604090205461150d90610949565b61151561132d565b565b610a778133611a02565b60975460ff16156115155760405162461bcd60e51b815260206004820152601060248201526f14185d5cd8589b194e881c185d5cd95960821b6044820152606401610b73565b600261012d54036115ba5760405162461bcd60e51b815260206004820152601f60248201527f5265656e7472616e637947756172643a207265656e7472616e742063616c6c006044820152606401610b73565b600261012d55565b6040516001600160a01b038316602482015260448101829052610b0290849063a9059cbb60e01b906064015b60408051601f198184030181529190526020810180516001600160e01b03166001600160e01b031990931692909217909152611a5b565b600161012d55565b61163782826111e3565b610b8657600082815260fb602090815260408083206001600160a01b03851684529091529020805460ff1916600117905561166f3390565b6001600160a01b0316816001600160a01b0316837f2f8788117e7eff1d82e926ec794901d17c78024a50270940304540a733656f0d60405160405180910390a45050565b6116bd82826111e3565b15610b8657600082815260fb602090815260408083206001600160a01b0385168085529252808320805460ff1916905551339285917ff6391f5c32d9c69d2a47ea670b442974b53935d1edc7fd64eb21e047a839171b9190a45050565b60008051602061260a833981519152610b8681611517565b7f4910fdfa16fed3260ed0e7147f7cc6da11a60208b5b9406d12a635614ffd91435460ff161561176557610b0283611b2d565b826001600160a01b03166352d1902d6040518163ffffffff1660e01b8152600401602060405180830381865afa9250505080156117bf575060408051601f3d908101601f191682019092526117bc91810190612441565b60015b6118225760405162461bcd60e51b815260206004820152602e60248201527f45524331393637557067726164653a206e657720696d706c656d656e7461746960448201526d6f6e206973206e6f74205555505360901b6064820152608401610b73565b6000805160206125c383398151915281146118915760405162461bcd60e51b815260206004820152602960248201527f45524331393637557067726164653a20756e737570706f727465642070726f786044820152681a58589b195555525160ba1b6064820152608401610b73565b50610b02838383611bc9565b6118a5611bee565b6097805460ff191690557f5db9ee0a495bf2e6ff9c91a7834c1ba4fdd244a5e8aa4e537bd38aeae4b073aa335b6040516001600160a01b03909116815260200160405180910390a1565b600054610100900460ff166115155760405162461bcd60e51b8152600401610b739061245a565b600054610100900460ff1661193d5760405162461bcd60e51b8152600401610b739061245a565b611515611c37565b600054610100900460ff1661196c5760405162461bcd60e51b8152600401610b739061245a565b611515611c5e565b6000818311156119845781611986565b825b9392505050565b611995611521565b6097805460ff191660011790557f62e78cea01bee320cd4e420270b5ea74000d11b0c9f74754ebdbfc544b05a2586118d23390565b6040516001600160a01b03808516602483015283166044820152606481018290526109439085906323b872dd60e01b906084016115ee565b611a0c82826111e3565b610b8657611a1981611c91565b611a24836020611ca3565b604051602001611a359291906124d1565b60408051601f198184030181529082905262461bcd60e51b8252610b7391600401612546565b6000611ab0826040518060400160405280602081526020017f5361666545524332303a206c6f772d6c6576656c2063616c6c206661696c6564815250856001600160a01b0316611e3f9092919063ffffffff16565b805190915015610b025780806020019051810190611ace9190612387565b610b025760405162461bcd60e51b815260206004820152602a60248201527f5361666545524332303a204552433230206f7065726174696f6e20646964206e6044820152691bdd081cdd58d8d9595960b21b6064820152608401610b73565b6001600160a01b0381163b611b9a5760405162461bcd60e51b815260206004820152602d60248201527f455243313936373a206e657720696d706c656d656e746174696f6e206973206e60448201526c1bdd08184818dbdb9d1c9858dd609a1b6064820152608401610b73565b6000805160206125c383398151915280546001600160a01b0319166001600160a01b0392909216919091179055565b611bd283611e56565b600082511180611bdf5750805b15610b02576109438383611e96565b60975460ff166115155760405162461bcd60e51b815260206004820152601460248201527314185d5cd8589b194e881b9bdd081c185d5cd95960621b6044820152606401610b73565b600054610100900460ff166116255760405162461bcd60e51b8152600401610b739061245a565b600054610100900460ff16611c855760405162461bcd60e51b8152600401610b739061245a565b6097805460ff19169055565b60606107ba6001600160a01b03831660145b60606000611cb283600261232e565b611cbd90600261236f565b67ffffffffffffffff811115611cd557611cd5612229565b6040519080825280601f01601f191660200182016040528015611cff576020820181803683370190505b509050600360fc1b81600081518110611d1a57611d1a612579565b60200101906001600160f81b031916908160001a905350600f60fb1b81600181518110611d4957611d49612579565b60200101906001600160f81b031916908160001a9053506000611d6d84600261232e565b611d7890600161236f565b90505b6001811115611df0576f181899199a1a9b1b9c1cb0b131b232b360811b85600f1660108110611dac57611dac612579565b1a60f81b828281518110611dc257611dc2612579565b60200101906001600160f81b031916908160001a90535060049490941c93611de98161258f565b9050611d7b565b5083156119865760405162461bcd60e51b815260206004820181905260248201527f537472696e67733a20686578206c656e67746820696e73756666696369656e746044820152606401610b73565b6060611e4e8484600085611f8a565b949350505050565b611e5f81611b2d565b6040516001600160a01b038216907fbc7cd75a20ee27fd9adebab32041f755214dbc6bffa90cc0225b39da2e5c2d3b90600090a250565b60606001600160a01b0383163b611efe5760405162461bcd60e51b815260206004820152602660248201527f416464726573733a2064656c65676174652063616c6c20746f206e6f6e2d636f6044820152651b9d1c9858dd60d21b6064820152608401610b73565b600080846001600160a01b031684604051611f1991906125a6565b600060405180830381855af49150503d8060008114611f54576040519150601f19603f3d011682016040523d82523d6000602084013e611f59565b606091505b5091509150611f8182826040518060600160405280602781526020016125e360279139612065565b95945050505050565b606082471015611feb5760405162461bcd60e51b815260206004820152602660248201527f416464726573733a20696e73756666696369656e742062616c616e636520666f6044820152651c8818d85b1b60d21b6064820152608401610b73565b600080866001600160a01b0316858760405161200791906125a6565b60006040518083038185875af1925050503d8060008114612044576040519150601f19603f3d011682016040523d82523d6000602084013e612049565b606091505b509150915061205a8783838761207e565b979650505050505050565b60608315612074575081611986565b61198683836120f3565b606083156120ed5782516000036120e6576001600160a01b0385163b6120e65760405162461bcd60e51b815260206004820152601d60248201527f416464726573733a2063616c6c20746f206e6f6e2d636f6e74726163740000006044820152606401610b73565b5081611e4e565b611e4e83835b8151156121035781518083602001fd5b8060405162461bcd60e51b8152600401610b739190612546565b80356001600160a01b038116811461213457600080fd5b919050565b60006020828403121561214b57600080fd5b6119868261211d565b60006020828403121561216657600080fd5b81356001600160e01b03198116811461198657600080fd5b60006020828403121561219057600080fd5b5035919050565b6000806000606084860312156121ac57600080fd5b6121b58461211d565b92506121c36020850161211d565b9150604084013590509250925092565b600080604083850312156121e657600080fd5b823591506121f66020840161211d565b90509250929050565b6000806040838503121561221257600080fd5b61221b8361211d565b91506121f66020840161211d565b634e487b7160e01b600052604160045260246000fd5b6000806040838503121561225257600080fd5b61225b8361211d565b9150602083013567ffffffffffffffff8082111561227857600080fd5b818501915085601f83011261228c57600080fd5b81358181111561229e5761229e612229565b604051601f8201601f19908116603f011681019083821181831017156122c6576122c6612229565b816040528281528860208487010111156122df57600080fd5b8260208601602083013760006020848301015280955050505050509250929050565b634e487b7160e01b600052601160045260246000fd5b60008282101561232957612329612301565b500390565b600081600019048311821515161561234857612348612301565b500290565b60008261236a57634e487b7160e01b600052601260045260246000fd5b500490565b6000821982111561238257612382612301565b500190565b60006020828403121561239957600080fd5b8151801515811461198657600080fd5b6020808252602c908201527f46756e6374696f6e206d7573742062652063616c6c6564207468726f7567682060408201526b19195b1959d85d1958d85b1b60a21b606082015260800190565b6020808252602c908201527f46756e6374696f6e206d7573742062652063616c6c6564207468726f7567682060408201526b6163746976652070726f787960a01b606082015260800190565b60006020828403121561245357600080fd5b5051919050565b6020808252602b908201527f496e697469616c697a61626c653a20636f6e7472616374206973206e6f74206960408201526a6e697469616c697a696e6760a81b606082015260800190565b60005b838110156124c05781810151838201526020016124a8565b838111156109435750506000910152565b7f416363657373436f6e74726f6c3a206163636f756e74200000000000000000008152600083516125098160178501602088016124a5565b7001034b99036b4b9b9b4b733903937b6329607d1b601791840191820152835161253a8160288401602088016124a5565b01602801949350505050565b60208152600082518060208401526125658160408501602087016124a5565b601f01601f19169190910160400192915050565b634e487b7160e01b600052603260045260246000fd5b60008161259e5761259e612301565b506000190190565b600082516125b88184602087016124a5565b919091019291505056fe360894a13ba1a3210667c828492db98dca3e2076cc3735a920a3ca505d382bbc416464726573733a206c6f772d6c6576656c2064656c65676174652063616c6c206661696c6564a49807205ce4d355092ef5a8a18f56e8913cf4a201fbe287825b095693c21775a264697066735822122080c1a692a115f9d76dff046adb547ee0a7022f2df1b70896f364ed69f3780e3164736f6c634300080f0033",
  "linkReferences": {},
  "deployedLinkReferences": {}
}