{
  "_format": "hh-sol-artifact-1",
  "contractName": "StakingContractV2Test",
  "sourceName": "contracts/helpers/StakingContractV2Test.sol",
  "abi": [
    {
      "inputs": [],
      "name": "AmountCannotBeZero",
      "type": "error"
    },
    {
      "inputs": [],
      "name": "RewardAmountGreaterThanBalance",
      "type": "error"
    },
    {
      "inputs": [],
      "name": "RewardDurationNotFinished",
      "type": "error"
    },
    {
      "inputs": [],
      "name": "RewardRateCannotBeZero",
      "type": "error"
    },
    {
      "anonymous": false,
      "inputs": [
        {
          "indexed": false,
          "internalType": "address",
          "name": "previousAdmin",
          "type": "address"
        },
        {
          "indexed": false,
          "internalType": "address",
          "name": "newAdmin",
          "type": "address"
        }
      ],
      "name": "AdminChanged",
      "type": "event"
    },
    {
      "anonymous": false,
      "inputs": [
        {
          "indexed": true,
          "internalType": "address",
          "name": "beacon",
          "type": "address"
        }
      ],
      "name": "BeaconUpgraded",
      "type": "event"
    },
    {
      "anonymous": false,
      "inputs": [
        {
          "indexed": false,
          "internalType": "uint8",
          "name": "version",
          "type": "uint8"
        }
      ],
      "name": "Initialized",
      "type": "event"
    },
    {
      "anonymous": false,
      "inputs": [
        {
          "indexed": false,
          "internalType": "address",
          "name": "account",
          "type": "address"
        }
      ],
      "name": "Paused",
      "type": "event"
    },
    {
      "anonymous": false,
      "inputs": [
        {
          "indexed": false,
          "internalType": "address",
          "name": "account",
          "type": "address"
        },
        {
          "indexed": false,
          "internalType": "uint256",
          "name": "amount",
          "type": "uint256"
        }
      ],
      "name": "RewardsWithdrawn",
      "type": "event"
    },
    {
      "anonymous": false,
      "inputs": [
        {
          "indexed": true,
          "internalType": "bytes32",
          "name": "role",
          "type": "bytes32"
        },
        {
          "indexed": true,
          "internalType": "bytes32",
          "name": "previousAdminRole",
          "type": "bytes32"
        },
        {
          "indexed": true,
          "internalType": "bytes32",
          "name": "newAdminRole",
          "type": "bytes32"
        }
      ],
      "name": "RoleAdminChanged",
      "type": "event"
    },
    {
      "anonymous": false,
      "inputs": [
        {
          "indexed": true,
          "internalType": "bytes32",
          "name": "role",
          "type": "bytes32"
        },
        {
          "indexed": true,
          "internalType": "address",
          "name": "account",
          "type": "address"
        },
        {
          "indexed": true,
          "internalType": "address",
          "name": "sender",
          "type": "address"
        }
      ],
      "name": "RoleGranted",
      "type": "event"
    },
    {
      "anonymous": false,
      "inputs": [
        {
          "indexed": true,
          "internalType": "bytes32",
          "name": "role",
          "type": "bytes32"
        },
        {
          "indexed": true,
          "internalType": "address",
          "name": "account",
          "type": "address"
        },
        {
          "indexed": true,
          "internalType": "address",
          "name": "sender",
          "type": "address"
        }
      ],
      "name": "RoleRevoked",
      "type": "event"
    },
    {
      "anonymous": false,
      "inputs": [
        {
          "indexed": false,
          "internalType": "address",
          "name": "account",
          "type": "address"
        },
        {
          "indexed": false,
          "internalType": "uint256",
          "name": "amount",
          "type": "uint256"
        }
      ],
      "name": "Staked",
      "type": "event"
    },
    {
      "anonymous": false,
      "inputs": [
        {
          "indexed": false,
          "internalType": "address",
          "name": "account",
          "type": "address"
        }
      ],
      "name": "Unpaused",
      "type": "event"
    },
    {
      "anonymous": false,
      "inputs": [
        {
          "indexed": true,
          "internalType": "address",
          "name": "implementation",
          "type": "address"
        }
      ],
      "name": "Upgraded",
      "type": "event"
    },
    {
      "inputs": [],
      "name": "ADMIN_ROLE",
      "outputs": [
        {
          "internalType": "bytes32",
          "name": "",
          "type": "bytes32"
        }
      ],
      "stateMutability": "view",
      "type": "function"
    },
    {
      "inputs": [],
      "name": "DEFAULT_ADMIN_ROLE",
      "outputs": [
        {
          "internalType": "bytes32",
          "name": "",
          "type": "bytes32"
        }
      ],
      "stateMutability": "view",
      "type": "function"
    },
    {
      "inputs": [
        {
          "internalType": "address",
          "name": "",
          "type": "address"
        }
      ],
      "name": "balanceOf",
      "outputs": [
        {
          "internalType": "uint256",
          "name": "",
          "type": "uint256"
        }
      ],
      "stateMutability": "view",
      "type": "function"
    },
    {
      "inputs": [
        {
          "internalType": "address",
          "name": "_rewardToken",
          "type": "address"
        }
      ],
      "name": "changeRewardToken",
      "outputs": [],
      "stateMutability": "nonpayable",
      "type": "function"
    },
    {
      "inputs": [
        {
          "internalType": "address",
          "name": "_stakingToken",
          "type": "address"
        }
      ],
      "name": "changeStakingToken",
      "outputs": [],
      "stateMutability": "nonpayable",
      "type": "function"
    },
    {
      "inputs": [],
      "name": "duration",
      "outputs": [
        {
          "internalType": "uint256",
          "name": "",
          "type": "uint256"
        }
      ],
      "stateMutability": "view",
      "type": "function"
    },
    {
      "inputs": [
        {
          "internalType": "address",
          "name": "_account",
          "type": "address"
        }
      ],
      "name": "earned",
      "outputs": [
        {
          "internalType": "uint256",
          "name": "",
          "type": "uint256"
        }
      ],
      "stateMutability": "view",
      "type": "function"
    },
    {
      "inputs": [],
      "name": "finishAt",
      "outputs": [
        {
          "internalType": "uint256",
          "name": "",
          "type": "uint256"
        }
      ],
      "stateMutability": "view",
      "type": "function"
    },
    {
      "inputs": [],
      "name": "getReward",
      "outputs": [],
      "stateMutability": "nonpayable",
      "type": "function"
    },
    {
      "inputs": [
        {
          "internalType": "bytes32",
          "name": "role",
          "type": "bytes32"
        }
      ],
      "name": "getRoleAdmin",
      "outputs": [
        {
          "internalType": "bytes32",
          "name": "",
          "type": "bytes32"
        }
      ],
      "stateMutability": "view",
      "type": "function"
    },
    {
      "inputs": [
        {
          "internalType": "bytes32",
          "name": "role",
          "type": "bytes32"
        },
        {
          "internalType": "address",
          "name": "account",
          "type": "address"
        }
      ],
      "name": "grantRole",
      "outputs": [],
      "stateMutability": "nonpayable",
      "type": "function"
    },
    {
      "inputs": [
        {
          "internalType": "bytes32",
          "name": "role",
          "type": "bytes32"
        },
        {
          "internalType": "address",
          "name": "account",
          "type": "address"
        }
      ],
      "name": "hasRole",
      "outputs": [
        {
          "internalType": "bool",
          "name": "",
          "type": "bool"
        }
      ],
      "stateMutability": "view",
      "type": "function"
    },
    {
      "inputs": [
        {
          "internalType": "address",
          "name": "_stakingToken",
          "type": "address"
        },
        {
          "internalType": "address",
          "name": "_rewardToken",
          "type": "address"
        }
      ],
      "name": "initialize",
      "outputs": [],
      "stateMutability": "nonpayable",
      "type": "function"
    },
    {
      "inputs": [],
      "name": "lastTimeRewardApplicable",
      "outputs": [
        {
          "internalType": "uint256",
          "name": "",
          "type": "uint256"
        }
      ],
      "stateMutability": "view",
      "type": "function"
    },
    {
      "inputs": [
        {
          "internalType": "uint256",
          "name": "_amount",
          "type": "uint256"
        }
      ],
      "name": "notifyRewardAmount",
      "outputs": [],
      "stateMutability": "nonpayable",
      "type": "function"
    },
    {
      "inputs": [],
      "name": "pause",
      "outputs": [],
      "stateMutability": "nonpayable",
      "type": "function"
    },
    {
      "inputs": [],
      "name": "paused",
      "outputs": [
        {
          "internalType": "bool",
          "name": "",
          "type": "bool"
        }
      ],
      "stateMutability": "view",
      "type": "function"
    },
    {
      "inputs": [],
      "name": "proxiableUUID",
      "outputs": [
        {
          "internalType": "bytes32",
          "name": "",
          "type": "bytes32"
        }
      ],
      "stateMutability": "view",
      "type": "function"
    },
    {
      "inputs": [
        {
          "internalType": "bytes32",
          "name": "role",
          "type": "bytes32"
        },
        {
          "internalType": "address",
          "name": "account",
          "type": "address"
        }
      ],
      "name": "renounceRole",
      "outputs": [],
      "stateMutability": "nonpayable",
      "type": "function"
    },
    {
      "inputs": [
        {
          "internalType": "bytes32",
          "name": "role",
          "type": "bytes32"
        },
        {
          "internalType": "address",
          "name": "account",
          "type": "address"
        }
      ],
      "name": "revokeRole",
      "outputs": [],
      "stateMutability": "nonpayable",
      "type": "function"
    },
    {
      "inputs": [],
      "name": "rewardPerToken",
      "outputs": [
        {
          "internalType": "uint256",
          "name": "",
          "type": "uint256"
        }
      ],
      "stateMutability": "view",
      "type": "function"
    },
    {
      "inputs": [],
      "name": "rewardPerTokenStored",
      "outputs": [
        {
          "internalType": "uint256",
          "name": "",
          "type": "uint256"
        }
      ],
      "stateMutability": "view",
      "type": "function"
    },
    {
      "inputs": [],
      "name": "rewardRate",
      "outputs": [
        {
          "internalType": "uint256",
          "name": "",
          "type": "uint256"
        }
      ],
      "stateMutability": "view",
      "type": "function"
    },
    {
      "inputs": [],
      "name": "rewardToken",
      "outputs": [
        {
          "internalType": "contract IERC20Upgradeable",
          "name": "",
          "type": "address"
        }
      ],
      "stateMutability": "view",
      "type": "function"
    },
    {
      "inputs": [
        {
          "internalType": "address",
          "name": "",
          "type": "address"
        }
      ],
      "name": "rewards",
      "outputs": [
        {
          "internalType": "uint256",
          "name": "",
          "type": "uint256"
        }
      ],
      "stateMutability": "view",
      "type": "function"
    },
    {
      "inputs": [
        {
          "internalType": "uint256",
          "name": "_finish",
          "type": "uint256"
        }
      ],
      "name": "setFinishAt",
      "outputs": [],
      "stateMutability": "nonpayable",
      "type": "function"
    },
    {
      "inputs": [
        {
          "internalType": "uint256",
          "name": "_rate",
          "type": "uint256"
        }
      ],
      "name": "setRewardRate",
      "outputs": [],
      "stateMutability": "nonpayable",
      "type": "function"
    },
    {
      "inputs": [
        {
          "internalType": "uint256",
          "name": "_duration",
          "type": "uint256"
        }
      ],
      "name": "setRewardsDuration",
      "outputs": [],
      "stateMutability": "nonpayable",
      "type": "function"
    },
    {
      "inputs": [
        {
          "internalType": "uint256",
          "name": "_amount",
          "type": "uint256"
        }
      ],
      "name": "stake",
      "outputs": [],
      "stateMutability": "nonpayable",
      "type": "function"
    },
    {
      "inputs": [],
      "name": "stakingToken",
      "outputs": [
        {
          "internalType": "contract IERC20Upgradeable",
          "name": "",
          "type": "address"
        }
      ],
      "stateMutability": "view",
      "type": "function"
    },
    {
      "inputs": [
        {
          "internalType": "bytes4",
          "name": "interfaceId",
          "type": "bytes4"
        }
      ],
      "name": "supportsInterface",
      "outputs": [
        {
          "internalType": "bool",
          "name": "",
          "type": "bool"
        }
      ],
      "stateMutability": "view",
      "type": "function"
    },
    {
      "inputs": [],
      "name": "testFN",
      "outputs": [
        {
          "internalType": "uint256",
          "name": "",
          "type": "uint256"
        }
      ],
      "stateMutability": "pure",
      "type": "function"
    },
    {
      "inputs": [],
      "name": "totalStaked",
      "outputs": [
        {
          "internalType": "uint256",
          "name": "",
          "type": "uint256"
        }
      ],
      "stateMutability": "view",
      "type": "function"
    },
    {
      "inputs": [
        {
          "internalType": "address",
          "name": "_token",
          "type": "address"
        },
        {
          "internalType": "address",
          "name": "_to",
          "type": "address"
        },
        {
          "internalType": "uint256",
          "name": "_amount",
          "type": "uint256"
        }
      ],
      "name": "transferFromContract",
      "outputs": [],
      "stateMutability": "nonpayable",
      "type": "function"
    },
    {
      "inputs": [],
      "name": "unpause",
      "outputs": [],
      "stateMutability": "nonpayable",
      "type": "function"
    },
    {
      "inputs": [],
      "name": "updatedAt",
      "outputs": [
        {
          "internalType": "uint256",
          "name": "",
          "type": "uint256"
        }
      ],
      "stateMutability": "view",
      "type": "function"
    },
    {
      "inputs": [
        {
          "internalType": "address",
          "name": "newImplementation",
          "type": "address"
        }
      ],
      "name": "upgradeTo",
      "outputs": [],
      "stateMutability": "nonpayable",
      "type": "function"
    },
    {
      "inputs": [
        {
          "internalType": "address",
          "name": "newImplementation",
          "type": "address"
        },
        {
          "internalType": "bytes",
          "name": "data",
          "type": "bytes"
        }
      ],
      "name": "upgradeToAndCall",
      "outputs": [],
      "stateMutability": "payable",
      "type": "function"
    },
    {
      "inputs": [
        {
          "internalType": "address",
          "name": "",
          "type": "address"
        }
      ],
      "name": "userRewardPerTokenPaid",
      "outputs": [
        {
          "internalType": "uint256",
          "name": "",
          "type": "uint256"
        }
      ],
      "stateMutability": "view",
      "type": "function"
    },
    {
      "inputs": [
        {
          "internalType": "uint256",
          "name": "_amount",
          "type": "uint256"
        }
      ],
      "name": "withdraw",
      "outputs": [],
      "stateMutability": "nonpayable",
      "type": "function"
    }
  ],
  "bytecode": "0x60a06040523060805234801561001457600080fd5b5060805161250b61004c60003960008181610ae501528181610b2501528181610ff00152818161103001526110bf015261250b6000f3fe60806040526004361061023a5760003560e01c806367d3b4881161012e57806391d14854116100ab578063cd3daf9d1161006f578063cd3daf9d14610697578063d547741f146106ac578063df136d65146106cc578063e79ad577146106e3578063f7c618c1146106f757600080fd5b806391d14854146106015780639e447fc614610621578063a217fddf14610642578063a694fc3a14610657578063cc1a378f1461067757600080fd5b80637b0a47ee116100f25780637b0a47ee1461057b57806380faa57d14610592578063817b1cd2146105a75780638456cb59146105be5780638b876347146105d357600080fd5b806367d3b488146104c457806370a08231146104db57806372f702f3146105095780637519ab501461054257806375b238fc1461055957600080fd5b80632f2ff15d116101bc5780633f4ba83a116101805780633f4ba83a1461044f578063485cc955146104645780634f1ef2861461048457806352d1902d146104975780635c975abb146104ac57600080fd5b80632f2ff15d146103ba57806336568abe146103da5780633659cfe6146103fa5780633c6b16ab1461041a5780633d18b9121461043a57600080fd5b80630fb5a6b4116102035780630fb5a6b4146103135780632126aa091461032a578063248a9ca31461034a578063285d333b1461037a5780632e1a7d4d1461039a57600080fd5b80628cc2621461023f57806301ffc9a7146102725780630700037d146102a2578063088ab8ce146102d05780630bea6637146102f2575b600080fd5b34801561024b57600080fd5b5061025f61025a366004611fe5565b610718565b6040519081526020015b60405180910390f35b34801561027e57600080fd5b5061029261028d366004612000565b610798565b6040519015158152602001610269565b3480156102ae57600080fd5b5061025f6102bd366004611fe5565b6101696020526000908152604090205481565b3480156102dc57600080fd5b506102f06102eb366004611fe5565b6107cd565b005b3480156102fe57600080fd5b506102f061030d36600461202a565b61016355565b34801561031f57600080fd5b5061025f6101625481565b34801561033657600080fd5b506102f0610345366004612043565b610809565b34801561035657600080fd5b5061025f61036536600461202a565b600090815260fb602052604090206001015490565b34801561038657600080fd5b506102f0610395366004611fe5565b6108fa565b3480156103a657600080fd5b506102f06103b536600461202a565b610936565b3480156103c657600080fd5b506102f06103d536600461207f565b610a2e565b3480156103e657600080fd5b506102f06103f536600461207f565b610a58565b34801561040657600080fd5b506102f0610415366004611fe5565b610adb565b34801561042657600080fd5b506102f061043536600461202a565b610bb7565b34801561044657600080fd5b506102f0610d70565b34801561045b57600080fd5b506102f0610e4f565b34801561047057600080fd5b506102f061047f3660046120ab565b610e6f565b6102f06104923660046120eb565b610fe6565b3480156104a357600080fd5b5061025f6110b2565b3480156104b857600080fd5b5060975460ff16610292565b3480156104d057600080fd5b5061025f6101635481565b3480156104e757600080fd5b5061025f6104f6366004611fe5565b6101676020526000908152604090205481565b34801561051557600080fd5b5061015f5461052a906001600160a01b031681565b6040516001600160a01b039091168152602001610269565b34801561054e57600080fd5b5061025f6101645481565b34801561056557600080fd5b5061025f6000805160206124b683398151915281565b34801561058757600080fd5b5061025f6101655481565b34801561059e57600080fd5b5061025f611165565b3480156105b357600080fd5b5061025f6101615481565b3480156105ca57600080fd5b506102f0611179565b3480156105df57600080fd5b5061025f6105ee366004611fe5565b6101686020526000908152604090205481565b34801561060d57600080fd5b5061029261061c36600461207f565b611199565b34801561062d57600080fd5b506102f061063c36600461202a565b61016555565b34801561064e57600080fd5b5061025f600081565b34801561066357600080fd5b506102f061067236600461202a565b6111c4565b34801561068357600080fd5b506102f061069236600461202a565b6112f2565b3480156106a357600080fd5b5061025f611335565b3480156106b857600080fd5b506102f06106c736600461207f565b61139c565b3480156106d857600080fd5b5061025f6101665481565b3480156106ef57600080fd5b50600d61025f565b34801561070357600080fd5b506101605461052a906001600160a01b031681565b6001600160a01b03811660009081526101696020908152604080832054610168909252822054670de0b6b3a764000090610750611335565b61075a91906121c3565b6001600160a01b0385166000908152610167602052604090205461077e91906121da565b61078891906121f9565b610792919061221b565b92915050565b60006001600160e01b03198216637965db0b60e01b148061079257506301ffc9a760e01b6001600160e01b0319831614610792565b6000805160206124b68339815191526107e5816113c1565b5061016080546001600160a01b0319166001600160a01b0392909216919091179055565b60405163095ea7b360e01b8152306004820152602481018290526001600160a01b0384169063095ea7b3906044016020604051808303816000875af1158015610856573d6000803e3d6000fd5b505050506040513d601f19601f8201168201806040525081019061087a9190612233565b506040516323b872dd60e01b81523060048201526001600160a01b038381166024830152604482018390528416906323b872dd906064016020604051808303816000875af11580156108d0573d6000803e3d6000fd5b505050506040513d601f19601f820116820180604052508101906108f49190612233565b50505050565b6000805160206124b6833981519152610912816113c1565b5061015f80546001600160a01b0319166001600160a01b0392909216919091179055565b61093e6113cb565b610946611413565b3361094f611335565b6101665561095b611165565b610164556001600160a01b038116156109a65761097781610718565b6001600160a01b0382166000908152610169602090815260408083209390935561016654610168909152919020555b600082116109c75760405163d11b25af60e01b815260040160405180910390fd5b3360009081526101676020526040812080548492906109e79084906121c3565b92505081905550816101616000828254610a0191906121c3565b909155505061016054610a1f906001600160a01b031630338561146e565b50610a2b600161012d55565b50565b600082815260fb6020526040902060010154610a49816113c1565b610a5383836114e1565b505050565b6001600160a01b0381163314610acd5760405162461bcd60e51b815260206004820152602f60248201527f416363657373436f6e74726f6c3a2063616e206f6e6c792072656e6f756e636560448201526e103937b632b9903337b91039b2b63360891b60648201526084015b60405180910390fd5b610ad78282611567565b5050565b6001600160a01b037f0000000000000000000000000000000000000000000000000000000000000000163003610b235760405162461bcd60e51b8152600401610ac490612255565b7f00000000000000000000000000000000000000000000000000000000000000006001600160a01b0316610b6c60008051602061246f833981519152546001600160a01b031690565b6001600160a01b031614610b925760405162461bcd60e51b8152600401610ac4906122a1565b610b9b816115ce565b60408051600080825260208201909252610a2b918391906115e6565b6000805160206124b6833981519152610bcf816113c1565b6000610bd9611335565b61016655610be5611165565b610164556001600160a01b03811615610c3057610c0181610718565b6001600160a01b0382166000908152610169602090815260408083209390935561016654610168909152919020555b61016354421115610c525761016254610c4990846121f9565b61016555610c92565b60004261016354610c6391906121c3565b61016554610c7191906121da565b61016254909150610c82858361221b565b610c8c91906121f9565b61016555505b60006101655411610cb657604051637a69ed5160e11b815260040160405180910390fd5b610160546040516370a0823160e01b81523060048201526001600160a01b03909116906370a0823190602401602060405180830381865afa158015610cff573d6000803e3d6000fd5b505050506040513d601f19601f82011682018060405250810190610d2391906122ed565b6101625461016554610d3591906121da565b1115610d54576040516388b88e1160e01b815260040160405180910390fd5b61016254610d62904261221b565b610163555050426101645550565b33610d79611335565b61016655610d85611165565b610164556001600160a01b03811615610dd057610da181610718565b6001600160a01b0382166000908152610169602090815260408083209390935561016654610168909152919020555b33600090815261016960205260409020548015610e1257336000818152610169602052604081205561016054610e12916001600160a01b039091169083611751565b60408051338152602081018390527f8a43c4352486ec339f487f64af78ca5cbf06cd47833f073d3baf3a193e503161910160405180910390a15050565b6000805160206124b6833981519152610e67816113c1565b610a2b611781565b600054610100900460ff1615808015610e8f5750600054600160ff909116105b80610ea95750303b158015610ea9575060005460ff166001145b610f0c5760405162461bcd60e51b815260206004820152602e60248201527f496e697469616c697a61626c653a20636f6e747261637420697320616c72656160448201526d191e481a5b9a5d1a585b1a5e995960921b6064820152608401610ac4565b6000805460ff191660011790558015610f2f576000805461ff0019166101001790555b610f376117d3565b610f3f6117fa565b610f47611829565b610f526000336114e1565b610f6a6000805160206124b6833981519152336114e1565b61015f80546001600160a01b038086166001600160a01b0319928316179092556101608054928516929091169190911790558015610a53576000805461ff0019169055604051600181527f7f26b83ff96e1f2b6a682f133852f6798a09c465da95921460cefb38474024989060200160405180910390a1505050565b6001600160a01b037f000000000000000000000000000000000000000000000000000000000000000016300361102e5760405162461bcd60e51b8152600401610ac490612255565b7f00000000000000000000000000000000000000000000000000000000000000006001600160a01b031661107760008051602061246f833981519152546001600160a01b031690565b6001600160a01b03161461109d5760405162461bcd60e51b8152600401610ac4906122a1565b6110a6826115ce565b610ad7828260016115e6565b6000306001600160a01b037f000000000000000000000000000000000000000000000000000000000000000016146111525760405162461bcd60e51b815260206004820152603860248201527f555550535570677261646561626c653a206d757374206e6f742062652063616c60448201527f6c6564207468726f7567682064656c656761746563616c6c00000000000000006064820152608401610ac4565b5060008051602061246f83398151915290565b60006111744261016354611858565b905090565b6000805160206124b6833981519152611191816113c1565b610a2b611871565b600091825260fb602090815260408084206001600160a01b0393909316845291905290205460ff1690565b6111cc6113cb565b6111d4611413565b336111dd611335565b610166556111e9611165565b610164556001600160a01b038116156112345761120581610718565b6001600160a01b0382166000908152610169602090815260408083209390935561016654610168909152919020555b600082116112555760405163d11b25af60e01b815260040160405180910390fd5b61015f5461126e906001600160a01b031633308561146e565b33600090815261016760205260408120805484929061128e90849061221b565b925050819055508161016160008282546112a8919061221b565b909155505060408051338152602081018490527f9e71bc8eea02a63969f509818f2dafb9254532904319f9dbda79b67bd34a5f3d910160405180910390a150610a2b600161012d55565b6000805160206124b683398151915261130a816113c1565b4261016354111561132e5760405163715f384360e11b815260040160405180910390fd5b5061016255565b60006101615460000361134a57506101665490565b610161546101645461135a611165565b61136491906121c3565b6101655461137291906121da565b61138490670de0b6b3a76400006121da565b61138e91906121f9565b61016654611174919061221b565b600082815260fb60205260409020600101546113b7816113c1565b610a538383611567565b610a2b81336118ae565b60975460ff16156114115760405162461bcd60e51b815260206004820152601060248201526f14185d5cd8589b194e881c185d5cd95960821b6044820152606401610ac4565b565b600261012d54036114665760405162461bcd60e51b815260206004820152601f60248201527f5265656e7472616e637947756172643a207265656e7472616e742063616c6c006044820152606401610ac4565b600261012d55565b6040516001600160a01b03808516602483015283166044820152606481018290526108f49085906323b872dd60e01b906084015b60408051601f198184030181529190526020810180516001600160e01b03166001600160e01b031990931692909217909152611907565b600161012d55565b6114eb8282611199565b610ad757600082815260fb602090815260408083206001600160a01b03851684529091529020805460ff191660011790556115233390565b6001600160a01b0316816001600160a01b0316837f2f8788117e7eff1d82e926ec794901d17c78024a50270940304540a733656f0d60405160405180910390a45050565b6115718282611199565b15610ad757600082815260fb602090815260408083206001600160a01b0385168085529252808320805460ff1916905551339285917ff6391f5c32d9c69d2a47ea670b442974b53935d1edc7fd64eb21e047a839171b9190a45050565b6000805160206124b6833981519152610ad7816113c1565b7f4910fdfa16fed3260ed0e7147f7cc6da11a60208b5b9406d12a635614ffd91435460ff161561161957610a53836119d9565b826001600160a01b03166352d1902d6040518163ffffffff1660e01b8152600401602060405180830381865afa925050508015611673575060408051601f3d908101601f19168201909252611670918101906122ed565b60015b6116d65760405162461bcd60e51b815260206004820152602e60248201527f45524331393637557067726164653a206e657720696d706c656d656e7461746960448201526d6f6e206973206e6f74205555505360901b6064820152608401610ac4565b60008051602061246f83398151915281146117455760405162461bcd60e51b815260206004820152602960248201527f45524331393637557067726164653a20756e737570706f727465642070726f786044820152681a58589b195555525160ba1b6064820152608401610ac4565b50610a53838383611a75565b6040516001600160a01b038316602482015260448101829052610a5390849063a9059cbb60e01b906064016114a2565b611789611a9a565b6097805460ff191690557f5db9ee0a495bf2e6ff9c91a7834c1ba4fdd244a5e8aa4e537bd38aeae4b073aa335b6040516001600160a01b03909116815260200160405180910390a1565b600054610100900460ff166114115760405162461bcd60e51b8152600401610ac490612306565b600054610100900460ff166118215760405162461bcd60e51b8152600401610ac490612306565b611411611ae3565b600054610100900460ff166118505760405162461bcd60e51b8152600401610ac490612306565b611411611b0a565b600081831115611868578161186a565b825b9392505050565b6118796113cb565b6097805460ff191660011790557f62e78cea01bee320cd4e420270b5ea74000d11b0c9f74754ebdbfc544b05a2586117b63390565b6118b88282611199565b610ad7576118c581611b3d565b6118d0836020611b4f565b6040516020016118e192919061237d565b60408051601f198184030181529082905262461bcd60e51b8252610ac4916004016123f2565b600061195c826040518060400160405280602081526020017f5361666545524332303a206c6f772d6c6576656c2063616c6c206661696c6564815250856001600160a01b0316611ceb9092919063ffffffff16565b805190915015610a53578080602001905181019061197a9190612233565b610a535760405162461bcd60e51b815260206004820152602a60248201527f5361666545524332303a204552433230206f7065726174696f6e20646964206e6044820152691bdd081cdd58d8d9595960b21b6064820152608401610ac4565b6001600160a01b0381163b611a465760405162461bcd60e51b815260206004820152602d60248201527f455243313936373a206e657720696d706c656d656e746174696f6e206973206e60448201526c1bdd08184818dbdb9d1c9858dd609a1b6064820152608401610ac4565b60008051602061246f83398151915280546001600160a01b0319166001600160a01b0392909216919091179055565b611a7e83611d02565b600082511180611a8b5750805b15610a53576108f48383611d42565b60975460ff166114115760405162461bcd60e51b815260206004820152601460248201527314185d5cd8589b194e881b9bdd081c185d5cd95960621b6044820152606401610ac4565b600054610100900460ff166114d95760405162461bcd60e51b8152600401610ac490612306565b600054610100900460ff16611b315760405162461bcd60e51b8152600401610ac490612306565b6097805460ff19169055565b60606107926001600160a01b03831660145b60606000611b5e8360026121da565b611b6990600261221b565b67ffffffffffffffff811115611b8157611b816120d5565b6040519080825280601f01601f191660200182016040528015611bab576020820181803683370190505b509050600360fc1b81600081518110611bc657611bc6612425565b60200101906001600160f81b031916908160001a905350600f60fb1b81600181518110611bf557611bf5612425565b60200101906001600160f81b031916908160001a9053506000611c198460026121da565b611c2490600161221b565b90505b6001811115611c9c576f181899199a1a9b1b9c1cb0b131b232b360811b85600f1660108110611c5857611c58612425565b1a60f81b828281518110611c6e57611c6e612425565b60200101906001600160f81b031916908160001a90535060049490941c93611c958161243b565b9050611c27565b50831561186a5760405162461bcd60e51b815260206004820181905260248201527f537472696e67733a20686578206c656e67746820696e73756666696369656e746044820152606401610ac4565b6060611cfa8484600085611e36565b949350505050565b611d0b816119d9565b6040516001600160a01b038216907fbc7cd75a20ee27fd9adebab32041f755214dbc6bffa90cc0225b39da2e5c2d3b90600090a250565b60606001600160a01b0383163b611daa5760405162461bcd60e51b815260206004820152602660248201527f416464726573733a2064656c65676174652063616c6c20746f206e6f6e2d636f6044820152651b9d1c9858dd60d21b6064820152608401610ac4565b600080846001600160a01b031684604051611dc59190612452565b600060405180830381855af49150503d8060008114611e00576040519150601f19603f3d011682016040523d82523d6000602084013e611e05565b606091505b5091509150611e2d828260405180606001604052806027815260200161248f60279139611f11565b95945050505050565b606082471015611e975760405162461bcd60e51b815260206004820152602660248201527f416464726573733a20696e73756666696369656e742062616c616e636520666f6044820152651c8818d85b1b60d21b6064820152608401610ac4565b600080866001600160a01b03168587604051611eb39190612452565b60006040518083038185875af1925050503d8060008114611ef0576040519150601f19603f3d011682016040523d82523d6000602084013e611ef5565b606091505b5091509150611f0687838387611f2a565b979650505050505050565b60608315611f2057508161186a565b61186a8383611f9f565b60608315611f99578251600003611f92576001600160a01b0385163b611f925760405162461bcd60e51b815260206004820152601d60248201527f416464726573733a2063616c6c20746f206e6f6e2d636f6e74726163740000006044820152606401610ac4565b5081611cfa565b611cfa83835b815115611faf5781518083602001fd5b8060405162461bcd60e51b8152600401610ac491906123f2565b80356001600160a01b0381168114611fe057600080fd5b919050565b600060208284031215611ff757600080fd5b61186a82611fc9565b60006020828403121561201257600080fd5b81356001600160e01b03198116811461186a57600080fd5b60006020828403121561203c57600080fd5b5035919050565b60008060006060848603121561205857600080fd5b61206184611fc9565b925061206f60208501611fc9565b9150604084013590509250925092565b6000806040838503121561209257600080fd5b823591506120a260208401611fc9565b90509250929050565b600080604083850312156120be57600080fd5b6120c783611fc9565b91506120a260208401611fc9565b634e487b7160e01b600052604160045260246000fd5b600080604083850312156120fe57600080fd5b61210783611fc9565b9150602083013567ffffffffffffffff8082111561212457600080fd5b818501915085601f83011261213857600080fd5b81358181111561214a5761214a6120d5565b604051601f8201601f19908116603f01168101908382118183101715612172576121726120d5565b8160405282815288602084870101111561218b57600080fd5b8260208601602083013760006020848301015280955050505050509250929050565b634e487b7160e01b600052601160045260246000fd5b6000828210156121d5576121d56121ad565b500390565b60008160001904831182151516156121f4576121f46121ad565b500290565b60008261221657634e487b7160e01b600052601260045260246000fd5b500490565b6000821982111561222e5761222e6121ad565b500190565b60006020828403121561224557600080fd5b8151801515811461186a57600080fd5b6020808252602c908201527f46756e6374696f6e206d7573742062652063616c6c6564207468726f7567682060408201526b19195b1959d85d1958d85b1b60a21b606082015260800190565b6020808252602c908201527f46756e6374696f6e206d7573742062652063616c6c6564207468726f7567682060408201526b6163746976652070726f787960a01b606082015260800190565b6000602082840312156122ff57600080fd5b5051919050565b6020808252602b908201527f496e697469616c697a61626c653a20636f6e7472616374206973206e6f74206960408201526a6e697469616c697a696e6760a81b606082015260800190565b60005b8381101561236c578181015183820152602001612354565b838111156108f45750506000910152565b7f416363657373436f6e74726f6c3a206163636f756e74200000000000000000008152600083516123b5816017850160208801612351565b7001034b99036b4b9b9b4b733903937b6329607d1b60179184019182015283516123e6816028840160208801612351565b01602801949350505050565b6020815260008251806020840152612411816040850160208701612351565b601f01601f19169190910160400192915050565b634e487b7160e01b600052603260045260246000fd5b60008161244a5761244a6121ad565b506000190190565b60008251612464818460208701612351565b919091019291505056fe360894a13ba1a3210667c828492db98dca3e2076cc3735a920a3ca505d382bbc416464726573733a206c6f772d6c6576656c2064656c65676174652063616c6c206661696c6564a49807205ce4d355092ef5a8a18f56e8913cf4a201fbe287825b095693c21775a2646970667358221220bf1adf1fc35f45588284b60ed9df0baee16714493bee19fefc3198131e11333864736f6c634300080f0033",
  "linkReferences": {},
  "deployedLinkReferences": {}
}