{
  "_format": "hh-sol-artifact-1",
  "contractName": "StakingContractV2Test",
  "sourceName": "contracts/helpers/StakingContractV2Test.sol",
  "abi": [
    {
      "inputs": [],
      "name": "AmountCannotBeZero",
      "type": "error"
    },
    {
      "inputs": [],
      "name": "RewardAmountGreaterThanBalance",
      "type": "error"
    },
    {
      "inputs": [],
      "name": "RewardDurationNotFinished",
      "type": "error"
    },
    {
      "inputs": [],
      "name": "RewardRateCannotBeZero",
      "type": "error"
    },
    {
      "anonymous": false,
      "inputs": [
        {
          "indexed": false,
          "internalType": "address",
          "name": "previousAdmin",
          "type": "address"
        },
        {
          "indexed": false,
          "internalType": "address",
          "name": "newAdmin",
          "type": "address"
        }
      ],
      "name": "AdminChanged",
      "type": "event"
    },
    {
      "anonymous": false,
      "inputs": [
        {
          "indexed": true,
          "internalType": "address",
          "name": "beacon",
          "type": "address"
        }
      ],
      "name": "BeaconUpgraded",
      "type": "event"
    },
    {
      "anonymous": false,
      "inputs": [
        {
          "indexed": false,
          "internalType": "uint8",
          "name": "version",
          "type": "uint8"
        }
      ],
      "name": "Initialized",
      "type": "event"
    },
    {
      "anonymous": false,
      "inputs": [
        {
          "indexed": false,
          "internalType": "address",
          "name": "account",
          "type": "address"
        }
      ],
      "name": "Paused",
      "type": "event"
    },
    {
      "anonymous": false,
      "inputs": [
        {
          "indexed": false,
          "internalType": "address",
          "name": "account",
          "type": "address"
        },
        {
          "indexed": false,
          "internalType": "uint256",
          "name": "amount",
          "type": "uint256"
        }
      ],
      "name": "RewardsWithdrawn",
      "type": "event"
    },
    {
      "anonymous": false,
      "inputs": [
        {
          "indexed": true,
          "internalType": "bytes32",
          "name": "role",
          "type": "bytes32"
        },
        {
          "indexed": true,
          "internalType": "bytes32",
          "name": "previousAdminRole",
          "type": "bytes32"
        },
        {
          "indexed": true,
          "internalType": "bytes32",
          "name": "newAdminRole",
          "type": "bytes32"
        }
      ],
      "name": "RoleAdminChanged",
      "type": "event"
    },
    {
      "anonymous": false,
      "inputs": [
        {
          "indexed": true,
          "internalType": "bytes32",
          "name": "role",
          "type": "bytes32"
        },
        {
          "indexed": true,
          "internalType": "address",
          "name": "account",
          "type": "address"
        },
        {
          "indexed": true,
          "internalType": "address",
          "name": "sender",
          "type": "address"
        }
      ],
      "name": "RoleGranted",
      "type": "event"
    },
    {
      "anonymous": false,
      "inputs": [
        {
          "indexed": true,
          "internalType": "bytes32",
          "name": "role",
          "type": "bytes32"
        },
        {
          "indexed": true,
          "internalType": "address",
          "name": "account",
          "type": "address"
        },
        {
          "indexed": true,
          "internalType": "address",
          "name": "sender",
          "type": "address"
        }
      ],
      "name": "RoleRevoked",
      "type": "event"
    },
    {
      "anonymous": false,
      "inputs": [
        {
          "indexed": false,
          "internalType": "address",
          "name": "account",
          "type": "address"
        },
        {
          "indexed": false,
          "internalType": "uint256",
          "name": "amount",
          "type": "uint256"
        }
      ],
      "name": "Staked",
      "type": "event"
    },
    {
      "anonymous": false,
      "inputs": [
        {
          "indexed": false,
          "internalType": "address",
          "name": "account",
          "type": "address"
        }
      ],
      "name": "Unpaused",
      "type": "event"
    },
    {
      "anonymous": false,
      "inputs": [
        {
          "indexed": true,
          "internalType": "address",
          "name": "implementation",
          "type": "address"
        }
      ],
      "name": "Upgraded",
      "type": "event"
    },
    {
      "inputs": [],
      "name": "ADMIN_ROLE",
      "outputs": [
        {
          "internalType": "bytes32",
          "name": "",
          "type": "bytes32"
        }
      ],
      "stateMutability": "view",
      "type": "function"
    },
    {
      "inputs": [],
      "name": "DEFAULT_ADMIN_ROLE",
      "outputs": [
        {
          "internalType": "bytes32",
          "name": "",
          "type": "bytes32"
        }
      ],
      "stateMutability": "view",
      "type": "function"
    },
    {
      "inputs": [
        {
          "internalType": "address",
          "name": "",
          "type": "address"
        }
      ],
      "name": "balanceOf",
      "outputs": [
        {
          "internalType": "uint256",
          "name": "",
          "type": "uint256"
        }
      ],
      "stateMutability": "view",
      "type": "function"
    },
    {
      "inputs": [
        {
          "internalType": "address",
          "name": "_rewardToken",
          "type": "address"
        }
      ],
      "name": "changeRewardToken",
      "outputs": [],
      "stateMutability": "nonpayable",
      "type": "function"
    },
    {
      "inputs": [
        {
          "internalType": "address",
          "name": "_stakingToken",
          "type": "address"
        }
      ],
      "name": "changeStakingToken",
      "outputs": [],
      "stateMutability": "nonpayable",
      "type": "function"
    },
    {
      "inputs": [],
      "name": "duration",
      "outputs": [
        {
          "internalType": "uint256",
          "name": "",
          "type": "uint256"
        }
      ],
      "stateMutability": "view",
      "type": "function"
    },
    {
      "inputs": [
        {
          "internalType": "address",
          "name": "_account",
          "type": "address"
        }
      ],
      "name": "earned",
      "outputs": [
        {
          "internalType": "uint256",
          "name": "",
          "type": "uint256"
        }
      ],
      "stateMutability": "view",
      "type": "function"
    },
    {
      "inputs": [],
      "name": "finishAt",
      "outputs": [
        {
          "internalType": "uint256",
          "name": "",
          "type": "uint256"
        }
      ],
      "stateMutability": "view",
      "type": "function"
    },
    {
      "inputs": [],
      "name": "getReward",
      "outputs": [],
      "stateMutability": "nonpayable",
      "type": "function"
    },
    {
      "inputs": [
        {
          "internalType": "bytes32",
          "name": "role",
          "type": "bytes32"
        }
      ],
      "name": "getRoleAdmin",
      "outputs": [
        {
          "internalType": "bytes32",
          "name": "",
          "type": "bytes32"
        }
      ],
      "stateMutability": "view",
      "type": "function"
    },
    {
      "inputs": [
        {
          "internalType": "bytes32",
          "name": "role",
          "type": "bytes32"
        },
        {
          "internalType": "address",
          "name": "account",
          "type": "address"
        }
      ],
      "name": "grantRole",
      "outputs": [],
      "stateMutability": "nonpayable",
      "type": "function"
    },
    {
      "inputs": [
        {
          "internalType": "bytes32",
          "name": "role",
          "type": "bytes32"
        },
        {
          "internalType": "address",
          "name": "account",
          "type": "address"
        }
      ],
      "name": "hasRole",
      "outputs": [
        {
          "internalType": "bool",
          "name": "",
          "type": "bool"
        }
      ],
      "stateMutability": "view",
      "type": "function"
    },
    {
      "inputs": [
        {
          "internalType": "address",
          "name": "_stakingToken",
          "type": "address"
        },
        {
          "internalType": "address",
          "name": "_rewardToken",
          "type": "address"
        }
      ],
      "name": "initialize",
      "outputs": [],
      "stateMutability": "nonpayable",
      "type": "function"
    },
    {
      "inputs": [],
      "name": "lastTimeRewardApplicable",
      "outputs": [
        {
          "internalType": "uint256",
          "name": "",
          "type": "uint256"
        }
      ],
      "stateMutability": "view",
      "type": "function"
    },
    {
      "inputs": [
        {
          "internalType": "uint256",
          "name": "_amount",
          "type": "uint256"
        }
      ],
      "name": "notifyRewardAmount",
      "outputs": [],
      "stateMutability": "nonpayable",
      "type": "function"
    },
    {
      "inputs": [],
      "name": "owner",
      "outputs": [
        {
          "internalType": "address",
          "name": "",
          "type": "address"
        }
      ],
      "stateMutability": "view",
      "type": "function"
    },
    {
      "inputs": [],
      "name": "pause",
      "outputs": [],
      "stateMutability": "nonpayable",
      "type": "function"
    },
    {
      "inputs": [],
      "name": "paused",
      "outputs": [
        {
          "internalType": "bool",
          "name": "",
          "type": "bool"
        }
      ],
      "stateMutability": "view",
      "type": "function"
    },
    {
      "inputs": [],
      "name": "proxiableUUID",
      "outputs": [
        {
          "internalType": "bytes32",
          "name": "",
          "type": "bytes32"
        }
      ],
      "stateMutability": "view",
      "type": "function"
    },
    {
      "inputs": [
        {
          "internalType": "bytes32",
          "name": "role",
          "type": "bytes32"
        },
        {
          "internalType": "address",
          "name": "account",
          "type": "address"
        }
      ],
      "name": "renounceRole",
      "outputs": [],
      "stateMutability": "nonpayable",
      "type": "function"
    },
    {
      "inputs": [
        {
          "internalType": "bytes32",
          "name": "role",
          "type": "bytes32"
        },
        {
          "internalType": "address",
          "name": "account",
          "type": "address"
        }
      ],
      "name": "revokeRole",
      "outputs": [],
      "stateMutability": "nonpayable",
      "type": "function"
    },
    {
      "inputs": [],
      "name": "rewardPerToken",
      "outputs": [
        {
          "internalType": "uint256",
          "name": "",
          "type": "uint256"
        }
      ],
      "stateMutability": "view",
      "type": "function"
    },
    {
      "inputs": [],
      "name": "rewardPerTokenStored",
      "outputs": [
        {
          "internalType": "uint256",
          "name": "",
          "type": "uint256"
        }
      ],
      "stateMutability": "view",
      "type": "function"
    },
    {
      "inputs": [],
      "name": "rewardRate",
      "outputs": [
        {
          "internalType": "uint256",
          "name": "",
          "type": "uint256"
        }
      ],
      "stateMutability": "view",
      "type": "function"
    },
    {
      "inputs": [],
      "name": "rewardToken",
      "outputs": [
        {
          "internalType": "contract IERC20Upgradeable",
          "name": "",
          "type": "address"
        }
      ],
      "stateMutability": "view",
      "type": "function"
    },
    {
      "inputs": [
        {
          "internalType": "address",
          "name": "",
          "type": "address"
        }
      ],
      "name": "rewards",
      "outputs": [
        {
          "internalType": "uint256",
          "name": "",
          "type": "uint256"
        }
      ],
      "stateMutability": "view",
      "type": "function"
    },
    {
      "inputs": [
        {
          "internalType": "uint256",
          "name": "_duration",
          "type": "uint256"
        }
      ],
      "name": "setRewardsDuration",
      "outputs": [],
      "stateMutability": "nonpayable",
      "type": "function"
    },
    {
      "inputs": [
        {
          "internalType": "uint256",
          "name": "_amount",
          "type": "uint256"
        }
      ],
      "name": "stake",
      "outputs": [],
      "stateMutability": "nonpayable",
      "type": "function"
    },
    {
      "inputs": [],
      "name": "stakingToken",
      "outputs": [
        {
          "internalType": "contract IERC20Upgradeable",
          "name": "",
          "type": "address"
        }
      ],
      "stateMutability": "view",
      "type": "function"
    },
    {
      "inputs": [
        {
          "internalType": "bytes4",
          "name": "interfaceId",
          "type": "bytes4"
        }
      ],
      "name": "supportsInterface",
      "outputs": [
        {
          "internalType": "bool",
          "name": "",
          "type": "bool"
        }
      ],
      "stateMutability": "view",
      "type": "function"
    },
    {
      "inputs": [],
      "name": "testFN",
      "outputs": [
        {
          "internalType": "uint256",
          "name": "",
          "type": "uint256"
        }
      ],
      "stateMutability": "view",
      "type": "function"
    },
    {
      "inputs": [],
      "name": "totalStaked",
      "outputs": [
        {
          "internalType": "uint256",
          "name": "",
          "type": "uint256"
        }
      ],
      "stateMutability": "view",
      "type": "function"
    },
    {
      "inputs": [],
      "name": "unpause",
      "outputs": [],
      "stateMutability": "nonpayable",
      "type": "function"
    },
    {
      "inputs": [],
      "name": "updatedAt",
      "outputs": [
        {
          "internalType": "uint256",
          "name": "",
          "type": "uint256"
        }
      ],
      "stateMutability": "view",
      "type": "function"
    },
    {
      "inputs": [
        {
          "internalType": "address",
          "name": "newImplementation",
          "type": "address"
        }
      ],
      "name": "upgradeTo",
      "outputs": [],
      "stateMutability": "nonpayable",
      "type": "function"
    },
    {
      "inputs": [
        {
          "internalType": "address",
          "name": "newImplementation",
          "type": "address"
        },
        {
          "internalType": "bytes",
          "name": "data",
          "type": "bytes"
        }
      ],
      "name": "upgradeToAndCall",
      "outputs": [],
      "stateMutability": "payable",
      "type": "function"
    },
    {
      "inputs": [
        {
          "internalType": "address",
          "name": "",
          "type": "address"
        }
      ],
      "name": "userRewardPerTokenPaid",
      "outputs": [
        {
          "internalType": "uint256",
          "name": "",
          "type": "uint256"
        }
      ],
      "stateMutability": "view",
      "type": "function"
    },
    {
      "inputs": [
        {
          "internalType": "uint256",
          "name": "_amount",
          "type": "uint256"
        }
      ],
      "name": "withdraw",
      "outputs": [],
      "stateMutability": "nonpayable",
      "type": "function"
    }
  ],
  "bytecode": "0x60a06040523060805234801561001457600080fd5b5060805161238d61004c6000396000818161099d015281816109dd01528181610ea801528181610ee80152610f77015261238d6000f3fe6080604052600436106102245760003560e01c806370a08231116101235780638da5cb5b116100ab578063cd3daf9d1161006f578063cd3daf9d14610640578063d547741f14610655578063df136d6514610675578063e79ad5771461068c578063f7c618c1146106a057600080fd5b80638da5cb5b146105aa57806391d14854146105cb578063a217fddf146105eb578063a694fc3a14610600578063cc1a378f1461062057600080fd5b80637b0a47ee116100f25780637b0a47ee1461052457806380faa57d1461053b578063817b1cd2146105505780638456cb59146105675780638b8763471461057c57600080fd5b806370a082311461048457806372f702f3146104b25780637519ab50146104eb57806375b238fc1461050257600080fd5b806336568abe116101b1578063485cc95511610175578063485cc9551461040d5780634f1ef2861461042d57806352d1902d146104405780635c975abb1461045557806367d3b4881461046d57600080fd5b806336568abe146103835780633659cfe6146103a35780633c6b16ab146103c35780633d18b912146103e35780633f4ba83a146103f857600080fd5b80630fb5a6b4116101f85780630fb5a6b4146102dc578063248a9ca3146102f3578063285d333b146103235780632e1a7d4d146103435780632f2ff15d1461036357600080fd5b80628cc2621461022957806301ffc9a71461025c5780630700037d1461028c578063088ab8ce146102ba575b600080fd5b34801561023557600080fd5b50610249610244366004611ea3565b6106c1565b6040519081526020015b60405180910390f35b34801561026857600080fd5b5061027c610277366004611ebe565b610741565b6040519015158152602001610253565b34801561029857600080fd5b506102496102a7366004611ea3565b61016a6020526000908152604090205481565b3480156102c657600080fd5b506102da6102d5366004611ea3565b610776565b005b3480156102e857600080fd5b506102496101635481565b3480156102ff57600080fd5b5061024961030e366004611ee8565b600090815260fb602052604090206001015490565b34801561032f57600080fd5b506102da61033e366004611ea3565b6107b2565b34801561034f57600080fd5b506102da61035e366004611ee8565b6107ee565b34801561036f57600080fd5b506102da61037e366004611f01565b6108e6565b34801561038f57600080fd5b506102da61039e366004611f01565b610910565b3480156103af57600080fd5b506102da6103be366004611ea3565b610993565b3480156103cf57600080fd5b506102da6103de366004611ee8565b610a6f565b3480156103ef57600080fd5b506102da610c28565b34801561040457600080fd5b506102da610d07565b34801561041957600080fd5b506102da610428366004611f2d565b610d27565b6102da61043b366004611f6d565b610e9e565b34801561044c57600080fd5b50610249610f6a565b34801561046157600080fd5b5060975460ff1661027c565b34801561047957600080fd5b506102496101645481565b34801561049057600080fd5b5061024961049f366004611ea3565b6101686020526000908152604090205481565b3480156104be57600080fd5b5061015f546104d3906001600160a01b031681565b6040516001600160a01b039091168152602001610253565b3480156104f757600080fd5b506102496101655481565b34801561050e57600080fd5b5061024960008051602061233883398151915281565b34801561053057600080fd5b506102496101665481565b34801561054757600080fd5b5061024961101d565b34801561055c57600080fd5b506102496101625481565b34801561057357600080fd5b506102da611031565b34801561058857600080fd5b50610249610597366004611ea3565b6101696020526000908152604090205481565b3480156105b657600080fd5b50610161546104d3906001600160a01b031681565b3480156105d757600080fd5b5061027c6105e6366004611f01565b611051565b3480156105f757600080fd5b50610249600081565b34801561060c57600080fd5b506102da61061b366004611ee8565b61107c565b34801561062c57600080fd5b506102da61063b366004611ee8565b6111aa565b34801561064c57600080fd5b506102496111ed565b34801561066157600080fd5b506102da610670366004611f01565b611254565b34801561068157600080fd5b506102496101675481565b34801561069857600080fd5b50600d610249565b3480156106ac57600080fd5b50610160546104d3906001600160a01b031681565b6001600160a01b038116600090815261016a6020908152604080832054610169909252822054670de0b6b3a7640000906106f96111ed565b6107039190612045565b6001600160a01b03851660009081526101686020526040902054610727919061205c565b610731919061207b565b61073b919061209d565b92915050565b60006001600160e01b03198216637965db0b60e01b148061073b57506301ffc9a760e01b6001600160e01b031983161461073b565b60008051602061233883398151915261078e81611279565b5061016080546001600160a01b0319166001600160a01b0392909216919091179055565b6000805160206123388339815191526107ca81611279565b5061015f80546001600160a01b0319166001600160a01b0392909216919091179055565b6107f6611283565b6107fe6112cb565b336108076111ed565b6101675561081361101d565b610165556001600160a01b0381161561085e5761082f816106c1565b6001600160a01b038216600090815261016a602090815260408083209390935561016754610169909152919020555b6000821161087f5760405163d11b25af60e01b815260040160405180910390fd5b33600090815261016860205260408120805484929061089f908490612045565b925050819055508161016260008282546108b99190612045565b9091555050610160546108d7906001600160a01b0316303385611326565b506108e3600161012d55565b50565b600082815260fb602052604090206001015461090181611279565b61090b838361139f565b505050565b6001600160a01b03811633146109855760405162461bcd60e51b815260206004820152602f60248201527f416363657373436f6e74726f6c3a2063616e206f6e6c792072656e6f756e636560448201526e103937b632b9903337b91039b2b63360891b60648201526084015b60405180910390fd5b61098f8282611425565b5050565b6001600160a01b037f00000000000000000000000000000000000000000000000000000000000000001630036109db5760405162461bcd60e51b815260040161097c906120b5565b7f00000000000000000000000000000000000000000000000000000000000000006001600160a01b0316610a246000805160206122f1833981519152546001600160a01b031690565b6001600160a01b031614610a4a5760405162461bcd60e51b815260040161097c90612101565b610a538161148c565b604080516000808252602082019092526108e3918391906114a4565b600080516020612338833981519152610a8781611279565b6000610a916111ed565b61016755610a9d61101d565b610165556001600160a01b03811615610ae857610ab9816106c1565b6001600160a01b038216600090815261016a602090815260408083209390935561016754610169909152919020555b61016454421115610b0a5761016354610b01908461207b565b61016655610b4a565b60004261016454610b1b9190612045565b61016654610b29919061205c565b61016354909150610b3a858361209d565b610b44919061207b565b61016655505b60006101665411610b6e57604051637a69ed5160e11b815260040160405180910390fd5b610160546040516370a0823160e01b81523060048201526001600160a01b03909116906370a0823190602401602060405180830381865afa158015610bb7573d6000803e3d6000fd5b505050506040513d601f19601f82011682018060405250810190610bdb919061214d565b6101635461016654610bed919061205c565b1115610c0c576040516388b88e1160e01b815260040160405180910390fd5b61016354610c1a904261209d565b610164555050426101655550565b33610c316111ed565b61016755610c3d61101d565b610165556001600160a01b03811615610c8857610c59816106c1565b6001600160a01b038216600090815261016a602090815260408083209390935561016754610169909152919020555b33600090815261016a60205260409020548015610cca5733600081815261016a602052604081205561016054610cca916001600160a01b03909116908361160f565b60408051338152602081018390527f8a43c4352486ec339f487f64af78ca5cbf06cd47833f073d3baf3a193e503161910160405180910390a15050565b600080516020612338833981519152610d1f81611279565b6108e361163f565b600054610100900460ff1615808015610d475750600054600160ff909116105b80610d615750303b158015610d61575060005460ff166001145b610dc45760405162461bcd60e51b815260206004820152602e60248201527f496e697469616c697a61626c653a20636f6e747261637420697320616c72656160448201526d191e481a5b9a5d1a585b1a5e995960921b606482015260840161097c565b6000805460ff191660011790558015610de7576000805461ff0019166101001790555b610def611691565b610df76116b8565b610dff6116e7565b610e0a60003361139f565b610e226000805160206123388339815191523361139f565b61015f80546001600160a01b038086166001600160a01b031992831617909255610160805492851692909116919091179055801561090b576000805461ff0019169055604051600181527f7f26b83ff96e1f2b6a682f133852f6798a09c465da95921460cefb38474024989060200160405180910390a1505050565b6001600160a01b037f0000000000000000000000000000000000000000000000000000000000000000163003610ee65760405162461bcd60e51b815260040161097c906120b5565b7f00000000000000000000000000000000000000000000000000000000000000006001600160a01b0316610f2f6000805160206122f1833981519152546001600160a01b031690565b6001600160a01b031614610f555760405162461bcd60e51b815260040161097c90612101565b610f5e8261148c565b61098f828260016114a4565b6000306001600160a01b037f0000000000000000000000000000000000000000000000000000000000000000161461100a5760405162461bcd60e51b815260206004820152603860248201527f555550535570677261646561626c653a206d757374206e6f742062652063616c60448201527f6c6564207468726f7567682064656c656761746563616c6c0000000000000000606482015260840161097c565b506000805160206122f183398151915290565b600061102c4261016454611716565b905090565b60008051602061233883398151915261104981611279565b6108e361172f565b600091825260fb602090815260408084206001600160a01b0393909316845291905290205460ff1690565b611084611283565b61108c6112cb565b336110956111ed565b610167556110a161101d565b610165556001600160a01b038116156110ec576110bd816106c1565b6001600160a01b038216600090815261016a602090815260408083209390935561016754610169909152919020555b6000821161110d5760405163d11b25af60e01b815260040160405180910390fd5b61015f54611126906001600160a01b0316333085611326565b33600090815261016860205260408120805484929061114690849061209d565b92505081905550816101626000828254611160919061209d565b909155505060408051338152602081018490527f9e71bc8eea02a63969f509818f2dafb9254532904319f9dbda79b67bd34a5f3d910160405180910390a1506108e3600161012d55565b6000805160206123388339815191526111c281611279565b426101645411156111e65760405163715f384360e11b815260040160405180910390fd5b5061016355565b60006101625460000361120257506101675490565b610162546101655461121261101d565b61121c9190612045565b6101665461122a919061205c565b61123c90670de0b6b3a764000061205c565b611246919061207b565b6101675461102c919061209d565b600082815260fb602052604090206001015461126f81611279565b61090b8383611425565b6108e3813361176c565b60975460ff16156112c95760405162461bcd60e51b815260206004820152601060248201526f14185d5cd8589b194e881c185d5cd95960821b604482015260640161097c565b565b600261012d540361131e5760405162461bcd60e51b815260206004820152601f60248201527f5265656e7472616e637947756172643a207265656e7472616e742063616c6c00604482015260640161097c565b600261012d55565b6040516001600160a01b03808516602483015283166044820152606481018290526113919085906323b872dd60e01b906084015b60408051601f198184030181529190526020810180516001600160e01b03166001600160e01b0319909316929092179091526117c5565b50505050565b600161012d55565b6113a98282611051565b61098f57600082815260fb602090815260408083206001600160a01b03851684529091529020805460ff191660011790556113e13390565b6001600160a01b0316816001600160a01b0316837f2f8788117e7eff1d82e926ec794901d17c78024a50270940304540a733656f0d60405160405180910390a45050565b61142f8282611051565b1561098f57600082815260fb602090815260408083206001600160a01b0385168085529252808320805460ff1916905551339285917ff6391f5c32d9c69d2a47ea670b442974b53935d1edc7fd64eb21e047a839171b9190a45050565b60008051602061233883398151915261098f81611279565b7f4910fdfa16fed3260ed0e7147f7cc6da11a60208b5b9406d12a635614ffd91435460ff16156114d75761090b83611897565b826001600160a01b03166352d1902d6040518163ffffffff1660e01b8152600401602060405180830381865afa925050508015611531575060408051601f3d908101601f1916820190925261152e9181019061214d565b60015b6115945760405162461bcd60e51b815260206004820152602e60248201527f45524331393637557067726164653a206e657720696d706c656d656e7461746960448201526d6f6e206973206e6f74205555505360901b606482015260840161097c565b6000805160206122f183398151915281146116035760405162461bcd60e51b815260206004820152602960248201527f45524331393637557067726164653a20756e737570706f727465642070726f786044820152681a58589b195555525160ba1b606482015260840161097c565b5061090b838383611933565b6040516001600160a01b03831660248201526044810182905261090b90849063a9059cbb60e01b9060640161135a565b611647611958565b6097805460ff191690557f5db9ee0a495bf2e6ff9c91a7834c1ba4fdd244a5e8aa4e537bd38aeae4b073aa335b6040516001600160a01b03909116815260200160405180910390a1565b600054610100900460ff166112c95760405162461bcd60e51b815260040161097c90612166565b600054610100900460ff166116df5760405162461bcd60e51b815260040161097c90612166565b6112c96119a1565b600054610100900460ff1661170e5760405162461bcd60e51b815260040161097c90612166565b6112c96119c8565b6000818311156117265781611728565b825b9392505050565b611737611283565b6097805460ff191660011790557f62e78cea01bee320cd4e420270b5ea74000d11b0c9f74754ebdbfc544b05a2586116743390565b6117768282611051565b61098f57611783816119fb565b61178e836020611a0d565b60405160200161179f9291906121dd565b60408051601f198184030181529082905262461bcd60e51b825261097c91600401612252565b600061181a826040518060400160405280602081526020017f5361666545524332303a206c6f772d6c6576656c2063616c6c206661696c6564815250856001600160a01b0316611ba99092919063ffffffff16565b80519091501561090b57808060200190518101906118389190612285565b61090b5760405162461bcd60e51b815260206004820152602a60248201527f5361666545524332303a204552433230206f7065726174696f6e20646964206e6044820152691bdd081cdd58d8d9595960b21b606482015260840161097c565b6001600160a01b0381163b6119045760405162461bcd60e51b815260206004820152602d60248201527f455243313936373a206e657720696d706c656d656e746174696f6e206973206e60448201526c1bdd08184818dbdb9d1c9858dd609a1b606482015260840161097c565b6000805160206122f183398151915280546001600160a01b0319166001600160a01b0392909216919091179055565b61193c83611bc0565b6000825111806119495750805b1561090b576113918383611c00565b60975460ff166112c95760405162461bcd60e51b815260206004820152601460248201527314185d5cd8589b194e881b9bdd081c185d5cd95960621b604482015260640161097c565b600054610100900460ff166113975760405162461bcd60e51b815260040161097c90612166565b600054610100900460ff166119ef5760405162461bcd60e51b815260040161097c90612166565b6097805460ff19169055565b606061073b6001600160a01b03831660145b60606000611a1c83600261205c565b611a2790600261209d565b67ffffffffffffffff811115611a3f57611a3f611f57565b6040519080825280601f01601f191660200182016040528015611a69576020820181803683370190505b509050600360fc1b81600081518110611a8457611a846122a7565b60200101906001600160f81b031916908160001a905350600f60fb1b81600181518110611ab357611ab36122a7565b60200101906001600160f81b031916908160001a9053506000611ad784600261205c565b611ae290600161209d565b90505b6001811115611b5a576f181899199a1a9b1b9c1cb0b131b232b360811b85600f1660108110611b1657611b166122a7565b1a60f81b828281518110611b2c57611b2c6122a7565b60200101906001600160f81b031916908160001a90535060049490941c93611b53816122bd565b9050611ae5565b5083156117285760405162461bcd60e51b815260206004820181905260248201527f537472696e67733a20686578206c656e67746820696e73756666696369656e74604482015260640161097c565b6060611bb88484600085611cf4565b949350505050565b611bc981611897565b6040516001600160a01b038216907fbc7cd75a20ee27fd9adebab32041f755214dbc6bffa90cc0225b39da2e5c2d3b90600090a250565b60606001600160a01b0383163b611c685760405162461bcd60e51b815260206004820152602660248201527f416464726573733a2064656c65676174652063616c6c20746f206e6f6e2d636f6044820152651b9d1c9858dd60d21b606482015260840161097c565b600080846001600160a01b031684604051611c8391906122d4565b600060405180830381855af49150503d8060008114611cbe576040519150601f19603f3d011682016040523d82523d6000602084013e611cc3565b606091505b5091509150611ceb828260405180606001604052806027815260200161231160279139611dcf565b95945050505050565b606082471015611d555760405162461bcd60e51b815260206004820152602660248201527f416464726573733a20696e73756666696369656e742062616c616e636520666f6044820152651c8818d85b1b60d21b606482015260840161097c565b600080866001600160a01b03168587604051611d7191906122d4565b60006040518083038185875af1925050503d8060008114611dae576040519150601f19603f3d011682016040523d82523d6000602084013e611db3565b606091505b5091509150611dc487838387611de8565b979650505050505050565b60608315611dde575081611728565b6117288383611e5d565b60608315611e57578251600003611e50576001600160a01b0385163b611e505760405162461bcd60e51b815260206004820152601d60248201527f416464726573733a2063616c6c20746f206e6f6e2d636f6e7472616374000000604482015260640161097c565b5081611bb8565b611bb883835b815115611e6d5781518083602001fd5b8060405162461bcd60e51b815260040161097c9190612252565b80356001600160a01b0381168114611e9e57600080fd5b919050565b600060208284031215611eb557600080fd5b61172882611e87565b600060208284031215611ed057600080fd5b81356001600160e01b03198116811461172857600080fd5b600060208284031215611efa57600080fd5b5035919050565b60008060408385031215611f1457600080fd5b82359150611f2460208401611e87565b90509250929050565b60008060408385031215611f4057600080fd5b611f4983611e87565b9150611f2460208401611e87565b634e487b7160e01b600052604160045260246000fd5b60008060408385031215611f8057600080fd5b611f8983611e87565b9150602083013567ffffffffffffffff80821115611fa657600080fd5b818501915085601f830112611fba57600080fd5b813581811115611fcc57611fcc611f57565b604051601f8201601f19908116603f01168101908382118183101715611ff457611ff4611f57565b8160405282815288602084870101111561200d57600080fd5b8260208601602083013760006020848301015280955050505050509250929050565b634e487b7160e01b600052601160045260246000fd5b6000828210156120575761205761202f565b500390565b60008160001904831182151516156120765761207661202f565b500290565b60008261209857634e487b7160e01b600052601260045260246000fd5b500490565b600082198211156120b0576120b061202f565b500190565b6020808252602c908201527f46756e6374696f6e206d7573742062652063616c6c6564207468726f7567682060408201526b19195b1959d85d1958d85b1b60a21b606082015260800190565b6020808252602c908201527f46756e6374696f6e206d7573742062652063616c6c6564207468726f7567682060408201526b6163746976652070726f787960a01b606082015260800190565b60006020828403121561215f57600080fd5b5051919050565b6020808252602b908201527f496e697469616c697a61626c653a20636f6e7472616374206973206e6f74206960408201526a6e697469616c697a696e6760a81b606082015260800190565b60005b838110156121cc5781810151838201526020016121b4565b838111156113915750506000910152565b7f416363657373436f6e74726f6c3a206163636f756e74200000000000000000008152600083516122158160178501602088016121b1565b7001034b99036b4b9b9b4b733903937b6329607d1b60179184019182015283516122468160288401602088016121b1565b01602801949350505050565b60208152600082518060208401526122718160408501602087016121b1565b601f01601f19169190910160400192915050565b60006020828403121561229757600080fd5b8151801515811461172857600080fd5b634e487b7160e01b600052603260045260246000fd5b6000816122cc576122cc61202f565b506000190190565b600082516122e68184602087016121b1565b919091019291505056fe360894a13ba1a3210667c828492db98dca3e2076cc3735a920a3ca505d382bbc416464726573733a206c6f772d6c6576656c2064656c65676174652063616c6c206661696c6564a49807205ce4d355092ef5a8a18f56e8913cf4a201fbe287825b095693c21775a264697066735822122098e61b5974a97020d2e73fb568b349fad3c435f752a21a0d1007eeeb207b446864736f6c634300080f0033",
  "linkReferences": {},
  "deployedLinkReferences": {}
}