{
  "_format": "hh-sol-artifact-1",
  "contractName": "StakingContractV2Test",
  "sourceName": "contracts/helpers/StakingContractV2Test.sol",
  "abi": [
    {
      "inputs": [],
      "name": "AmountCannotBeZero",
      "type": "error"
    },
    {
      "inputs": [],
      "name": "RewardAmountGreaterThanBalance",
      "type": "error"
    },
    {
      "inputs": [],
      "name": "RewardDurationNotFinished",
      "type": "error"
    },
    {
      "inputs": [],
      "name": "RewardRateCannotBeZero",
      "type": "error"
    },
    {
      "anonymous": false,
      "inputs": [
        {
          "indexed": false,
          "internalType": "address",
          "name": "previousAdmin",
          "type": "address"
        },
        {
          "indexed": false,
          "internalType": "address",
          "name": "newAdmin",
          "type": "address"
        }
      ],
      "name": "AdminChanged",
      "type": "event"
    },
    {
      "anonymous": false,
      "inputs": [
        {
          "indexed": true,
          "internalType": "address",
          "name": "beacon",
          "type": "address"
        }
      ],
      "name": "BeaconUpgraded",
      "type": "event"
    },
    {
      "anonymous": false,
      "inputs": [
        {
          "indexed": false,
          "internalType": "uint8",
          "name": "version",
          "type": "uint8"
        }
      ],
      "name": "Initialized",
      "type": "event"
    },
    {
      "anonymous": false,
      "inputs": [
        {
          "indexed": false,
          "internalType": "address",
          "name": "account",
          "type": "address"
        }
      ],
      "name": "Paused",
      "type": "event"
    },
    {
      "anonymous": false,
      "inputs": [
        {
          "indexed": false,
          "internalType": "address",
          "name": "account",
          "type": "address"
        },
        {
          "indexed": false,
          "internalType": "uint256",
          "name": "amount",
          "type": "uint256"
        }
      ],
      "name": "RewardsWithdrawn",
      "type": "event"
    },
    {
      "anonymous": false,
      "inputs": [
        {
          "indexed": true,
          "internalType": "bytes32",
          "name": "role",
          "type": "bytes32"
        },
        {
          "indexed": true,
          "internalType": "bytes32",
          "name": "previousAdminRole",
          "type": "bytes32"
        },
        {
          "indexed": true,
          "internalType": "bytes32",
          "name": "newAdminRole",
          "type": "bytes32"
        }
      ],
      "name": "RoleAdminChanged",
      "type": "event"
    },
    {
      "anonymous": false,
      "inputs": [
        {
          "indexed": true,
          "internalType": "bytes32",
          "name": "role",
          "type": "bytes32"
        },
        {
          "indexed": true,
          "internalType": "address",
          "name": "account",
          "type": "address"
        },
        {
          "indexed": true,
          "internalType": "address",
          "name": "sender",
          "type": "address"
        }
      ],
      "name": "RoleGranted",
      "type": "event"
    },
    {
      "anonymous": false,
      "inputs": [
        {
          "indexed": true,
          "internalType": "bytes32",
          "name": "role",
          "type": "bytes32"
        },
        {
          "indexed": true,
          "internalType": "address",
          "name": "account",
          "type": "address"
        },
        {
          "indexed": true,
          "internalType": "address",
          "name": "sender",
          "type": "address"
        }
      ],
      "name": "RoleRevoked",
      "type": "event"
    },
    {
      "anonymous": false,
      "inputs": [
        {
          "indexed": false,
          "internalType": "address",
          "name": "account",
          "type": "address"
        },
        {
          "indexed": false,
          "internalType": "uint256",
          "name": "amount",
          "type": "uint256"
        }
      ],
      "name": "Staked",
      "type": "event"
    },
    {
      "anonymous": false,
      "inputs": [
        {
          "indexed": false,
          "internalType": "address",
          "name": "account",
          "type": "address"
        }
      ],
      "name": "Unpaused",
      "type": "event"
    },
    {
      "anonymous": false,
      "inputs": [
        {
          "indexed": true,
          "internalType": "address",
          "name": "implementation",
          "type": "address"
        }
      ],
      "name": "Upgraded",
      "type": "event"
    },
    {
      "inputs": [],
      "name": "ADMIN_ROLE",
      "outputs": [
        {
          "internalType": "bytes32",
          "name": "",
          "type": "bytes32"
        }
      ],
      "stateMutability": "view",
      "type": "function"
    },
    {
      "inputs": [],
      "name": "DEFAULT_ADMIN_ROLE",
      "outputs": [
        {
          "internalType": "bytes32",
          "name": "",
          "type": "bytes32"
        }
      ],
      "stateMutability": "view",
      "type": "function"
    },
    {
      "inputs": [
        {
          "internalType": "address",
          "name": "",
          "type": "address"
        }
      ],
      "name": "balanceOf",
      "outputs": [
        {
          "internalType": "uint256",
          "name": "",
          "type": "uint256"
        }
      ],
      "stateMutability": "view",
      "type": "function"
    },
    {
      "inputs": [
        {
          "internalType": "address",
          "name": "_rewardToken",
          "type": "address"
        }
      ],
      "name": "changeRewardToken",
      "outputs": [],
      "stateMutability": "nonpayable",
      "type": "function"
    },
    {
      "inputs": [
        {
          "internalType": "address",
          "name": "_stakingToken",
          "type": "address"
        }
      ],
      "name": "changeStakingToken",
      "outputs": [],
      "stateMutability": "nonpayable",
      "type": "function"
    },
    {
      "inputs": [],
      "name": "duration",
      "outputs": [
        {
          "internalType": "uint256",
          "name": "",
          "type": "uint256"
        }
      ],
      "stateMutability": "view",
      "type": "function"
    },
    {
      "inputs": [
        {
          "internalType": "address",
          "name": "_account",
          "type": "address"
        }
      ],
      "name": "earned",
      "outputs": [
        {
          "internalType": "uint256",
          "name": "",
          "type": "uint256"
        }
      ],
      "stateMutability": "view",
      "type": "function"
    },
    {
      "inputs": [],
      "name": "finishAt",
      "outputs": [
        {
          "internalType": "uint256",
          "name": "",
          "type": "uint256"
        }
      ],
      "stateMutability": "view",
      "type": "function"
    },
    {
      "inputs": [],
      "name": "getReward",
      "outputs": [],
      "stateMutability": "nonpayable",
      "type": "function"
    },
    {
      "inputs": [
        {
          "internalType": "bytes32",
          "name": "role",
          "type": "bytes32"
        }
      ],
      "name": "getRoleAdmin",
      "outputs": [
        {
          "internalType": "bytes32",
          "name": "",
          "type": "bytes32"
        }
      ],
      "stateMutability": "view",
      "type": "function"
    },
    {
      "inputs": [
        {
          "internalType": "bytes32",
          "name": "role",
          "type": "bytes32"
        },
        {
          "internalType": "address",
          "name": "account",
          "type": "address"
        }
      ],
      "name": "grantRole",
      "outputs": [],
      "stateMutability": "nonpayable",
      "type": "function"
    },
    {
      "inputs": [
        {
          "internalType": "bytes32",
          "name": "role",
          "type": "bytes32"
        },
        {
          "internalType": "address",
          "name": "account",
          "type": "address"
        }
      ],
      "name": "hasRole",
      "outputs": [
        {
          "internalType": "bool",
          "name": "",
          "type": "bool"
        }
      ],
      "stateMutability": "view",
      "type": "function"
    },
    {
      "inputs": [
        {
          "internalType": "address",
          "name": "_stakingToken",
          "type": "address"
        },
        {
          "internalType": "address",
          "name": "_rewardToken",
          "type": "address"
        }
      ],
      "name": "initialize",
      "outputs": [],
      "stateMutability": "nonpayable",
      "type": "function"
    },
    {
      "inputs": [],
      "name": "lastTimeRewardApplicable",
      "outputs": [
        {
          "internalType": "uint256",
          "name": "",
          "type": "uint256"
        }
      ],
      "stateMutability": "view",
      "type": "function"
    },
    {
      "inputs": [
        {
          "internalType": "uint256",
          "name": "_amount",
          "type": "uint256"
        }
      ],
      "name": "notifyRewardAmount",
      "outputs": [],
      "stateMutability": "nonpayable",
      "type": "function"
    },
    {
      "inputs": [],
      "name": "pause",
      "outputs": [],
      "stateMutability": "nonpayable",
      "type": "function"
    },
    {
      "inputs": [],
      "name": "paused",
      "outputs": [
        {
          "internalType": "bool",
          "name": "",
          "type": "bool"
        }
      ],
      "stateMutability": "view",
      "type": "function"
    },
    {
      "inputs": [],
      "name": "proxiableUUID",
      "outputs": [
        {
          "internalType": "bytes32",
          "name": "",
          "type": "bytes32"
        }
      ],
      "stateMutability": "view",
      "type": "function"
    },
    {
      "inputs": [
        {
          "internalType": "bytes32",
          "name": "role",
          "type": "bytes32"
        },
        {
          "internalType": "address",
          "name": "account",
          "type": "address"
        }
      ],
      "name": "renounceRole",
      "outputs": [],
      "stateMutability": "nonpayable",
      "type": "function"
    },
    {
      "inputs": [
        {
          "internalType": "bytes32",
          "name": "role",
          "type": "bytes32"
        },
        {
          "internalType": "address",
          "name": "account",
          "type": "address"
        }
      ],
      "name": "revokeRole",
      "outputs": [],
      "stateMutability": "nonpayable",
      "type": "function"
    },
    {
      "inputs": [],
      "name": "rewardPerToken",
      "outputs": [
        {
          "internalType": "uint256",
          "name": "",
          "type": "uint256"
        }
      ],
      "stateMutability": "view",
      "type": "function"
    },
    {
      "inputs": [],
      "name": "rewardPerTokenStored",
      "outputs": [
        {
          "internalType": "uint256",
          "name": "",
          "type": "uint256"
        }
      ],
      "stateMutability": "view",
      "type": "function"
    },
    {
      "inputs": [],
      "name": "rewardRate",
      "outputs": [
        {
          "internalType": "uint256",
          "name": "",
          "type": "uint256"
        }
      ],
      "stateMutability": "view",
      "type": "function"
    },
    {
      "inputs": [],
      "name": "rewardToken",
      "outputs": [
        {
          "internalType": "contract IERC20Upgradeable",
          "name": "",
          "type": "address"
        }
      ],
      "stateMutability": "view",
      "type": "function"
    },
    {
      "inputs": [
        {
          "internalType": "address",
          "name": "",
          "type": "address"
        }
      ],
      "name": "rewards",
      "outputs": [
        {
          "internalType": "uint256",
          "name": "",
          "type": "uint256"
        }
      ],
      "stateMutability": "view",
      "type": "function"
    },
    {
      "inputs": [
        {
          "internalType": "uint256",
          "name": "_duration",
          "type": "uint256"
        }
      ],
      "name": "setRewardsDuration",
      "outputs": [],
      "stateMutability": "nonpayable",
      "type": "function"
    },
    {
      "inputs": [
        {
          "internalType": "uint256",
          "name": "_amount",
          "type": "uint256"
        }
      ],
      "name": "stake",
      "outputs": [],
      "stateMutability": "nonpayable",
      "type": "function"
    },
    {
      "inputs": [],
      "name": "stakingToken",
      "outputs": [
        {
          "internalType": "contract IERC20Upgradeable",
          "name": "",
          "type": "address"
        }
      ],
      "stateMutability": "view",
      "type": "function"
    },
    {
      "inputs": [
        {
          "internalType": "bytes4",
          "name": "interfaceId",
          "type": "bytes4"
        }
      ],
      "name": "supportsInterface",
      "outputs": [
        {
          "internalType": "bool",
          "name": "",
          "type": "bool"
        }
      ],
      "stateMutability": "view",
      "type": "function"
    },
    {
      "inputs": [],
      "name": "testFN",
      "outputs": [
        {
          "internalType": "uint256",
          "name": "",
          "type": "uint256"
        }
      ],
      "stateMutability": "pure",
      "type": "function"
    },
    {
      "inputs": [],
      "name": "totalStaked",
      "outputs": [
        {
          "internalType": "uint256",
          "name": "",
          "type": "uint256"
        }
      ],
      "stateMutability": "view",
      "type": "function"
    },
    {
      "inputs": [],
      "name": "unpause",
      "outputs": [],
      "stateMutability": "nonpayable",
      "type": "function"
    },
    {
      "inputs": [],
      "name": "updatedAt",
      "outputs": [
        {
          "internalType": "uint256",
          "name": "",
          "type": "uint256"
        }
      ],
      "stateMutability": "view",
      "type": "function"
    },
    {
      "inputs": [
        {
          "internalType": "address",
          "name": "newImplementation",
          "type": "address"
        }
      ],
      "name": "upgradeTo",
      "outputs": [],
      "stateMutability": "nonpayable",
      "type": "function"
    },
    {
      "inputs": [
        {
          "internalType": "address",
          "name": "newImplementation",
          "type": "address"
        },
        {
          "internalType": "bytes",
          "name": "data",
          "type": "bytes"
        }
      ],
      "name": "upgradeToAndCall",
      "outputs": [],
      "stateMutability": "payable",
      "type": "function"
    },
    {
      "inputs": [
        {
          "internalType": "address",
          "name": "",
          "type": "address"
        }
      ],
      "name": "userRewardPerTokenPaid",
      "outputs": [
        {
          "internalType": "uint256",
          "name": "",
          "type": "uint256"
        }
      ],
      "stateMutability": "view",
      "type": "function"
    },
    {
      "inputs": [
        {
          "internalType": "uint256",
          "name": "_amount",
          "type": "uint256"
        }
      ],
      "name": "withdraw",
      "outputs": [],
      "stateMutability": "nonpayable",
      "type": "function"
    }
  ],
  "bytecode": "0x60a06040523060805234801561001457600080fd5b5060805161236161004c60003960008181610971015281816109b101528181610e7c01528181610ebc0152610f4b01526123616000f3fe6080604052600436106102195760003560e01c806367d3b488116101235780638b876347116100ab578063cd3daf9d1161006f578063cd3daf9d14610614578063d547741f14610629578063df136d6514610649578063e79ad57714610660578063f7c618c11461067457600080fd5b80638b8763471461057157806391d148541461059f578063a217fddf146105bf578063a694fc3a146105d4578063cc1a378f146105f457600080fd5b806375b238fc116100f257806375b238fc146104f75780637b0a47ee1461051957806380faa57d14610530578063817b1cd2146105455780638456cb591461055c57600080fd5b806367d3b4881461046257806370a082311461047957806372f702f3146104a75780637519ab50146104e057600080fd5b806336568abe116101a65780633f4ba83a116101755780633f4ba83a146103ed578063485cc955146104025780634f1ef2861461042257806352d1902d146104355780635c975abb1461044a57600080fd5b806336568abe146103785780633659cfe6146103985780633c6b16ab146103b85780633d18b912146103d857600080fd5b80630fb5a6b4116101ed5780630fb5a6b4146102d1578063248a9ca3146102e8578063285d333b146103185780632e1a7d4d146103385780632f2ff15d1461035857600080fd5b80628cc2621461021e57806301ffc9a7146102515780630700037d14610281578063088ab8ce146102af575b600080fd5b34801561022a57600080fd5b5061023e610239366004611e77565b610695565b6040519081526020015b60405180910390f35b34801561025d57600080fd5b5061027161026c366004611e92565b610715565b6040519015158152602001610248565b34801561028d57600080fd5b5061023e61029c366004611e77565b6101696020526000908152604090205481565b3480156102bb57600080fd5b506102cf6102ca366004611e77565b61074a565b005b3480156102dd57600080fd5b5061023e6101625481565b3480156102f457600080fd5b5061023e610303366004611ebc565b600090815260fb602052604090206001015490565b34801561032457600080fd5b506102cf610333366004611e77565b610786565b34801561034457600080fd5b506102cf610353366004611ebc565b6107c2565b34801561036457600080fd5b506102cf610373366004611ed5565b6108ba565b34801561038457600080fd5b506102cf610393366004611ed5565b6108e4565b3480156103a457600080fd5b506102cf6103b3366004611e77565b610967565b3480156103c457600080fd5b506102cf6103d3366004611ebc565b610a43565b3480156103e457600080fd5b506102cf610bfc565b3480156103f957600080fd5b506102cf610cdb565b34801561040e57600080fd5b506102cf61041d366004611f01565b610cfb565b6102cf610430366004611f41565b610e72565b34801561044157600080fd5b5061023e610f3e565b34801561045657600080fd5b5060975460ff16610271565b34801561046e57600080fd5b5061023e6101635481565b34801561048557600080fd5b5061023e610494366004611e77565b6101676020526000908152604090205481565b3480156104b357600080fd5b5061015f546104c8906001600160a01b031681565b6040516001600160a01b039091168152602001610248565b3480156104ec57600080fd5b5061023e6101645481565b34801561050357600080fd5b5061023e60008051602061230c83398151915281565b34801561052557600080fd5b5061023e6101655481565b34801561053c57600080fd5b5061023e610ff1565b34801561055157600080fd5b5061023e6101615481565b34801561056857600080fd5b506102cf611005565b34801561057d57600080fd5b5061023e61058c366004611e77565b6101686020526000908152604090205481565b3480156105ab57600080fd5b506102716105ba366004611ed5565b611025565b3480156105cb57600080fd5b5061023e600081565b3480156105e057600080fd5b506102cf6105ef366004611ebc565b611050565b34801561060057600080fd5b506102cf61060f366004611ebc565b61117e565b34801561062057600080fd5b5061023e6111c1565b34801561063557600080fd5b506102cf610644366004611ed5565b611228565b34801561065557600080fd5b5061023e6101665481565b34801561066c57600080fd5b50600d61023e565b34801561068057600080fd5b50610160546104c8906001600160a01b031681565b6001600160a01b03811660009081526101696020908152604080832054610168909252822054670de0b6b3a7640000906106cd6111c1565b6106d79190612019565b6001600160a01b038516600090815261016760205260409020546106fb9190612030565b610705919061204f565b61070f9190612071565b92915050565b60006001600160e01b03198216637965db0b60e01b148061070f57506301ffc9a760e01b6001600160e01b031983161461070f565b60008051602061230c8339815191526107628161124d565b5061016080546001600160a01b0319166001600160a01b0392909216919091179055565b60008051602061230c83398151915261079e8161124d565b5061015f80546001600160a01b0319166001600160a01b0392909216919091179055565b6107ca611257565b6107d261129f565b336107db6111c1565b610166556107e7610ff1565b610164556001600160a01b038116156108325761080381610695565b6001600160a01b0382166000908152610169602090815260408083209390935561016654610168909152919020555b600082116108535760405163d11b25af60e01b815260040160405180910390fd5b336000908152610167602052604081208054849290610873908490612019565b9250508190555081610161600082825461088d9190612019565b9091555050610160546108ab906001600160a01b03163033856112fa565b506108b7600161012d55565b50565b600082815260fb60205260409020600101546108d58161124d565b6108df8383611373565b505050565b6001600160a01b03811633146109595760405162461bcd60e51b815260206004820152602f60248201527f416363657373436f6e74726f6c3a2063616e206f6e6c792072656e6f756e636560448201526e103937b632b9903337b91039b2b63360891b60648201526084015b60405180910390fd5b61096382826113f9565b5050565b6001600160a01b037f00000000000000000000000000000000000000000000000000000000000000001630036109af5760405162461bcd60e51b815260040161095090612089565b7f00000000000000000000000000000000000000000000000000000000000000006001600160a01b03166109f86000805160206122c5833981519152546001600160a01b031690565b6001600160a01b031614610a1e5760405162461bcd60e51b8152600401610950906120d5565b610a2781611460565b604080516000808252602082019092526108b791839190611478565b60008051602061230c833981519152610a5b8161124d565b6000610a656111c1565b61016655610a71610ff1565b610164556001600160a01b03811615610abc57610a8d81610695565b6001600160a01b0382166000908152610169602090815260408083209390935561016654610168909152919020555b61016354421115610ade5761016254610ad5908461204f565b61016555610b1e565b60004261016354610aef9190612019565b61016554610afd9190612030565b61016254909150610b0e8583612071565b610b18919061204f565b61016555505b60006101655411610b4257604051637a69ed5160e11b815260040160405180910390fd5b610160546040516370a0823160e01b81523060048201526001600160a01b03909116906370a0823190602401602060405180830381865afa158015610b8b573d6000803e3d6000fd5b505050506040513d601f19601f82011682018060405250810190610baf9190612121565b6101625461016554610bc19190612030565b1115610be0576040516388b88e1160e01b815260040160405180910390fd5b61016254610bee9042612071565b610163555050426101645550565b33610c056111c1565b61016655610c11610ff1565b610164556001600160a01b03811615610c5c57610c2d81610695565b6001600160a01b0382166000908152610169602090815260408083209390935561016654610168909152919020555b33600090815261016960205260409020548015610c9e57336000818152610169602052604081205561016054610c9e916001600160a01b0390911690836115e3565b60408051338152602081018390527f8a43c4352486ec339f487f64af78ca5cbf06cd47833f073d3baf3a193e503161910160405180910390a15050565b60008051602061230c833981519152610cf38161124d565b6108b7611613565b600054610100900460ff1615808015610d1b5750600054600160ff909116105b80610d355750303b158015610d35575060005460ff166001145b610d985760405162461bcd60e51b815260206004820152602e60248201527f496e697469616c697a61626c653a20636f6e747261637420697320616c72656160448201526d191e481a5b9a5d1a585b1a5e995960921b6064820152608401610950565b6000805460ff191660011790558015610dbb576000805461ff0019166101001790555b610dc3611665565b610dcb61168c565b610dd36116bb565b610dde600033611373565b610df660008051602061230c83398151915233611373565b61015f80546001600160a01b038086166001600160a01b03199283161790925561016080549285169290911691909117905580156108df576000805461ff0019169055604051600181527f7f26b83ff96e1f2b6a682f133852f6798a09c465da95921460cefb38474024989060200160405180910390a1505050565b6001600160a01b037f0000000000000000000000000000000000000000000000000000000000000000163003610eba5760405162461bcd60e51b815260040161095090612089565b7f00000000000000000000000000000000000000000000000000000000000000006001600160a01b0316610f036000805160206122c5833981519152546001600160a01b031690565b6001600160a01b031614610f295760405162461bcd60e51b8152600401610950906120d5565b610f3282611460565b61096382826001611478565b6000306001600160a01b037f00000000000000000000000000000000000000000000000000000000000000001614610fde5760405162461bcd60e51b815260206004820152603860248201527f555550535570677261646561626c653a206d757374206e6f742062652063616c60448201527f6c6564207468726f7567682064656c656761746563616c6c00000000000000006064820152608401610950565b506000805160206122c583398151915290565b600061100042610163546116ea565b905090565b60008051602061230c83398151915261101d8161124d565b6108b7611703565b600091825260fb602090815260408084206001600160a01b0393909316845291905290205460ff1690565b611058611257565b61106061129f565b336110696111c1565b61016655611075610ff1565b610164556001600160a01b038116156110c05761109181610695565b6001600160a01b0382166000908152610169602090815260408083209390935561016654610168909152919020555b600082116110e15760405163d11b25af60e01b815260040160405180910390fd5b61015f546110fa906001600160a01b03163330856112fa565b33600090815261016760205260408120805484929061111a908490612071565b925050819055508161016160008282546111349190612071565b909155505060408051338152602081018490527f9e71bc8eea02a63969f509818f2dafb9254532904319f9dbda79b67bd34a5f3d910160405180910390a1506108b7600161012d55565b60008051602061230c8339815191526111968161124d565b426101635411156111ba5760405163715f384360e11b815260040160405180910390fd5b5061016255565b6000610161546000036111d657506101665490565b61016154610164546111e6610ff1565b6111f09190612019565b610165546111fe9190612030565b61121090670de0b6b3a7640000612030565b61121a919061204f565b610166546110009190612071565b600082815260fb60205260409020600101546112438161124d565b6108df83836113f9565b6108b78133611740565b60975460ff161561129d5760405162461bcd60e51b815260206004820152601060248201526f14185d5cd8589b194e881c185d5cd95960821b6044820152606401610950565b565b600261012d54036112f25760405162461bcd60e51b815260206004820152601f60248201527f5265656e7472616e637947756172643a207265656e7472616e742063616c6c006044820152606401610950565b600261012d55565b6040516001600160a01b03808516602483015283166044820152606481018290526113659085906323b872dd60e01b906084015b60408051601f198184030181529190526020810180516001600160e01b03166001600160e01b031990931692909217909152611799565b50505050565b600161012d55565b61137d8282611025565b61096357600082815260fb602090815260408083206001600160a01b03851684529091529020805460ff191660011790556113b53390565b6001600160a01b0316816001600160a01b0316837f2f8788117e7eff1d82e926ec794901d17c78024a50270940304540a733656f0d60405160405180910390a45050565b6114038282611025565b1561096357600082815260fb602090815260408083206001600160a01b0385168085529252808320805460ff1916905551339285917ff6391f5c32d9c69d2a47ea670b442974b53935d1edc7fd64eb21e047a839171b9190a45050565b60008051602061230c8339815191526109638161124d565b7f4910fdfa16fed3260ed0e7147f7cc6da11a60208b5b9406d12a635614ffd91435460ff16156114ab576108df8361186b565b826001600160a01b03166352d1902d6040518163ffffffff1660e01b8152600401602060405180830381865afa925050508015611505575060408051601f3d908101601f1916820190925261150291810190612121565b60015b6115685760405162461bcd60e51b815260206004820152602e60248201527f45524331393637557067726164653a206e657720696d706c656d656e7461746960448201526d6f6e206973206e6f74205555505360901b6064820152608401610950565b6000805160206122c583398151915281146115d75760405162461bcd60e51b815260206004820152602960248201527f45524331393637557067726164653a20756e737570706f727465642070726f786044820152681a58589b195555525160ba1b6064820152608401610950565b506108df838383611907565b6040516001600160a01b0383166024820152604481018290526108df90849063a9059cbb60e01b9060640161132e565b61161b61192c565b6097805460ff191690557f5db9ee0a495bf2e6ff9c91a7834c1ba4fdd244a5e8aa4e537bd38aeae4b073aa335b6040516001600160a01b03909116815260200160405180910390a1565b600054610100900460ff1661129d5760405162461bcd60e51b81526004016109509061213a565b600054610100900460ff166116b35760405162461bcd60e51b81526004016109509061213a565b61129d611975565b600054610100900460ff166116e25760405162461bcd60e51b81526004016109509061213a565b61129d61199c565b6000818311156116fa57816116fc565b825b9392505050565b61170b611257565b6097805460ff191660011790557f62e78cea01bee320cd4e420270b5ea74000d11b0c9f74754ebdbfc544b05a2586116483390565b61174a8282611025565b61096357611757816119cf565b6117628360206119e1565b6040516020016117739291906121b1565b60408051601f198184030181529082905262461bcd60e51b825261095091600401612226565b60006117ee826040518060400160405280602081526020017f5361666545524332303a206c6f772d6c6576656c2063616c6c206661696c6564815250856001600160a01b0316611b7d9092919063ffffffff16565b8051909150156108df578080602001905181019061180c9190612259565b6108df5760405162461bcd60e51b815260206004820152602a60248201527f5361666545524332303a204552433230206f7065726174696f6e20646964206e6044820152691bdd081cdd58d8d9595960b21b6064820152608401610950565b6001600160a01b0381163b6118d85760405162461bcd60e51b815260206004820152602d60248201527f455243313936373a206e657720696d706c656d656e746174696f6e206973206e60448201526c1bdd08184818dbdb9d1c9858dd609a1b6064820152608401610950565b6000805160206122c583398151915280546001600160a01b0319166001600160a01b0392909216919091179055565b61191083611b94565b60008251118061191d5750805b156108df576113658383611bd4565b60975460ff1661129d5760405162461bcd60e51b815260206004820152601460248201527314185d5cd8589b194e881b9bdd081c185d5cd95960621b6044820152606401610950565b600054610100900460ff1661136b5760405162461bcd60e51b81526004016109509061213a565b600054610100900460ff166119c35760405162461bcd60e51b81526004016109509061213a565b6097805460ff19169055565b606061070f6001600160a01b03831660145b606060006119f0836002612030565b6119fb906002612071565b67ffffffffffffffff811115611a1357611a13611f2b565b6040519080825280601f01601f191660200182016040528015611a3d576020820181803683370190505b509050600360fc1b81600081518110611a5857611a5861227b565b60200101906001600160f81b031916908160001a905350600f60fb1b81600181518110611a8757611a8761227b565b60200101906001600160f81b031916908160001a9053506000611aab846002612030565b611ab6906001612071565b90505b6001811115611b2e576f181899199a1a9b1b9c1cb0b131b232b360811b85600f1660108110611aea57611aea61227b565b1a60f81b828281518110611b0057611b0061227b565b60200101906001600160f81b031916908160001a90535060049490941c93611b2781612291565b9050611ab9565b5083156116fc5760405162461bcd60e51b815260206004820181905260248201527f537472696e67733a20686578206c656e67746820696e73756666696369656e746044820152606401610950565b6060611b8c8484600085611cc8565b949350505050565b611b9d8161186b565b6040516001600160a01b038216907fbc7cd75a20ee27fd9adebab32041f755214dbc6bffa90cc0225b39da2e5c2d3b90600090a250565b60606001600160a01b0383163b611c3c5760405162461bcd60e51b815260206004820152602660248201527f416464726573733a2064656c65676174652063616c6c20746f206e6f6e2d636f6044820152651b9d1c9858dd60d21b6064820152608401610950565b600080846001600160a01b031684604051611c5791906122a8565b600060405180830381855af49150503d8060008114611c92576040519150601f19603f3d011682016040523d82523d6000602084013e611c97565b606091505b5091509150611cbf82826040518060600160405280602781526020016122e560279139611da3565b95945050505050565b606082471015611d295760405162461bcd60e51b815260206004820152602660248201527f416464726573733a20696e73756666696369656e742062616c616e636520666f6044820152651c8818d85b1b60d21b6064820152608401610950565b600080866001600160a01b03168587604051611d4591906122a8565b60006040518083038185875af1925050503d8060008114611d82576040519150601f19603f3d011682016040523d82523d6000602084013e611d87565b606091505b5091509150611d9887838387611dbc565b979650505050505050565b60608315611db25750816116fc565b6116fc8383611e31565b60608315611e2b578251600003611e24576001600160a01b0385163b611e245760405162461bcd60e51b815260206004820152601d60248201527f416464726573733a2063616c6c20746f206e6f6e2d636f6e74726163740000006044820152606401610950565b5081611b8c565b611b8c83835b815115611e415781518083602001fd5b8060405162461bcd60e51b81526004016109509190612226565b80356001600160a01b0381168114611e7257600080fd5b919050565b600060208284031215611e8957600080fd5b6116fc82611e5b565b600060208284031215611ea457600080fd5b81356001600160e01b0319811681146116fc57600080fd5b600060208284031215611ece57600080fd5b5035919050565b60008060408385031215611ee857600080fd5b82359150611ef860208401611e5b565b90509250929050565b60008060408385031215611f1457600080fd5b611f1d83611e5b565b9150611ef860208401611e5b565b634e487b7160e01b600052604160045260246000fd5b60008060408385031215611f5457600080fd5b611f5d83611e5b565b9150602083013567ffffffffffffffff80821115611f7a57600080fd5b818501915085601f830112611f8e57600080fd5b813581811115611fa057611fa0611f2b565b604051601f8201601f19908116603f01168101908382118183101715611fc857611fc8611f2b565b81604052828152886020848701011115611fe157600080fd5b8260208601602083013760006020848301015280955050505050509250929050565b634e487b7160e01b600052601160045260246000fd5b60008282101561202b5761202b612003565b500390565b600081600019048311821515161561204a5761204a612003565b500290565b60008261206c57634e487b7160e01b600052601260045260246000fd5b500490565b6000821982111561208457612084612003565b500190565b6020808252602c908201527f46756e6374696f6e206d7573742062652063616c6c6564207468726f7567682060408201526b19195b1959d85d1958d85b1b60a21b606082015260800190565b6020808252602c908201527f46756e6374696f6e206d7573742062652063616c6c6564207468726f7567682060408201526b6163746976652070726f787960a01b606082015260800190565b60006020828403121561213357600080fd5b5051919050565b6020808252602b908201527f496e697469616c697a61626c653a20636f6e7472616374206973206e6f74206960408201526a6e697469616c697a696e6760a81b606082015260800190565b60005b838110156121a0578181015183820152602001612188565b838111156113655750506000910152565b7f416363657373436f6e74726f6c3a206163636f756e74200000000000000000008152600083516121e9816017850160208801612185565b7001034b99036b4b9b9b4b733903937b6329607d1b601791840191820152835161221a816028840160208801612185565b01602801949350505050565b6020815260008251806020840152612245816040850160208701612185565b601f01601f19169190910160400192915050565b60006020828403121561226b57600080fd5b815180151581146116fc57600080fd5b634e487b7160e01b600052603260045260246000fd5b6000816122a0576122a0612003565b506000190190565b600082516122ba818460208701612185565b919091019291505056fe360894a13ba1a3210667c828492db98dca3e2076cc3735a920a3ca505d382bbc416464726573733a206c6f772d6c6576656c2064656c65676174652063616c6c206661696c6564a49807205ce4d355092ef5a8a18f56e8913cf4a201fbe287825b095693c21775a2646970667358221220f6d7e9477fb8c04f0baddce49c54c9a0c5e8b9e327ac86a9593b3bb23a93cde064736f6c634300080f0033",
  "linkReferences": {},
  "deployedLinkReferences": {}
}